{
  "address": "0x4Be58979D6b8079800090b281879037288b9E1bc",
  "abi": [
    {
      "inputs": [],
      "stateMutability": "nonpayable",
      "type": "constructor"
    },
    {
      "anonymous": false,
      "inputs": [
        {
          "indexed": true,
          "internalType": "address",
          "name": "owner",
          "type": "address"
        },
        {
          "indexed": true,
          "internalType": "address",
          "name": "approved",
          "type": "address"
        },
        {
          "indexed": true,
          "internalType": "uint256",
          "name": "tokenId",
          "type": "uint256"
        }
      ],
      "name": "Approval",
      "type": "event"
    },
    {
      "anonymous": false,
      "inputs": [
        {
          "indexed": true,
          "internalType": "address",
          "name": "owner",
          "type": "address"
        },
        {
          "indexed": true,
          "internalType": "address",
          "name": "operator",
          "type": "address"
        },
        {
          "indexed": false,
          "internalType": "bool",
          "name": "approved",
          "type": "bool"
        }
      ],
      "name": "ApprovalForAll",
      "type": "event"
    },
    {
      "anonymous": false,
      "inputs": [
        {
          "indexed": true,
          "internalType": "uint256",
          "name": "tokenId",
          "type": "uint256"
        },
        {
          "indexed": true,
          "internalType": "uint256",
          "name": "HatchedTime",
          "type": "uint256"
        }
      ],
      "name": "HatchedEggNFT",
      "type": "event"
    },
    {
      "anonymous": false,
      "inputs": [
        {
          "indexed": true,
          "internalType": "uint256",
          "name": "tokenId",
          "type": "uint256"
        },
        {
          "indexed": true,
          "internalType": "uint256",
          "name": "HatchTime",
          "type": "uint256"
        }
      ],
      "name": "LaidEggNFT",
      "type": "event"
    },
    {
      "anonymous": false,
      "inputs": [
        {
          "indexed": true,
          "internalType": "address",
          "name": "previousOwner",
          "type": "address"
        },
        {
          "indexed": true,
          "internalType": "address",
          "name": "newOwner",
          "type": "address"
        }
      ],
      "name": "OwnershipTransferred",
      "type": "event"
    },
    {
      "anonymous": false,
      "inputs": [
        {
          "indexed": true,
          "internalType": "address",
          "name": "from",
          "type": "address"
        },
        {
          "indexed": true,
          "internalType": "address",
          "name": "to",
          "type": "address"
        },
        {
          "indexed": true,
          "internalType": "uint256",
          "name": "tokenId",
          "type": "uint256"
        }
      ],
      "name": "Transfer",
      "type": "event"
    },
    {
      "inputs": [],
      "name": "HatchTime",
      "outputs": [
        {
          "internalType": "uint256",
          "name": "",
          "type": "uint256"
        }
      ],
      "stateMutability": "view",
      "type": "function"
    },
    {
      "inputs": [
        {
          "internalType": "uint256",
          "name": "tokenId",
          "type": "uint256"
        }
      ],
      "name": "ResetTimer",
      "outputs": [],
      "stateMutability": "nonpayable",
      "type": "function"
    },
    {
      "inputs": [
        {
          "internalType": "string",
          "name": "_svgEggRaw",
          "type": "string"
        }
      ],
      "name": "addEggSVG",
      "outputs": [],
      "stateMutability": "nonpayable",
      "type": "function"
    },
    {
      "inputs": [
        {
          "internalType": "string",
          "name": "_svgEggURI",
          "type": "string"
        }
      ],
      "name": "addEggURI",
      "outputs": [],
      "stateMutability": "nonpayable",
      "type": "function"
    },
    {
      "inputs": [
        {
          "internalType": "string",
          "name": "_svgHatchRaw",
          "type": "string"
        }
      ],
      "name": "addHatchSVG",
      "outputs": [],
      "stateMutability": "nonpayable",
      "type": "function"
    },
    {
      "inputs": [
        {
          "internalType": "string",
          "name": "_svgHatchURI",
          "type": "string"
        }
      ],
      "name": "addHatchURI",
      "outputs": [],
      "stateMutability": "nonpayable",
      "type": "function"
    },
    {
      "inputs": [],
      "name": "allTokenArray",
      "outputs": [
        {
          "internalType": "uint256[]",
          "name": "",
          "type": "uint256[]"
        }
      ],
      "stateMutability": "view",
      "type": "function"
    },
    {
      "inputs": [],
      "name": "allTokenTokenURIs",
      "outputs": [
        {
          "internalType": "string[]",
          "name": "",
          "type": "string[]"
        }
      ],
      "stateMutability": "view",
      "type": "function"
    },
    {
      "inputs": [
        {
          "internalType": "address",
          "name": "to",
          "type": "address"
        },
        {
          "internalType": "uint256",
          "name": "tokenId",
          "type": "uint256"
        }
      ],
      "name": "approve",
      "outputs": [],
      "stateMutability": "nonpayable",
      "type": "function"
    },
    {
      "inputs": [
        {
          "internalType": "address",
          "name": "owner",
          "type": "address"
        }
      ],
      "name": "balanceOf",
      "outputs": [
        {
          "internalType": "uint256",
          "name": "",
          "type": "uint256"
        }
      ],
      "stateMutability": "view",
      "type": "function"
    },
    {
      "inputs": [
        {
          "internalType": "uint256",
          "name": "tokenId",
          "type": "uint256"
        }
      ],
      "name": "bless",
      "outputs": [],
      "stateMutability": "nonpayable",
      "type": "function"
    },
    {
      "inputs": [],
      "name": "create",
      "outputs": [],
      "stateMutability": "nonpayable",
      "type": "function"
    },
    {
      "inputs": [],
      "name": "eggImageURI",
      "outputs": [
        {
          "internalType": "string",
          "name": "",
          "type": "string"
        }
      ],
      "stateMutability": "view",
      "type": "function"
    },
    {
      "inputs": [
        {
          "internalType": "uint256",
          "name": "tokenId",
          "type": "uint256"
        }
      ],
      "name": "getApproved",
      "outputs": [
        {
          "internalType": "address",
          "name": "",
          "type": "address"
        }
      ],
      "stateMutability": "view",
      "type": "function"
    },
    {
      "inputs": [],
      "name": "getTokenCounter",
      "outputs": [
        {
          "internalType": "uint256",
          "name": "",
          "type": "uint256"
        }
      ],
      "stateMutability": "view",
      "type": "function"
    },
    {
      "inputs": [
        {
          "internalType": "uint256",
          "name": "tokenId",
          "type": "uint256"
        }
      ],
      "name": "hatchEgg",
      "outputs": [],
      "stateMutability": "payable",
      "type": "function"
    },
    {
      "inputs": [],
      "name": "hatchFee",
      "outputs": [
        {
          "internalType": "uint256",
          "name": "",
          "type": "uint256"
        }
      ],
      "stateMutability": "view",
      "type": "function"
    },
    {
      "inputs": [],
      "name": "hatchTime",
      "outputs": [
        {
          "internalType": "uint256",
          "name": "",
          "type": "uint256"
        }
      ],
      "stateMutability": "view",
      "type": "function"
    },
    {
      "inputs": [
        {
          "internalType": "address",
          "name": "owner",
          "type": "address"
        },
        {
          "internalType": "address",
          "name": "operator",
          "type": "address"
        }
      ],
      "name": "isApprovedForAll",
      "outputs": [
        {
          "internalType": "bool",
          "name": "",
          "type": "bool"
        }
      ],
      "stateMutability": "view",
      "type": "function"
    },
    {
      "inputs": [],
      "name": "name",
      "outputs": [
        {
          "internalType": "string",
          "name": "",
          "type": "string"
        }
      ],
      "stateMutability": "view",
      "type": "function"
    },
    {
      "inputs": [],
      "name": "owner",
      "outputs": [
        {
          "internalType": "address",
          "name": "",
          "type": "address"
        }
      ],
      "stateMutability": "view",
      "type": "function"
    },
    {
      "inputs": [
        {
          "internalType": "uint256",
          "name": "tokenId",
          "type": "uint256"
        }
      ],
      "name": "ownerOf",
      "outputs": [
        {
          "internalType": "address",
          "name": "",
          "type": "address"
        }
      ],
      "stateMutability": "view",
      "type": "function"
    },
    {
      "inputs": [
        {
          "internalType": "address",
          "name": "tokenOwner",
          "type": "address"
        }
      ],
      "name": "ownerOfTokenIds",
      "outputs": [
        {
          "internalType": "uint256[]",
          "name": "",
          "type": "uint256[]"
        }
      ],
      "stateMutability": "view",
      "type": "function"
    },
    {
      "inputs": [
        {
          "internalType": "address",
          "name": "tokenOwner",
          "type": "address"
        }
      ],
      "name": "ownerOfTokenURIs",
      "outputs": [
        {
          "internalType": "string[]",
          "name": "",
          "type": "string[]"
        }
      ],
      "stateMutability": "view",
      "type": "function"
    },
    {
      "inputs": [],
      "name": "renounceOwnership",
      "outputs": [],
      "stateMutability": "nonpayable",
      "type": "function"
    },
    {
      "inputs": [
        {
          "internalType": "address",
          "name": "from",
          "type": "address"
        },
        {
          "internalType": "address",
          "name": "to",
          "type": "address"
        },
        {
          "internalType": "uint256",
          "name": "tokenId",
          "type": "uint256"
        }
      ],
      "name": "safeTransferFrom",
      "outputs": [],
      "stateMutability": "nonpayable",
      "type": "function"
    },
    {
      "inputs": [
        {
          "internalType": "address",
          "name": "from",
          "type": "address"
        },
        {
          "internalType": "address",
          "name": "to",
          "type": "address"
        },
        {
          "internalType": "uint256",
          "name": "tokenId",
          "type": "uint256"
        },
        {
          "internalType": "bytes",
          "name": "_data",
          "type": "bytes"
        }
      ],
      "name": "safeTransferFrom",
      "outputs": [],
      "stateMutability": "nonpayable",
      "type": "function"
    },
    {
      "inputs": [
        {
          "internalType": "address",
          "name": "operator",
          "type": "address"
        },
        {
          "internalType": "bool",
          "name": "approved",
          "type": "bool"
        }
      ],
      "name": "setApprovalForAll",
      "outputs": [],
      "stateMutability": "nonpayable",
      "type": "function"
    },
    {
      "inputs": [
        {
          "internalType": "uint256",
          "name": "_fee",
          "type": "uint256"
        }
      ],
      "name": "setHatchFee",
      "outputs": [],
      "stateMutability": "nonpayable",
      "type": "function"
    },
    {
      "inputs": [
        {
          "internalType": "bytes4",
          "name": "interfaceId",
          "type": "bytes4"
        }
      ],
      "name": "supportsInterface",
      "outputs": [
        {
          "internalType": "bool",
          "name": "",
          "type": "bool"
        }
      ],
      "stateMutability": "view",
      "type": "function"
    },
    {
      "inputs": [
        {
          "internalType": "string",
          "name": "svg",
          "type": "string"
        }
      ],
      "name": "svgToImageURI",
      "outputs": [
        {
          "internalType": "string",
          "name": "",
          "type": "string"
        }
      ],
      "stateMutability": "pure",
      "type": "function"
    },
    {
      "inputs": [],
      "name": "symbol",
      "outputs": [
        {
          "internalType": "string",
          "name": "",
          "type": "string"
        }
      ],
      "stateMutability": "view",
      "type": "function"
    },
    {
      "inputs": [],
      "name": "tokenCounter",
      "outputs": [
        {
          "internalType": "uint256",
          "name": "",
          "type": "uint256"
        }
      ],
      "stateMutability": "view",
      "type": "function"
    },
    {
      "inputs": [
        {
          "internalType": "uint256",
          "name": "",
          "type": "uint256"
        }
      ],
      "name": "tokenIdToHatchTimer",
      "outputs": [
        {
          "internalType": "uint256",
          "name": "",
          "type": "uint256"
        }
      ],
      "stateMutability": "view",
      "type": "function"
    },
    {
      "inputs": [
        {
          "internalType": "uint256",
          "name": "tokenId",
          "type": "uint256"
        }
      ],
      "name": "tokenURI",
      "outputs": [
        {
          "internalType": "string",
          "name": "",
          "type": "string"
        }
      ],
      "stateMutability": "view",
      "type": "function"
    },
    {
      "inputs": [
        {
          "internalType": "address",
          "name": "from",
          "type": "address"
        },
        {
          "internalType": "address",
          "name": "to",
          "type": "address"
        },
        {
          "internalType": "uint256",
          "name": "tokenId",
          "type": "uint256"
        }
      ],
      "name": "transferFrom",
      "outputs": [],
      "stateMutability": "nonpayable",
      "type": "function"
    },
    {
      "inputs": [
        {
          "internalType": "address",
          "name": "newOwner",
          "type": "address"
        }
      ],
      "name": "transferOwnership",
      "outputs": [],
      "stateMutability": "nonpayable",
      "type": "function"
    },
    {
      "inputs": [],
      "name": "withdraw",
      "outputs": [],
      "stateMutability": "nonpayable",
      "type": "function"
    }
  ],
  "transactionHash": "0xd84acac315303dff672a297dfad39dad804301d8b1a7d302e37a1f06e277719c",
  "args": [],
  "solcInputHash": "504e2099befa5d729e9a28aab2e0996c",
  "bytecode": "0x60806040526301da9c006007556000600c553480156200001e57600080fd5b506040518060400160405280600f81526020017f4b727970746f204567672047616e6700000000000000000000000000000000008152506040518060400160405280600381526020017f4b454700000000000000000000000000000000000000000000000000000000008152508160009080519060200190620000a3929190620001bb565b508060019080519060200190620000bc929190620001bb565b505050620000df620000d3620000ed60201b60201c565b620000f560201b60201c565b6000600981905550620002d0565b600033905090565b6000600660009054906101000a900473ffffffffffffffffffffffffffffffffffffffff16905081600660006101000a81548173ffffffffffffffffffffffffffffffffffffffff021916908373ffffffffffffffffffffffffffffffffffffffff1602179055508173ffffffffffffffffffffffffffffffffffffffff168173ffffffffffffffffffffffffffffffffffffffff167f8be0079c531659141344cd1fd0a4f28419497f9722a3daafe3b4186f6b6457e060405160405180910390a35050565b828054620001c9906200026b565b90600052602060002090601f016020900481019282620001ed576000855562000239565b82601f106200020857805160ff191683800117855562000239565b8280016001018555821562000239579182015b82811115620002385782518255916020019190600101906200021b565b5b5090506200024891906200024c565b5090565b5b80821115620002675760008160009055506001016200024d565b5090565b600060028204905060018216806200028457607f821691505b602082108114156200029b576200029a620002a1565b5b50919050565b7f4e487b7100000000000000000000000000000000000000000000000000000000600052602260045260246000fd5b61442080620002e06000396000f3fe6080604052600436106102255760003560e01c80638631f9dd11610123578063c5925a5e116100ab578063e985e9c51161006f578063e985e9c51461080a578063efc81a8c14610847578063f2fde38b1461085e578063f3d3418814610887578063fc537fd6146108b057610225565b8063c5925a5e14610711578063c71d8bad1461073a578063c87b56dd14610765578063ca8a7d5e146107a2578063d082e381146107df57610225565b8063a22cb465116100f2578063a22cb46514610642578063a2836a291461066b578063a9ef0f5a14610694578063b88d4fde146106bf578063c15f5342146106e857610225565b80638631f9dd146105865780638da5cb5b146105c357806395d89b41146105ee5780639f0fff9e1461061957610225565b80633ccfd60b116101b15780636352211e116101755780636352211e1461049f5780636e02007d146104dc57806370a0823114610507578063715018a614610544578063752f20c21461055b57610225565b80633ccfd60b146103e057806342842e0e146103f757806348eaff74146104205780634f8c79f81461044b57806354c629e31461047457610225565b8063095ea7b3116101f8578063095ea7b3146102f85780631ca0fd78146103215780632385554c1461035e57806323b872dd1461037a57806330d871c6146103a357610225565b806301ffc9a71461022a57806306fdde03146102675780630780c41414610292578063081812fc146102bb575b600080fd5b34801561023657600080fd5b50610251600480360381019061024c9190613034565b6108db565b60405161025e9190613c4c565b60405180910390f35b34801561027357600080fd5b5061027c6109bd565b6040516102899190613c67565b60405180910390f35b34801561029e57600080fd5b506102b960048036038101906102b49190613086565b610a4f565b005b3480156102c757600080fd5b506102e260048036038101906102dd91906130c7565b610ae5565b6040516102ef9190613ba1565b60405180910390f35b34801561030457600080fd5b5061031f600480360381019061031a9190612ff8565b610b6a565b005b34801561032d57600080fd5b5061034860048036038101906103439190612e8d565b610c82565b6040516103559190613c08565b60405180910390f35b610378600480360381019061037391906130c7565b610dc8565b005b34801561038657600080fd5b506103a1600480360381019061039c9190612ef2565b610f15565b005b3480156103af57600080fd5b506103ca60048036038101906103c59190613086565b610f75565b6040516103d79190613c67565b60405180910390f35b3480156103ec57600080fd5b506103f5611008565b005b34801561040357600080fd5b5061041e60048036038101906104199190612ef2565b6110da565b005b34801561042c57600080fd5b506104356110fa565b6040516104429190613ec9565b60405180910390f35b34801561045757600080fd5b50610472600480360381019061046d91906130c7565b611100565b005b34801561048057600080fd5b50610489611186565b6040516104969190613c08565b60405180910390f35b3480156104ab57600080fd5b506104c660048036038101906104c191906130c7565b611277565b6040516104d39190613ba1565b60405180910390f35b3480156104e857600080fd5b506104f1611329565b6040516104fe9190613ec9565b60405180910390f35b34801561051357600080fd5b5061052e60048036038101906105299190612e8d565b611333565b60405161053b9190613ec9565b60405180910390f35b34801561055057600080fd5b506105596113eb565b005b34801561056757600080fd5b50610570611473565b60405161057d9190613c2a565b60405180910390f35b34801561059257600080fd5b506105ad60048036038101906105a891906130c7565b611558565b6040516105ba9190613ec9565b60405180910390f35b3480156105cf57600080fd5b506105d8611570565b6040516105e59190613ba1565b60405180910390f35b3480156105fa57600080fd5b5061060361159a565b6040516106109190613c67565b60405180910390f35b34801561062557600080fd5b50610640600480360381019061063b9190613086565b61162c565b005b34801561064e57600080fd5b5061066960048036038101906106649190612fbc565b6116c2565b005b34801561067757600080fd5b50610692600480360381019061068d9190613086565b611843565b005b3480156106a057600080fd5b506106a96118d9565b6040516106b69190613c67565b60405180910390f35b3480156106cb57600080fd5b506106e660048036038101906106e19190612f41565b611967565b005b3480156106f457600080fd5b5061070f600480360381019061070a91906130c7565b6119c9565b005b34801561071d57600080fd5b5061073860048036038101906107339190613086565b611a39565b005b34801561074657600080fd5b5061074f611acf565b60405161075c9190613ec9565b60405180910390f35b34801561077157600080fd5b5061078c600480360381019061078791906130c7565b611ad5565b6040516107999190613c67565b60405180910390f35b3480156107ae57600080fd5b506107c960048036038101906107c49190612e8d565b611ca5565b6040516107d69190613c2a565b60405180910390f35b3480156107eb57600080fd5b506107f4611ddf565b6040516108019190613ec9565b60405180910390f35b34801561081657600080fd5b50610831600480360381019061082c9190612eb6565b611de5565b60405161083e9190613c4c565b60405180910390f35b34801561085357600080fd5b5061085c611e79565b005b34801561086a57600080fd5b5061088560048036038101906108809190612e8d565b611f11565b005b34801561089357600080fd5b506108ae60048036038101906108a991906130c7565b612009565b005b3480156108bc57600080fd5b506108c5612117565b6040516108d29190613ec9565b60405180910390f35b60007f80ac58cd000000000000000000000000000000000000000000000000000000007bffffffffffffffffffffffffffffffffffffffffffffffffffffffff1916827bffffffffffffffffffffffffffffffffffffffffffffffffffffffff191614806109a657507f5b5e139f000000000000000000000000000000000000000000000000000000007bffffffffffffffffffffffffffffffffffffffffffffffffffffffff1916827bffffffffffffffffffffffffffffffffffffffffffffffffffffffff1916145b806109b657506109b58261211d565b5b9050919050565b6060600080546109cc90614206565b80601f01602080910402602001604051908101604052809291908181526020018280546109f890614206565b8015610a455780601f10610a1a57610100808354040283529160200191610a45565b820191906000526020600020905b815481529060010190602001808311610a2857829003601f168201915b5050505050905090565b610a57612187565b73ffffffffffffffffffffffffffffffffffffffff16610a75611570565b73ffffffffffffffffffffffffffffffffffffffff1614610acb576040517f08c379a0000000000000000000000000000000000000000000000000000000008152600401610ac290613e09565b60405180910390fd5b80600b9080519060200190610ae1929190612cb1565b5050565b6000610af08261218f565b610b2f576040517f08c379a0000000000000000000000000000000000000000000000000000000008152600401610b2690613de9565b60405180910390fd5b6004600083815260200190815260200160002060009054906101000a900473ffffffffffffffffffffffffffffffffffffffff169050919050565b6000610b7582611277565b90508073ffffffffffffffffffffffffffffffffffffffff168373ffffffffffffffffffffffffffffffffffffffff161415610be6576040517f08c379a0000000000000000000000000000000000000000000000000000000008152600401610bdd90613e69565b60405180910390fd5b8073ffffffffffffffffffffffffffffffffffffffff16610c05612187565b73ffffffffffffffffffffffffffffffffffffffff161480610c345750610c3381610c2e612187565b611de5565b5b610c73576040517f08c379a0000000000000000000000000000000000000000000000000000000008152600401610c6a90613d49565b60405180910390fd5b610c7d83836121fb565b505050565b60606000610c8f83611333565b67ffffffffffffffff811115610cce577f4e487b7100000000000000000000000000000000000000000000000000000000600052604160045260246000fd5b604051908082528060200260200182016040528015610d0157816020015b6060815260200190600190039081610cec5790505b5090506000805b600954811015610dbd578473ffffffffffffffffffffffffffffffffffffffff16610d3282611277565b73ffffffffffffffffffffffffffffffffffffffff161415610daa57610d5781611ad5565b838381518110610d90577f4e487b7100000000000000000000000000000000000000000000000000000000600052603260045260246000fd5b60200260200101819052508180610da690614238565b9250505b8080610db590614238565b915050610d08565b508192505050919050565b6000600d6000838152602001908152602001600020541415610e1f576040517f08c379a0000000000000000000000000000000000000000000000000000000008152600401610e1690613ea9565b60405180910390fd5b600d600082815260200190815260200160002054421115610e75576040517f08c379a0000000000000000000000000000000000000000000000000000000008152600401610e6c90613da9565b60405180910390fd5b610e7e8161218f565b610ebd576040517f08c379a0000000000000000000000000000000000000000000000000000000008152600401610eb490613e49565b60405180910390fd5b600c543414610ecb57600080fd5b6000600d60008381526020019081526020016000208190555042817ff636f96ebae0f362bc673d465a964fbbadbe24117ddf2e6e8083b1e51fabe5ff60405160405180910390a350565b610f26610f20612187565b826122b4565b610f65576040517f08c379a0000000000000000000000000000000000000000000000000000000008152600401610f5c90613e89565b60405180910390fd5b610f70838383612392565b505050565b606060006040518060400160405280601a81526020017f646174613a696d6167652f7376672b786d6c3b6261736536342c00000000000081525090506000610fdb84604051602001610fc79190613b01565b6040516020818303038152906040526125ee565b90508181604051602001610ff0929190613b18565b60405160208183030381529060405292505050919050565b611010612187565b73ffffffffffffffffffffffffffffffffffffffff1661102e611570565b73ffffffffffffffffffffffffffffffffffffffff1614611084576040517f08c379a000000000000000000000000000000000000000000000000000000000815260040161107b90613e09565b60405180910390fd5b600061108e611570565b90508073ffffffffffffffffffffffffffffffffffffffff166108fc479081150290604051600060405180830381858888f193505050501580156110d6573d6000803e3d6000fd5b5050565b6110f583838360405180602001604052806000815250611967565b505050565b60085481565b611108612187565b73ffffffffffffffffffffffffffffffffffffffff16611126611570565b73ffffffffffffffffffffffffffffffffffffffff161461117c576040517f08c379a000000000000000000000000000000000000000000000000000000000815260040161117390613e09565b60405180910390fd5b80600c8190555050565b6060600060095467ffffffffffffffff8111156111cc577f4e487b7100000000000000000000000000000000000000000000000000000000600052604160045260246000fd5b6040519080825280602002602001820160405280156111ff57816020015b60608152602001906001900390816111ea5790505b50905060005b60095481101561126f5761121881611ad5565b828281518110611251577f4e487b7100000000000000000000000000000000000000000000000000000000600052603260045260246000fd5b6020026020010181905250808061126790614238565b915050611205565b508091505090565b6000806002600084815260200190815260200160002060009054906101000a900473ffffffffffffffffffffffffffffffffffffffff169050600073ffffffffffffffffffffffffffffffffffffffff168173ffffffffffffffffffffffffffffffffffffffff161415611320576040517f08c379a000000000000000000000000000000000000000000000000000000000815260040161131790613d89565b60405180910390fd5b80915050919050565b6000600954905090565b60008073ffffffffffffffffffffffffffffffffffffffff168273ffffffffffffffffffffffffffffffffffffffff1614156113a4576040517f08c379a000000000000000000000000000000000000000000000000000000000815260040161139b90613d69565b60405180910390fd5b600360008373ffffffffffffffffffffffffffffffffffffffff1673ffffffffffffffffffffffffffffffffffffffff168152602001908152602001600020549050919050565b6113f3612187565b73ffffffffffffffffffffffffffffffffffffffff16611411611570565b73ffffffffffffffffffffffffffffffffffffffff1614611467576040517f08c379a000000000000000000000000000000000000000000000000000000000815260040161145e90613e09565b60405180910390fd5b6114716000612799565b565b6060600060095467ffffffffffffffff8111156114b9577f4e487b7100000000000000000000000000000000000000000000000000000000600052604160045260246000fd5b6040519080825280602002602001820160405280156114e75781602001602082028036833780820191505090505b50905060005b6009548110156115505780828281518110611531577f4e487b7100000000000000000000000000000000000000000000000000000000600052603260045260246000fd5b602002602001018181525050808061154890614238565b9150506114ed565b508091505090565b600d6020528060005260406000206000915090505481565b6000600660009054906101000a900473ffffffffffffffffffffffffffffffffffffffff16905090565b6060600180546115a990614206565b80601f01602080910402602001604051908101604052809291908181526020018280546115d590614206565b80156116225780601f106115f757610100808354040283529160200191611622565b820191906000526020600020905b81548152906001019060200180831161160557829003601f168201915b5050505050905090565b611634612187565b73ffffffffffffffffffffffffffffffffffffffff16611652611570565b73ffffffffffffffffffffffffffffffffffffffff16146116a8576040517f08c379a000000000000000000000000000000000000000000000000000000000815260040161169f90613e09565b60405180910390fd5b80600a90805190602001906116be929190612cb1565b5050565b6116ca612187565b73ffffffffffffffffffffffffffffffffffffffff168273ffffffffffffffffffffffffffffffffffffffff161415611738576040517f08c379a000000000000000000000000000000000000000000000000000000000815260040161172f90613d09565b60405180910390fd5b8060056000611745612187565b73ffffffffffffffffffffffffffffffffffffffff1673ffffffffffffffffffffffffffffffffffffffff16815260200190815260200160002060008473ffffffffffffffffffffffffffffffffffffffff1673ffffffffffffffffffffffffffffffffffffffff16815260200190815260200160002060006101000a81548160ff0219169083151502179055508173ffffffffffffffffffffffffffffffffffffffff166117f2612187565b73ffffffffffffffffffffffffffffffffffffffff167f17307eab39ab6107e8899845ad3d59bd9653f200f220920489ca2b5937696c31836040516118379190613c4c565b60405180910390a35050565b61184b612187565b73ffffffffffffffffffffffffffffffffffffffff16611869611570565b73ffffffffffffffffffffffffffffffffffffffff16146118bf576040517f08c379a00000000000000000000000000000000000000000000000000000000081526004016118b690613e09565b60405180910390fd5b60006118ca82610f75565b90506118d581610a4f565b5050565b600a80546118e690614206565b80601f016020809104026020016040519081016040528092919081815260200182805461191290614206565b801561195f5780601f106119345761010080835404028352916020019161195f565b820191906000526020600020905b81548152906001019060200180831161194257829003601f168201915b505050505081565b611978611972612187565b836122b4565b6119b7576040517f08c379a00000000000000000000000000000000000000000000000000000000081526004016119ae90613e89565b60405180910390fd5b6119c38484848461285f565b50505050565b6119d28161218f565b611a11576040517f08c379a0000000000000000000000000000000000000000000000000000000008152600401611a0890613e49565b60405180910390fd5b60075442611a1f919061403b565b600d60008381526020019081526020016000208190555050565b611a41612187565b73ffffffffffffffffffffffffffffffffffffffff16611a5f611570565b73ffffffffffffffffffffffffffffffffffffffff1614611ab5576040517f08c379a0000000000000000000000000000000000000000000000000000000008152600401611aac90613e09565b60405180910390fd5b6000611ac082610f75565b9050611acb8161162c565b5050565b60075481565b6060611ae08261218f565b611b1f576040517f08c379a0000000000000000000000000000000000000000000000000000000008152600401611b1690613e49565b60405180910390fd5b6000600a8054611b2e90614206565b80601f0160208091040260200160405190810160405280929190818152602001828054611b5a90614206565b8015611ba75780601f10611b7c57610100808354040283529160200191611ba7565b820191906000526020600020905b815481529060010190602001808311611b8a57829003601f168201915b50505050509050600d6000848152602001908152602001600020544210611c5657600b8054611bd590614206565b80601f0160208091040260200160405190810160405280929190818152602001828054611c0190614206565b8015611c4e5780601f10611c2357610100808354040283529160200191611c4e565b820191906000526020600020905b815481529060010190602001808311611c3157829003601f168201915b505050505090505b611c7e81604051602001611c6a9190613b3c565b6040516020818303038152906040526125ee565b604051602001611c8e9190613b7f565b604051602081830303815290604052915050919050565b60606000611cb283611333565b67ffffffffffffffff811115611cf1577f4e487b7100000000000000000000000000000000000000000000000000000000600052604160045260246000fd5b604051908082528060200260200182016040528015611d1f5781602001602082028036833780820191505090505b5090506000805b600954811015611dd4578473ffffffffffffffffffffffffffffffffffffffff16611d5082611277565b73ffffffffffffffffffffffffffffffffffffffff161415611dc15780838381518110611da6577f4e487b7100000000000000000000000000000000000000000000000000000000600052603260045260246000fd5b6020026020010181815250508180611dbd90614238565b9250505b8080611dcc90614238565b915050611d26565b508192505050919050565b60095481565b6000600560008473ffffffffffffffffffffffffffffffffffffffff1673ffffffffffffffffffffffffffffffffffffffff16815260200190815260200160002060008373ffffffffffffffffffffffffffffffffffffffff1673ffffffffffffffffffffffffffffffffffffffff16815260200190815260200160002060009054906101000a900460ff16905092915050565b60075442611e87919061403b565b600d6000600954815260200190815260200160002081905550600d60006009548152602001908152602001600020546008819055506008546009547f6e147ee04eee68681ef8b3fa0e84f5fcf026a98017bebc6cdf9190d174330c6b60405160405180910390a3611efa336009546128bb565b6001600954611f09919061403b565b600981905550565b611f19612187565b73ffffffffffffffffffffffffffffffffffffffff16611f37611570565b73ffffffffffffffffffffffffffffffffffffffff1614611f8d576040517f08c379a0000000000000000000000000000000000000000000000000000000008152600401611f8490613e09565b60405180910390fd5b600073ffffffffffffffffffffffffffffffffffffffff168173ffffffffffffffffffffffffffffffffffffffff161415611ffd576040517f08c379a0000000000000000000000000000000000000000000000000000000008152600401611ff490613ca9565b60405180910390fd5b61200681612799565b50565b612011612187565b73ffffffffffffffffffffffffffffffffffffffff1661202f611570565b73ffffffffffffffffffffffffffffffffffffffff1614612085576040517f08c379a000000000000000000000000000000000000000000000000000000000815260040161207c90613e09565b60405180910390fd5b61208e8161218f565b6120cd576040517f08c379a00000000000000000000000000000000000000000000000000000000081526004016120c490613e49565b60405180910390fd5b6000600d60008381526020019081526020016000208190555042817ff636f96ebae0f362bc673d465a964fbbadbe24117ddf2e6e8083b1e51fabe5ff60405160405180910390a350565b600c5481565b60007f01ffc9a7000000000000000000000000000000000000000000000000000000007bffffffffffffffffffffffffffffffffffffffffffffffffffffffff1916827bffffffffffffffffffffffffffffffffffffffffffffffffffffffff1916149050919050565b600033905090565b60008073ffffffffffffffffffffffffffffffffffffffff166002600084815260200190815260200160002060009054906101000a900473ffffffffffffffffffffffffffffffffffffffff1673ffffffffffffffffffffffffffffffffffffffff1614159050919050565b816004600083815260200190815260200160002060006101000a81548173ffffffffffffffffffffffffffffffffffffffff021916908373ffffffffffffffffffffffffffffffffffffffff160217905550808273ffffffffffffffffffffffffffffffffffffffff1661226e83611277565b73ffffffffffffffffffffffffffffffffffffffff167f8c5be1e5ebec7d5bd14f71427d1e84f3dd0314c0f7b2291e5b200ac8c7c3b92560405160405180910390a45050565b60006122bf8261218f565b6122fe576040517f08c379a00000000000000000000000000000000000000000000000000000000081526004016122f590613d29565b60405180910390fd5b600061230983611277565b90508073ffffffffffffffffffffffffffffffffffffffff168473ffffffffffffffffffffffffffffffffffffffff16148061237857508373ffffffffffffffffffffffffffffffffffffffff1661236084610ae5565b73ffffffffffffffffffffffffffffffffffffffff16145b8061238957506123888185611de5565b5b91505092915050565b8273ffffffffffffffffffffffffffffffffffffffff166123b282611277565b73ffffffffffffffffffffffffffffffffffffffff1614612408576040517f08c379a00000000000000000000000000000000000000000000000000000000081526004016123ff90613e29565b60405180910390fd5b600073ffffffffffffffffffffffffffffffffffffffff168273ffffffffffffffffffffffffffffffffffffffff161415612478576040517f08c379a000000000000000000000000000000000000000000000000000000000815260040161246f90613ce9565b60405180910390fd5b6124838383836128d9565b61248e6000826121fb565b6001600360008573ffffffffffffffffffffffffffffffffffffffff1673ffffffffffffffffffffffffffffffffffffffff16815260200190815260200160002060008282546124de919061411c565b925050819055506001600360008473ffffffffffffffffffffffffffffffffffffffff1673ffffffffffffffffffffffffffffffffffffffff1681526020019081526020016000206000828254612535919061403b565b92505081905550816002600083815260200190815260200160002060006101000a81548173ffffffffffffffffffffffffffffffffffffffff021916908373ffffffffffffffffffffffffffffffffffffffff160217905550808273ffffffffffffffffffffffffffffffffffffffff168473ffffffffffffffffffffffffffffffffffffffff167fddf252ad1be2c89b69c2b068fc378daa952ba7f163c4a11628f55a4df523b3ef60405160405180910390a4505050565b606060008251141561261157604051806020016040528060008152509050612794565b60006040518060600160405280604081526020016143ab6040913990506000600360028551612640919061403b565b61264a9190614091565b600461265691906140c2565b90506000602082612667919061403b565b67ffffffffffffffff8111156126a6577f4e487b7100000000000000000000000000000000000000000000000000000000600052604160045260246000fd5b6040519080825280601f01601f1916602001820160405280156126d85781602001600182028036833780820191505090505b509050818152600183018586518101602084015b81831015612753576003830192508251603f8160121c1685015160f81b8252600182019150603f81600c1c1685015160f81b8252600182019150603f8160061c1685015160f81b8252600182019150603f811685015160f81b8252600182019150506126ec565b60038951066001811461276d576002811461277d57612788565b613d3d60f01b6002830352612788565b603d60f81b60018303525b50505050508093505050505b919050565b6000600660009054906101000a900473ffffffffffffffffffffffffffffffffffffffff16905081600660006101000a81548173ffffffffffffffffffffffffffffffffffffffff021916908373ffffffffffffffffffffffffffffffffffffffff1602179055508173ffffffffffffffffffffffffffffffffffffffff168173ffffffffffffffffffffffffffffffffffffffff167f8be0079c531659141344cd1fd0a4f28419497f9722a3daafe3b4186f6b6457e060405160405180910390a35050565b61286a848484612392565b612876848484846128de565b6128b5576040517f08c379a00000000000000000000000000000000000000000000000000000000081526004016128ac90613c89565b60405180910390fd5b50505050565b6128d5828260405180602001604052806000815250612a75565b5050565b505050565b60006128ff8473ffffffffffffffffffffffffffffffffffffffff16612ad0565b15612a68578373ffffffffffffffffffffffffffffffffffffffff1663150b7a02612928612187565b8786866040518563ffffffff1660e01b815260040161294a9493929190613bbc565b602060405180830381600087803b15801561296457600080fd5b505af192505050801561299557506040513d601f19601f82011682018060405250810190612992919061305d565b60015b612a18573d80600081146129c5576040519150601f19603f3d011682016040523d82523d6000602084013e6129ca565b606091505b50600081511415612a10576040517f08c379a0000000000000000000000000000000000000000000000000000000008152600401612a0790613c89565b60405180910390fd5b805181602001fd5b63150b7a0260e01b7bffffffffffffffffffffffffffffffffffffffffffffffffffffffff1916817bffffffffffffffffffffffffffffffffffffffffffffffffffffffff191614915050612a6d565b600190505b949350505050565b612a7f8383612ae3565b612a8c60008484846128de565b612acb576040517f08c379a0000000000000000000000000000000000000000000000000000000008152600401612ac290613c89565b60405180910390fd5b505050565b600080823b905060008111915050919050565b600073ffffffffffffffffffffffffffffffffffffffff168273ffffffffffffffffffffffffffffffffffffffff161415612b53576040517f08c379a0000000000000000000000000000000000000000000000000000000008152600401612b4a90613dc9565b60405180910390fd5b612b5c8161218f565b15612b9c576040517f08c379a0000000000000000000000000000000000000000000000000000000008152600401612b9390613cc9565b60405180910390fd5b612ba8600083836128d9565b6001600360008473ffffffffffffffffffffffffffffffffffffffff1673ffffffffffffffffffffffffffffffffffffffff1681526020019081526020016000206000828254612bf8919061403b565b92505081905550816002600083815260200190815260200160002060006101000a81548173ffffffffffffffffffffffffffffffffffffffff021916908373ffffffffffffffffffffffffffffffffffffffff160217905550808273ffffffffffffffffffffffffffffffffffffffff16600073ffffffffffffffffffffffffffffffffffffffff167fddf252ad1be2c89b69c2b068fc378daa952ba7f163c4a11628f55a4df523b3ef60405160405180910390a45050565b828054612cbd90614206565b90600052602060002090601f016020900481019282612cdf5760008555612d26565b82601f10612cf857805160ff1916838001178555612d26565b82800160010185558215612d26579182015b82811115612d25578251825591602001919060010190612d0a565b5b509050612d339190612d37565b5090565b5b80821115612d50576000816000905550600101612d38565b5090565b6000612d67612d6284613f15565b613ee4565b905082815260208101848484011115612d7f57600080fd5b612d8a8482856141c4565b509392505050565b6000612da5612da084613f45565b613ee4565b905082815260208101848484011115612dbd57600080fd5b612dc88482856141c4565b509392505050565b600081359050612ddf8161434e565b92915050565b600081359050612df481614365565b92915050565b600081359050612e098161437c565b92915050565b600081519050612e1e8161437c565b92915050565b600082601f830112612e3557600080fd5b8135612e45848260208601612d54565b91505092915050565b600082601f830112612e5f57600080fd5b8135612e6f848260208601612d92565b91505092915050565b600081359050612e8781614393565b92915050565b600060208284031215612e9f57600080fd5b6000612ead84828501612dd0565b91505092915050565b60008060408385031215612ec957600080fd5b6000612ed785828601612dd0565b9250506020612ee885828601612dd0565b9150509250929050565b600080600060608486031215612f0757600080fd5b6000612f1586828701612dd0565b9350506020612f2686828701612dd0565b9250506040612f3786828701612e78565b9150509250925092565b60008060008060808587031215612f5757600080fd5b6000612f6587828801612dd0565b9450506020612f7687828801612dd0565b9350506040612f8787828801612e78565b925050606085013567ffffffffffffffff811115612fa457600080fd5b612fb087828801612e24565b91505092959194509250565b60008060408385031215612fcf57600080fd5b6000612fdd85828601612dd0565b9250506020612fee85828601612de5565b9150509250929050565b6000806040838503121561300b57600080fd5b600061301985828601612dd0565b925050602061302a85828601612e78565b9150509250929050565b60006020828403121561304657600080fd5b600061305484828501612dfa565b91505092915050565b60006020828403121561306f57600080fd5b600061307d84828501612e0f565b91505092915050565b60006020828403121561309857600080fd5b600082013567ffffffffffffffff8111156130b257600080fd5b6130be84828501612e4e565b91505092915050565b6000602082840312156130d957600080fd5b60006130e784828501612e78565b91505092915050565b60006130fc8383613246565b905092915050565b60006131108383613ae3565b60208301905092915050565b61312581614150565b82525050565b600061313682613f95565b6131408185613fdb565b93508360208202850161315285613f75565b8060005b8581101561318e578484038952815161316f85826130f0565b945061317a83613fc1565b925060208a01995050600181019050613156565b50829750879550505050505092915050565b60006131ab82613fa0565b6131b58185613fec565b93506131c083613f85565b8060005b838110156131f15781516131d88882613104565b97506131e383613fce565b9250506001810190506131c4565b5085935050505092915050565b61320781614162565b82525050565b600061321882613fab565b6132228185613ffd565b93506132328185602086016141d3565b61323b8161433d565b840191505092915050565b600061325182613fb6565b61325b818561400e565b935061326b8185602086016141d3565b6132748161433d565b840191505092915050565b600061328a82613fb6565b613294818561401f565b93506132a48185602086016141d3565b6132ad8161433d565b840191505092915050565b60006132c382613fb6565b6132cd8185614030565b93506132dd8185602086016141d3565b80840191505092915050565b60006132f6600983614030565b91507f7b226e616d65223a2200000000000000000000000000000000000000000000006000830152600982019050919050565b600061333660328361401f565b91507f4552433732313a207472616e7366657220746f206e6f6e20455243373231526560008301527f63656976657220696d706c656d656e74657200000000000000000000000000006020830152604082019050919050565b600061339c60268361401f565b91507f4f776e61626c653a206e6577206f776e657220697320746865207a65726f206160008301527f64647265737300000000000000000000000000000000000000000000000000006020830152604082019050919050565b6000613402601c8361401f565b91507f4552433732313a20746f6b656e20616c7265616479206d696e746564000000006000830152602082019050919050565b600061344260248361401f565b91507f4552433732313a207472616e7366657220746f20746865207a65726f2061646460008301527f72657373000000000000000000000000000000000000000000000000000000006020830152604082019050919050565b60006134a860198361401f565b91507f4552433732313a20617070726f766520746f2063616c6c6572000000000000006000830152602082019050919050565b60006134e8602c8361401f565b91507f4552433732313a206f70657261746f7220717565727920666f72206e6f6e657860008301527f697374656e7420746f6b656e00000000000000000000000000000000000000006020830152604082019050919050565b600061354e60388361401f565b91507f4552433732313a20617070726f76652063616c6c6572206973206e6f74206f7760008301527f6e6572206e6f7220617070726f76656420666f7220616c6c00000000000000006020830152604082019050919050565b60006135b4602a8361401f565b91507f4552433732313a2062616c616e636520717565727920666f7220746865207a6560008301527f726f2061646472657373000000000000000000000000000000000000000000006020830152604082019050919050565b600061361a60298361401f565b91507f4552433732313a206f776e657220717565727920666f72206e6f6e657869737460008301527f656e7420746f6b656e00000000000000000000000000000000000000000000006020830152604082019050919050565b600061368060268361401f565b91507f596f7572206567672068617320616c7265616479206e61747572616c6c79206860008301527f61746368656400000000000000000000000000000000000000000000000000006020830152604082019050919050565b60006136e6604783614030565b91507f222c20226465736372697074696f6e223a22416e204e4654207468617420746860008301527f61742068617463686573222c202261747472696275746573223a22222c20226960208301527f6d616765223a22000000000000000000000000000000000000000000000000006040830152604782019050919050565b6000613772600283614030565b91507f227d0000000000000000000000000000000000000000000000000000000000006000830152600282019050919050565b60006137b2601083614030565b91507f48616368696e672065676773204e4654000000000000000000000000000000006000830152601082019050919050565b60006137f260208361401f565b91507f4552433732313a206d696e7420746f20746865207a65726f20616464726573736000830152602082019050919050565b6000613832602c8361401f565b91507f4552433732313a20617070726f76656420717565727920666f72206e6f6e657860008301527f697374656e7420746f6b656e00000000000000000000000000000000000000006020830152604082019050919050565b600061389860208361401f565b91507f4f776e61626c653a2063616c6c6572206973206e6f7420746865206f776e65726000830152602082019050919050565b60006138d860298361401f565b91507f4552433732313a207472616e73666572206f6620746f6b656e2074686174206960008301527f73206e6f74206f776e00000000000000000000000000000000000000000000006020830152604082019050919050565b600061393e602f8361401f565b91507f4552433732314d657461646174613a2055524920717565727920666f72206e6f60008301527f6e6578697374656e7420746f6b656e00000000000000000000000000000000006020830152604082019050919050565b60006139a460218361401f565b91507f4552433732313a20617070726f76616c20746f2063757272656e74206f776e6560008301527f72000000000000000000000000000000000000000000000000000000000000006020830152604082019050919050565b6000613a0a601d83614030565b91507f646174613a6170706c69636174696f6e2f6a736f6e3b6261736536342c0000006000830152601d82019050919050565b6000613a4a60318361401f565b91507f4552433732313a207472616e736665722063616c6c6572206973206e6f74206f60008301527f776e6572206e6f7220617070726f7665640000000000000000000000000000006020830152604082019050919050565b6000613ab0601c8361401f565b91507f596f7520616c7265616479206861746368656420796f757220656767000000006000830152602082019050919050565b613aec816141ba565b82525050565b613afb816141ba565b82525050565b6000613b0d82846132b8565b915081905092915050565b6000613b2482856132b8565b9150613b3082846132b8565b91508190509392505050565b6000613b47826132e9565b9150613b52826137a5565b9150613b5d826136d9565b9150613b6982846132b8565b9150613b7482613765565b915081905092915050565b6000613b8a826139fd565b9150613b9682846132b8565b915081905092915050565b6000602082019050613bb6600083018461311c565b92915050565b6000608082019050613bd1600083018761311c565b613bde602083018661311c565b613beb6040830185613af2565b8181036060830152613bfd818461320d565b905095945050505050565b60006020820190508181036000830152613c22818461312b565b905092915050565b60006020820190508181036000830152613c4481846131a0565b905092915050565b6000602082019050613c6160008301846131fe565b92915050565b60006020820190508181036000830152613c81818461327f565b905092915050565b60006020820190508181036000830152613ca281613329565b9050919050565b60006020820190508181036000830152613cc28161338f565b9050919050565b60006020820190508181036000830152613ce2816133f5565b9050919050565b60006020820190508181036000830152613d0281613435565b9050919050565b60006020820190508181036000830152613d228161349b565b9050919050565b60006020820190508181036000830152613d42816134db565b9050919050565b60006020820190508181036000830152613d6281613541565b9050919050565b60006020820190508181036000830152613d82816135a7565b9050919050565b60006020820190508181036000830152613da28161360d565b9050919050565b60006020820190508181036000830152613dc281613673565b9050919050565b60006020820190508181036000830152613de2816137e5565b9050919050565b60006020820190508181036000830152613e0281613825565b9050919050565b60006020820190508181036000830152613e228161388b565b9050919050565b60006020820190508181036000830152613e42816138cb565b9050919050565b60006020820190508181036000830152613e6281613931565b9050919050565b60006020820190508181036000830152613e8281613997565b9050919050565b60006020820190508181036000830152613ea281613a3d565b9050919050565b60006020820190508181036000830152613ec281613aa3565b9050919050565b6000602082019050613ede6000830184613af2565b92915050565b6000604051905081810181811067ffffffffffffffff82111715613f0b57613f0a61430e565b5b8060405250919050565b600067ffffffffffffffff821115613f3057613f2f61430e565b5b601f19601f8301169050602081019050919050565b600067ffffffffffffffff821115613f6057613f5f61430e565b5b601f19601f8301169050602081019050919050565b6000819050602082019050919050565b6000819050602082019050919050565b600081519050919050565b600081519050919050565b600081519050919050565b600081519050919050565b6000602082019050919050565b6000602082019050919050565b600082825260208201905092915050565b600082825260208201905092915050565b600082825260208201905092915050565b600082825260208201905092915050565b600082825260208201905092915050565b600081905092915050565b6000614046826141ba565b9150614051836141ba565b9250827fffffffffffffffffffffffffffffffffffffffffffffffffffffffffffffffff0382111561408657614085614281565b5b828201905092915050565b600061409c826141ba565b91506140a7836141ba565b9250826140b7576140b66142b0565b5b828204905092915050565b60006140cd826141ba565b91506140d8836141ba565b9250817fffffffffffffffffffffffffffffffffffffffffffffffffffffffffffffffff048311821515161561411157614110614281565b5b828202905092915050565b6000614127826141ba565b9150614132836141ba565b92508282101561414557614144614281565b5b828203905092915050565b600061415b8261419a565b9050919050565b60008115159050919050565b60007fffffffff0000000000000000000000000000000000000000000000000000000082169050919050565b600073ffffffffffffffffffffffffffffffffffffffff82169050919050565b6000819050919050565b82818337600083830152505050565b60005b838110156141f15780820151818401526020810190506141d6565b83811115614200576000848401525b50505050565b6000600282049050600182168061421e57607f821691505b60208210811415614232576142316142df565b5b50919050565b6000614243826141ba565b91507fffffffffffffffffffffffffffffffffffffffffffffffffffffffffffffffff82141561427657614275614281565b5b600182019050919050565b7f4e487b7100000000000000000000000000000000000000000000000000000000600052601160045260246000fd5b7f4e487b7100000000000000000000000000000000000000000000000000000000600052601260045260246000fd5b7f4e487b7100000000000000000000000000000000000000000000000000000000600052602260045260246000fd5b7f4e487b7100000000000000000000000000000000000000000000000000000000600052604160045260246000fd5b6000601f19601f8301169050919050565b61435781614150565b811461436257600080fd5b50565b61436e81614162565b811461437957600080fd5b50565b6143858161416e565b811461439057600080fd5b50565b61439c816141ba565b81146143a757600080fd5b5056fe4142434445464748494a4b4c4d4e4f505152535455565758595a6162636465666768696a6b6c6d6e6f707172737475767778797a303132333435363738392b2fa2646970667358221220aac42173c57d7f60870ebf4ab0802a5dc34badf04c1fe0aed867b70cc3c7dd0164736f6c63430008000033",
  "devdoc": {
    "kind": "dev",
    "methods": {
      "approve(address,uint256)": {
        "details": "See {IERC721-approve}."
      },
      "balanceOf(address)": {
        "details": "See {IERC721-balanceOf}."
      },
      "getApproved(uint256)": {
        "details": "See {IERC721-getApproved}."
      },
      "isApprovedForAll(address,address)": {
        "details": "See {IERC721-isApprovedForAll}."
      },
      "name()": {
        "details": "See {IERC721Metadata-name}."
      },
      "owner()": {
        "details": "Returns the address of the current owner."
      },
      "ownerOf(uint256)": {
        "details": "See {IERC721-ownerOf}."
      },
      "renounceOwnership()": {
        "details": "Leaves the contract without owner. It will not be possible to call `onlyOwner` functions anymore. Can only be called by the current owner. NOTE: Renouncing ownership will leave the contract without an owner, thereby removing any functionality that is only available to the owner."
      },
      "safeTransferFrom(address,address,uint256)": {
        "details": "See {IERC721-safeTransferFrom}."
      },
      "safeTransferFrom(address,address,uint256,bytes)": {
        "details": "See {IERC721-safeTransferFrom}."
      },
      "setApprovalForAll(address,bool)": {
        "details": "See {IERC721-setApprovalForAll}."
      },
      "supportsInterface(bytes4)": {
        "details": "See {IERC165-supportsInterface}."
      },
      "symbol()": {
        "details": "See {IERC721Metadata-symbol}."
      },
      "tokenURI(uint256)": {
        "details": "See {IERC721Metadata-tokenURI}."
      },
      "transferFrom(address,address,uint256)": {
        "details": "See {IERC721-transferFrom}."
      },
      "transferOwnership(address)": {
        "details": "Transfers ownership of the contract to a new account (`newOwner`). Can only be called by the current owner."
      }
    },
    "version": 1
  },
  "userdoc": {
    "kind": "user",
    "methods": {},
    "version": 1
  },
  "storageLayout": {
    "storage": [
      {
        "astId": 129,
        "contract": "contracts/KryptoEggGang.sol:KryptoEggGang",
        "label": "_name",
        "offset": 0,
        "slot": "0",
        "type": "t_string_storage"
      },
      {
        "astId": 131,
        "contract": "contracts/KryptoEggGang.sol:KryptoEggGang",
        "label": "_symbol",
        "offset": 0,
        "slot": "1",
        "type": "t_string_storage"
      },
      {
        "astId": 135,
        "contract": "contracts/KryptoEggGang.sol:KryptoEggGang",
        "label": "_owners",
        "offset": 0,
        "slot": "2",
        "type": "t_mapping(t_uint256,t_address)"
      },
      {
        "astId": 139,
        "contract": "contracts/KryptoEggGang.sol:KryptoEggGang",
        "label": "_balances",
        "offset": 0,
        "slot": "3",
        "type": "t_mapping(t_address,t_uint256)"
      },
      {
        "astId": 143,
        "contract": "contracts/KryptoEggGang.sol:KryptoEggGang",
        "label": "_tokenApprovals",
        "offset": 0,
        "slot": "4",
        "type": "t_mapping(t_uint256,t_address)"
      },
      {
        "astId": 149,
        "contract": "contracts/KryptoEggGang.sol:KryptoEggGang",
        "label": "_operatorApprovals",
        "offset": 0,
        "slot": "5",
        "type": "t_mapping(t_address,t_mapping(t_address,t_bool))"
      },
      {
        "astId": 7,
        "contract": "contracts/KryptoEggGang.sol:KryptoEggGang",
        "label": "_owner",
        "offset": 0,
        "slot": "6",
        "type": "t_address"
      },
      {
        "astId": 2016,
        "contract": "contracts/KryptoEggGang.sol:KryptoEggGang",
        "label": "hatchTime",
        "offset": 0,
        "slot": "7",
        "type": "t_uint256"
      },
      {
        "astId": 2018,
        "contract": "contracts/KryptoEggGang.sol:KryptoEggGang",
        "label": "HatchTime",
        "offset": 0,
        "slot": "8",
        "type": "t_uint256"
      },
      {
        "astId": 2020,
        "contract": "contracts/KryptoEggGang.sol:KryptoEggGang",
        "label": "tokenCounter",
        "offset": 0,
        "slot": "9",
        "type": "t_uint256"
      },
      {
        "astId": 2022,
        "contract": "contracts/KryptoEggGang.sol:KryptoEggGang",
        "label": "eggImageURI",
        "offset": 0,
        "slot": "10",
        "type": "t_string_storage"
      },
      {
        "astId": 2024,
        "contract": "contracts/KryptoEggGang.sol:KryptoEggGang",
        "label": "hatchImageURI",
        "offset": 0,
        "slot": "11",
        "type": "t_string_storage"
      },
      {
        "astId": 2027,
        "contract": "contracts/KryptoEggGang.sol:KryptoEggGang",
        "label": "hatchFee",
        "offset": 0,
        "slot": "12",
        "type": "t_uint256"
      },
      {
        "astId": 2031,
        "contract": "contracts/KryptoEggGang.sol:KryptoEggGang",
        "label": "tokenIdToHatchTimer",
        "offset": 0,
        "slot": "13",
        "type": "t_mapping(t_uint256,t_uint256)"
      }
    ],
    "types": {
      "t_address": {
        "encoding": "inplace",
        "label": "address",
        "numberOfBytes": "20"
      },
      "t_bool": {
        "encoding": "inplace",
        "label": "bool",
        "numberOfBytes": "1"
      },
      "t_mapping(t_address,t_bool)": {
        "encoding": "mapping",
        "key": "t_address",
        "label": "mapping(address => bool)",
        "numberOfBytes": "32",
        "value": "t_bool"
      },
      "t_mapping(t_address,t_mapping(t_address,t_bool))": {
        "encoding": "mapping",
        "key": "t_address",
        "label": "mapping(address => mapping(address => bool))",
        "numberOfBytes": "32",
        "value": "t_mapping(t_address,t_bool)"
      },
      "t_mapping(t_address,t_uint256)": {
        "encoding": "mapping",
        "key": "t_address",
        "label": "mapping(address => uint256)",
        "numberOfBytes": "32",
        "value": "t_uint256"
      },
      "t_mapping(t_uint256,t_address)": {
        "encoding": "mapping",
        "key": "t_uint256",
        "label": "mapping(uint256 => address)",
        "numberOfBytes": "32",
        "value": "t_address"
      },
      "t_mapping(t_uint256,t_uint256)": {
        "encoding": "mapping",
        "key": "t_uint256",
        "label": "mapping(uint256 => uint256)",
        "numberOfBytes": "32",
        "value": "t_uint256"
      },
      "t_string_storage": {
        "encoding": "bytes",
        "label": "string",
        "numberOfBytes": "32"
      },
      "t_uint256": {
        "encoding": "inplace",
        "label": "uint256",
        "numberOfBytes": "32"
      }
    }
  }
}