{
  "address": "0x0De2BFf82E4000b98caFBfdF342b7836B0Fc103E",
  "abi": [
    {
      "inputs": [],
      "stateMutability": "nonpayable",
      "type": "constructor"
    },
    {
      "anonymous": false,
      "inputs": [
        {
          "indexed": true,
          "internalType": "address",
          "name": "owner",
          "type": "address"
        },
        {
          "indexed": true,
          "internalType": "address",
          "name": "approved",
          "type": "address"
        },
        {
          "indexed": true,
          "internalType": "uint256",
          "name": "tokenId",
          "type": "uint256"
        }
      ],
      "name": "Approval",
      "type": "event"
    },
    {
      "anonymous": false,
      "inputs": [
        {
          "indexed": true,
          "internalType": "address",
          "name": "owner",
          "type": "address"
        },
        {
          "indexed": true,
          "internalType": "address",
          "name": "operator",
          "type": "address"
        },
        {
          "indexed": false,
          "internalType": "bool",
          "name": "approved",
          "type": "bool"
        }
      ],
      "name": "ApprovalForAll",
      "type": "event"
    },
    {
      "anonymous": false,
      "inputs": [
        {
          "indexed": true,
          "internalType": "address",
          "name": "previousOwner",
          "type": "address"
        },
        {
          "indexed": true,
          "internalType": "address",
          "name": "newOwner",
          "type": "address"
        }
      ],
      "name": "OwnershipTransferred",
      "type": "event"
    },
    {
      "anonymous": false,
      "inputs": [
        {
          "indexed": true,
          "internalType": "address",
          "name": "from",
          "type": "address"
        },
        {
          "indexed": true,
          "internalType": "address",
          "name": "to",
          "type": "address"
        },
        {
          "indexed": true,
          "internalType": "uint256",
          "name": "tokenId",
          "type": "uint256"
        }
      ],
      "name": "Transfer",
      "type": "event"
    },
    {
      "inputs": [
        {
          "internalType": "uint256",
          "name": "tokenId",
          "type": "uint256"
        }
      ],
      "name": "ResetTimer",
      "outputs": [],
      "stateMutability": "nonpayable",
      "type": "function"
    },
    {
      "inputs": [
        {
          "internalType": "address",
          "name": "to",
          "type": "address"
        },
        {
          "internalType": "uint256",
          "name": "tokenId",
          "type": "uint256"
        }
      ],
      "name": "approve",
      "outputs": [],
      "stateMutability": "nonpayable",
      "type": "function"
    },
    {
      "inputs": [
        {
          "internalType": "address",
          "name": "owner",
          "type": "address"
        }
      ],
      "name": "balanceOf",
      "outputs": [
        {
          "internalType": "uint256",
          "name": "",
          "type": "uint256"
        }
      ],
      "stateMutability": "view",
      "type": "function"
    },
    {
      "inputs": [
        {
          "internalType": "string",
          "name": "_URI",
          "type": "string"
        }
      ],
      "name": "create",
      "outputs": [],
      "stateMutability": "nonpayable",
      "type": "function"
    },
    {
      "inputs": [
        {
          "internalType": "uint256",
          "name": "tokenId",
          "type": "uint256"
        }
      ],
      "name": "getApproved",
      "outputs": [
        {
          "internalType": "address",
          "name": "",
          "type": "address"
        }
      ],
      "stateMutability": "view",
      "type": "function"
    },
    {
      "inputs": [
        {
          "internalType": "uint256",
          "name": "tokenId",
          "type": "uint256"
        }
      ],
      "name": "hatchEgg",
      "outputs": [],
      "stateMutability": "payable",
      "type": "function"
    },
    {
      "inputs": [],
      "name": "hatchTime",
      "outputs": [
        {
          "internalType": "uint256",
          "name": "",
          "type": "uint256"
        }
      ],
      "stateMutability": "view",
      "type": "function"
    },
    {
      "inputs": [
        {
          "internalType": "address",
          "name": "owner",
          "type": "address"
        },
        {
          "internalType": "address",
          "name": "operator",
          "type": "address"
        }
      ],
      "name": "isApprovedForAll",
      "outputs": [
        {
          "internalType": "bool",
          "name": "",
          "type": "bool"
        }
      ],
      "stateMutability": "view",
      "type": "function"
    },
    {
      "inputs": [],
      "name": "name",
      "outputs": [
        {
          "internalType": "string",
          "name": "",
          "type": "string"
        }
      ],
      "stateMutability": "view",
      "type": "function"
    },
    {
      "inputs": [],
      "name": "owner",
      "outputs": [
        {
          "internalType": "address",
          "name": "",
          "type": "address"
        }
      ],
      "stateMutability": "view",
      "type": "function"
    },
    {
      "inputs": [
        {
          "internalType": "uint256",
          "name": "tokenId",
          "type": "uint256"
        }
      ],
      "name": "ownerOf",
      "outputs": [
        {
          "internalType": "address",
          "name": "",
          "type": "address"
        }
      ],
      "stateMutability": "view",
      "type": "function"
    },
    {
      "inputs": [],
      "name": "renounceOwnership",
      "outputs": [],
      "stateMutability": "nonpayable",
      "type": "function"
    },
    {
      "inputs": [
        {
          "internalType": "address",
          "name": "from",
          "type": "address"
        },
        {
          "internalType": "address",
          "name": "to",
          "type": "address"
        },
        {
          "internalType": "uint256",
          "name": "tokenId",
          "type": "uint256"
        }
      ],
      "name": "safeTransferFrom",
      "outputs": [],
      "stateMutability": "nonpayable",
      "type": "function"
    },
    {
      "inputs": [
        {
          "internalType": "address",
          "name": "from",
          "type": "address"
        },
        {
          "internalType": "address",
          "name": "to",
          "type": "address"
        },
        {
          "internalType": "uint256",
          "name": "tokenId",
          "type": "uint256"
        },
        {
          "internalType": "bytes",
          "name": "_data",
          "type": "bytes"
        }
      ],
      "name": "safeTransferFrom",
      "outputs": [],
      "stateMutability": "nonpayable",
      "type": "function"
    },
    {
      "inputs": [
        {
          "internalType": "address",
          "name": "operator",
          "type": "address"
        },
        {
          "internalType": "bool",
          "name": "approved",
          "type": "bool"
        }
      ],
      "name": "setApprovalForAll",
      "outputs": [],
      "stateMutability": "nonpayable",
      "type": "function"
    },
    {
      "inputs": [
        {
          "internalType": "bytes4",
          "name": "interfaceId",
          "type": "bytes4"
        }
      ],
      "name": "supportsInterface",
      "outputs": [
        {
          "internalType": "bool",
          "name": "",
          "type": "bool"
        }
      ],
      "stateMutability": "view",
      "type": "function"
    },
    {
      "inputs": [],
      "name": "symbol",
      "outputs": [
        {
          "internalType": "string",
          "name": "",
          "type": "string"
        }
      ],
      "stateMutability": "view",
      "type": "function"
    },
    {
      "inputs": [],
      "name": "tokenCounter",
      "outputs": [
        {
          "internalType": "uint256",
          "name": "",
          "type": "uint256"
        }
      ],
      "stateMutability": "view",
      "type": "function"
    },
    {
      "inputs": [
        {
          "internalType": "uint256",
          "name": "",
          "type": "uint256"
        }
      ],
      "name": "tokenIdToHatchTimer",
      "outputs": [
        {
          "internalType": "uint256",
          "name": "",
          "type": "uint256"
        }
      ],
      "stateMutability": "view",
      "type": "function"
    },
    {
      "inputs": [
        {
          "internalType": "uint256",
          "name": "",
          "type": "uint256"
        }
      ],
      "name": "tokenIdToImageURI",
      "outputs": [
        {
          "internalType": "string",
          "name": "",
          "type": "string"
        }
      ],
      "stateMutability": "view",
      "type": "function"
    },
    {
      "inputs": [
        {
          "internalType": "uint256",
          "name": "tokenId",
          "type": "uint256"
        }
      ],
      "name": "tokenURI",
      "outputs": [
        {
          "internalType": "string",
          "name": "",
          "type": "string"
        }
      ],
      "stateMutability": "view",
      "type": "function"
    },
    {
      "inputs": [
        {
          "internalType": "address",
          "name": "from",
          "type": "address"
        },
        {
          "internalType": "address",
          "name": "to",
          "type": "address"
        },
        {
          "internalType": "uint256",
          "name": "tokenId",
          "type": "uint256"
        }
      ],
      "name": "transferFrom",
      "outputs": [],
      "stateMutability": "nonpayable",
      "type": "function"
    },
    {
      "inputs": [
        {
          "internalType": "address",
          "name": "newOwner",
          "type": "address"
        }
      ],
      "name": "transferOwnership",
      "outputs": [],
      "stateMutability": "nonpayable",
      "type": "function"
    },
    {
      "inputs": [],
      "name": "withdraw",
      "outputs": [],
      "stateMutability": "nonpayable",
      "type": "function"
    }
  ],
  "transactionHash": "0x8fd85846fc250fff80ab383564cf8148ee090f4ed5bdb828dbcbe9b00c843533",
  "args": [],
  "solcInputHash": "b1dffddcb176c6b7efaa892e8dca8bc7",
  "bytecode": "0x60806040526301da9c006007553480156200001957600080fd5b506040518060400160405280600f81526020017f4b727970746f204567672047616e6700000000000000000000000000000000008152506040518060400160405280600381526020017f4b4547000000000000000000000000000000000000000000000000000000000081525081600090805190602001906200009e929190620001b6565b508060019080519060200190620000b7929190620001b6565b505050620000da620000ce620000e860201b60201c565b620000f060201b60201c565b6000600881905550620002cb565b600033905090565b6000600660009054906101000a900473ffffffffffffffffffffffffffffffffffffffff16905081600660006101000a81548173ffffffffffffffffffffffffffffffffffffffff021916908373ffffffffffffffffffffffffffffffffffffffff1602179055508173ffffffffffffffffffffffffffffffffffffffff168173ffffffffffffffffffffffffffffffffffffffff167f8be0079c531659141344cd1fd0a4f28419497f9722a3daafe3b4186f6b6457e060405160405180910390a35050565b828054620001c49062000266565b90600052602060002090601f016020900481019282620001e8576000855562000234565b82601f106200020357805160ff191683800117855562000234565b8280016001018555821562000234579182015b828111156200023357825182559160200191906001019062000216565b5b50905062000243919062000247565b5090565b5b808211156200026257600081600090555060010162000248565b5090565b600060028204905060018216806200027f57607f821691505b602082108114156200029657620002956200029c565b5b50919050565b7f4e487b7100000000000000000000000000000000000000000000000000000000600052602260045260246000fd5b61322980620002db6000396000f3fe60806040526004361061014b5760003560e01c80638da5cb5b116100b6578063c15f53421161006f578063c15f53421461047f578063c71d8bad146104a8578063c87b56dd146104d3578063d082e38114610510578063e985e9c51461053b578063f2fde38b146105785761014b565b80638da5cb5b1461037157806395d89b411461039c578063a22cb465146103c7578063b62b7939146103f0578063b6a46b3b1461042d578063b88d4fde146104565761014b565b80633ccfd60b116101085780633ccfd60b1461026357806342842e0e1461027a5780636352211e146102a357806370a08231146102e0578063715018a61461031d5780638631f9dd146103345761014b565b806301ffc9a71461015057806306fdde031461018d578063081812fc146101b8578063095ea7b3146101f55780632385554c1461021e57806323b872dd1461023a575b600080fd5b34801561015c57600080fd5b5061017760048036038101906101729190612121565b6105a1565b6040516101849190612b4c565b60405180910390f35b34801561019957600080fd5b506101a2610683565b6040516101af9190612b67565b60405180910390f35b3480156101c457600080fd5b506101df60048036038101906101da91906121b4565b610715565b6040516101ec9190612ae5565b60405180910390f35b34801561020157600080fd5b5061021c600480360381019061021791906120e5565b61079a565b005b610238600480360381019061023391906121b4565b6108b2565b005b34801561024657600080fd5b50610261600480360381019061025c9190611fdf565b6108b5565b005b34801561026f57600080fd5b50610278610915565b005b34801561028657600080fd5b506102a1600480360381019061029c9190611fdf565b6109e7565b005b3480156102af57600080fd5b506102ca60048036038101906102c591906121b4565b610a07565b6040516102d79190612ae5565b60405180910390f35b3480156102ec57600080fd5b5061030760048036038101906103029190611f7a565b610ab9565b6040516103149190612d89565b60405180910390f35b34801561032957600080fd5b50610332610b71565b005b34801561034057600080fd5b5061035b600480360381019061035691906121b4565b610bf9565b6040516103689190612d89565b60405180910390f35b34801561037d57600080fd5b50610386610c11565b6040516103939190612ae5565b60405180910390f35b3480156103a857600080fd5b506103b1610c3b565b6040516103be9190612b67565b60405180910390f35b3480156103d357600080fd5b506103ee60048036038101906103e991906120a9565b610ccd565b005b3480156103fc57600080fd5b50610417600480360381019061041291906121b4565b610e4e565b6040516104249190612b67565b60405180910390f35b34801561043957600080fd5b50610454600480360381019061044f9190612173565b610eee565b005b34801561046257600080fd5b5061047d6004803603810190610478919061202e565b610f63565b005b34801561048b57600080fd5b506104a660048036038101906104a191906121b4565b610fc5565b005b3480156104b457600080fd5b506104bd610fc8565b6040516104ca9190612d89565b60405180910390f35b3480156104df57600080fd5b506104fa60048036038101906104f591906121b4565b610fce565b6040516105079190612b67565b60405180910390f35b34801561051c57600080fd5b50610525611078565b6040516105329190612d89565b60405180910390f35b34801561054757600080fd5b50610562600480360381019061055d9190611fa3565b61107e565b60405161056f9190612b4c565b60405180910390f35b34801561058457600080fd5b5061059f600480360381019061059a9190611f7a565b611112565b005b60007f80ac58cd000000000000000000000000000000000000000000000000000000007bffffffffffffffffffffffffffffffffffffffffffffffffffffffff1916827bffffffffffffffffffffffffffffffffffffffffffffffffffffffff1916148061066c57507f5b5e139f000000000000000000000000000000000000000000000000000000007bffffffffffffffffffffffffffffffffffffffffffffffffffffffff1916827bffffffffffffffffffffffffffffffffffffffffffffffffffffffff1916145b8061067c575061067b8261120a565b5b9050919050565b60606000805461069290613058565b80601f01602080910402602001604051908101604052809291908181526020018280546106be90613058565b801561070b5780601f106106e05761010080835404028352916020019161070b565b820191906000526020600020905b8154815290600101906020018083116106ee57829003601f168201915b5050505050905090565b600061072082611274565b61075f576040517f08c379a000000000000000000000000000000000000000000000000000000000815260040161075690612cc9565b60405180910390fd5b6004600083815260200190815260200160002060009054906101000a900473ffffffffffffffffffffffffffffffffffffffff169050919050565b60006107a582610a07565b90508073ffffffffffffffffffffffffffffffffffffffff168373ffffffffffffffffffffffffffffffffffffffff161415610816576040517f08c379a000000000000000000000000000000000000000000000000000000000815260040161080d90612d49565b60405180910390fd5b8073ffffffffffffffffffffffffffffffffffffffff166108356112e0565b73ffffffffffffffffffffffffffffffffffffffff16148061086457506108638161085e6112e0565b61107e565b5b6108a3576040517f08c379a000000000000000000000000000000000000000000000000000000000815260040161089a90612c49565b60405180910390fd5b6108ad83836112e8565b505050565b50565b6108c66108c06112e0565b826113a1565b610905576040517f08c379a00000000000000000000000000000000000000000000000000000000081526004016108fc90612d69565b60405180910390fd5b61091083838361147f565b505050565b61091d6112e0565b73ffffffffffffffffffffffffffffffffffffffff1661093b610c11565b73ffffffffffffffffffffffffffffffffffffffff1614610991576040517f08c379a000000000000000000000000000000000000000000000000000000000815260040161098890612ce9565b60405180910390fd5b600061099b610c11565b90508073ffffffffffffffffffffffffffffffffffffffff166108fc479081150290604051600060405180830381858888f193505050501580156109e3573d6000803e3d6000fd5b5050565b610a0283838360405180602001604052806000815250610f63565b505050565b6000806002600084815260200190815260200160002060009054906101000a900473ffffffffffffffffffffffffffffffffffffffff169050600073ffffffffffffffffffffffffffffffffffffffff168173ffffffffffffffffffffffffffffffffffffffff161415610ab0576040517f08c379a0000000000000000000000000000000000000000000000000000000008152600401610aa790612c89565b60405180910390fd5b80915050919050565b60008073ffffffffffffffffffffffffffffffffffffffff168273ffffffffffffffffffffffffffffffffffffffff161415610b2a576040517f08c379a0000000000000000000000000000000000000000000000000000000008152600401610b2190612c69565b60405180910390fd5b600360008373ffffffffffffffffffffffffffffffffffffffff1673ffffffffffffffffffffffffffffffffffffffff168152602001908152602001600020549050919050565b610b796112e0565b73ffffffffffffffffffffffffffffffffffffffff16610b97610c11565b73ffffffffffffffffffffffffffffffffffffffff1614610bed576040517f08c379a0000000000000000000000000000000000000000000000000000000008152600401610be490612ce9565b60405180910390fd5b610bf760006116db565b565b60096020528060005260406000206000915090505481565b6000600660009054906101000a900473ffffffffffffffffffffffffffffffffffffffff16905090565b606060018054610c4a90613058565b80601f0160208091040260200160405190810160405280929190818152602001828054610c7690613058565b8015610cc35780601f10610c9857610100808354040283529160200191610cc3565b820191906000526020600020905b815481529060010190602001808311610ca657829003601f168201915b5050505050905090565b610cd56112e0565b73ffffffffffffffffffffffffffffffffffffffff168273ffffffffffffffffffffffffffffffffffffffff161415610d43576040517f08c379a0000000000000000000000000000000000000000000000000000000008152600401610d3a90612c09565b60405180910390fd5b8060056000610d506112e0565b73ffffffffffffffffffffffffffffffffffffffff1673ffffffffffffffffffffffffffffffffffffffff16815260200190815260200160002060008473ffffffffffffffffffffffffffffffffffffffff1673ffffffffffffffffffffffffffffffffffffffff16815260200190815260200160002060006101000a81548160ff0219169083151502179055508173ffffffffffffffffffffffffffffffffffffffff16610dfd6112e0565b73ffffffffffffffffffffffffffffffffffffffff167f17307eab39ab6107e8899845ad3d59bd9653f200f220920489ca2b5937696c3183604051610e429190612b4c565b60405180910390a35050565b600a6020528060005260406000206000915090508054610e6d90613058565b80601f0160208091040260200160405190810160405280929190818152602001828054610e9990613058565b8015610ee65780601f10610ebb57610100808354040283529160200191610ee6565b820191906000526020600020905b815481529060010190602001808311610ec957829003601f168201915b505050505081565b60075442610efc9190612e8d565b60096000600854815260200190815260200160002081905550610f21336008546117a1565b80600a600060085481526020019081526020016000209080519060200190610f4a929190611d9e565b506001600854610f5a9190612e8d565b60088190555050565b610f74610f6e6112e0565b836113a1565b610fb3576040517f08c379a0000000000000000000000000000000000000000000000000000000008152600401610faa90612d69565b60405180910390fd5b610fbf848484846117bf565b50505050565b50565b60075481565b6060610fd982611274565b611018576040517f08c379a000000000000000000000000000000000000000000000000000000000815260040161100f90612d29565b60405180910390fd5b611052600a600084815260200190815260200160002060405160200161103e9190612a80565b60405160208183030381529060405261181b565b6040516020016110629190612ac3565b6040516020818303038152906040529050919050565b60085481565b6000600560008473ffffffffffffffffffffffffffffffffffffffff1673ffffffffffffffffffffffffffffffffffffffff16815260200190815260200160002060008373ffffffffffffffffffffffffffffffffffffffff1673ffffffffffffffffffffffffffffffffffffffff16815260200190815260200160002060009054906101000a900460ff16905092915050565b61111a6112e0565b73ffffffffffffffffffffffffffffffffffffffff16611138610c11565b73ffffffffffffffffffffffffffffffffffffffff161461118e576040517f08c379a000000000000000000000000000000000000000000000000000000000815260040161118590612ce9565b60405180910390fd5b600073ffffffffffffffffffffffffffffffffffffffff168173ffffffffffffffffffffffffffffffffffffffff1614156111fe576040517f08c379a00000000000000000000000000000000000000000000000000000000081526004016111f590612ba9565b60405180910390fd5b611207816116db565b50565b60007f01ffc9a7000000000000000000000000000000000000000000000000000000007bffffffffffffffffffffffffffffffffffffffffffffffffffffffff1916827bffffffffffffffffffffffffffffffffffffffffffffffffffffffff1916149050919050565b60008073ffffffffffffffffffffffffffffffffffffffff166002600084815260200190815260200160002060009054906101000a900473ffffffffffffffffffffffffffffffffffffffff1673ffffffffffffffffffffffffffffffffffffffff1614159050919050565b600033905090565b816004600083815260200190815260200160002060006101000a81548173ffffffffffffffffffffffffffffffffffffffff021916908373ffffffffffffffffffffffffffffffffffffffff160217905550808273ffffffffffffffffffffffffffffffffffffffff1661135b83610a07565b73ffffffffffffffffffffffffffffffffffffffff167f8c5be1e5ebec7d5bd14f71427d1e84f3dd0314c0f7b2291e5b200ac8c7c3b92560405160405180910390a45050565b60006113ac82611274565b6113eb576040517f08c379a00000000000000000000000000000000000000000000000000000000081526004016113e290612c29565b60405180910390fd5b60006113f683610a07565b90508073ffffffffffffffffffffffffffffffffffffffff168473ffffffffffffffffffffffffffffffffffffffff16148061146557508373ffffffffffffffffffffffffffffffffffffffff1661144d84610715565b73ffffffffffffffffffffffffffffffffffffffff16145b806114765750611475818561107e565b5b91505092915050565b8273ffffffffffffffffffffffffffffffffffffffff1661149f82610a07565b73ffffffffffffffffffffffffffffffffffffffff16146114f5576040517f08c379a00000000000000000000000000000000000000000000000000000000081526004016114ec90612d09565b60405180910390fd5b600073ffffffffffffffffffffffffffffffffffffffff168273ffffffffffffffffffffffffffffffffffffffff161415611565576040517f08c379a000000000000000000000000000000000000000000000000000000000815260040161155c90612be9565b60405180910390fd5b6115708383836119c6565b61157b6000826112e8565b6001600360008573ffffffffffffffffffffffffffffffffffffffff1673ffffffffffffffffffffffffffffffffffffffff16815260200190815260200160002060008282546115cb9190612f6e565b925050819055506001600360008473ffffffffffffffffffffffffffffffffffffffff1673ffffffffffffffffffffffffffffffffffffffff16815260200190815260200160002060008282546116229190612e8d565b92505081905550816002600083815260200190815260200160002060006101000a81548173ffffffffffffffffffffffffffffffffffffffff021916908373ffffffffffffffffffffffffffffffffffffffff160217905550808273ffffffffffffffffffffffffffffffffffffffff168473ffffffffffffffffffffffffffffffffffffffff167fddf252ad1be2c89b69c2b068fc378daa952ba7f163c4a11628f55a4df523b3ef60405160405180910390a4505050565b6000600660009054906101000a900473ffffffffffffffffffffffffffffffffffffffff16905081600660006101000a81548173ffffffffffffffffffffffffffffffffffffffff021916908373ffffffffffffffffffffffffffffffffffffffff1602179055508173ffffffffffffffffffffffffffffffffffffffff168173ffffffffffffffffffffffffffffffffffffffff167f8be0079c531659141344cd1fd0a4f28419497f9722a3daafe3b4186f6b6457e060405160405180910390a35050565b6117bb8282604051806020016040528060008152506119cb565b5050565b6117ca84848461147f565b6117d684848484611a26565b611815576040517f08c379a000000000000000000000000000000000000000000000000000000000815260040161180c90612b89565b60405180910390fd5b50505050565b606060008251141561183e576040518060200160405280600081525090506119c1565b60006040518060600160405280604081526020016131b4604091399050600060036002855161186d9190612e8d565b6118779190612ee3565b60046118839190612f14565b905060006020826118949190612e8d565b67ffffffffffffffff8111156118d3577f4e487b7100000000000000000000000000000000000000000000000000000000600052604160045260246000fd5b6040519080825280601f01601f1916602001820160405280156119055781602001600182028036833780820191505090505b509050818152600183018586518101602084015b81831015611980576003830192508251603f8160121c1685015160f81b8252600182019150603f81600c1c1685015160f81b8252600182019150603f8160061c1685015160f81b8252600182019150603f811685015160f81b825260018201915050611919565b60038951066001811461199a57600281146119aa576119b5565b613d3d60f01b60028303526119b5565b603d60f81b60018303525b50505050508093505050505b919050565b505050565b6119d58383611bbd565b6119e26000848484611a26565b611a21576040517f08c379a0000000000000000000000000000000000000000000000000000000008152600401611a1890612b89565b60405180910390fd5b505050565b6000611a478473ffffffffffffffffffffffffffffffffffffffff16611d8b565b15611bb0578373ffffffffffffffffffffffffffffffffffffffff1663150b7a02611a706112e0565b8786866040518563ffffffff1660e01b8152600401611a929493929190612b00565b602060405180830381600087803b158015611aac57600080fd5b505af1925050508015611add57506040513d601f19601f82011682018060405250810190611ada919061214a565b60015b611b60573d8060008114611b0d576040519150601f19603f3d011682016040523d82523d6000602084013e611b12565b606091505b50600081511415611b58576040517f08c379a0000000000000000000000000000000000000000000000000000000008152600401611b4f90612b89565b60405180910390fd5b805181602001fd5b63150b7a0260e01b7bffffffffffffffffffffffffffffffffffffffffffffffffffffffff1916817bffffffffffffffffffffffffffffffffffffffffffffffffffffffff191614915050611bb5565b600190505b949350505050565b600073ffffffffffffffffffffffffffffffffffffffff168273ffffffffffffffffffffffffffffffffffffffff161415611c2d576040517f08c379a0000000000000000000000000000000000000000000000000000000008152600401611c2490612ca9565b60405180910390fd5b611c3681611274565b15611c76576040517f08c379a0000000000000000000000000000000000000000000000000000000008152600401611c6d90612bc9565b60405180910390fd5b611c82600083836119c6565b6001600360008473ffffffffffffffffffffffffffffffffffffffff1673ffffffffffffffffffffffffffffffffffffffff1681526020019081526020016000206000828254611cd29190612e8d565b92505081905550816002600083815260200190815260200160002060006101000a81548173ffffffffffffffffffffffffffffffffffffffff021916908373ffffffffffffffffffffffffffffffffffffffff160217905550808273ffffffffffffffffffffffffffffffffffffffff16600073ffffffffffffffffffffffffffffffffffffffff167fddf252ad1be2c89b69c2b068fc378daa952ba7f163c4a11628f55a4df523b3ef60405160405180910390a45050565b600080823b905060008111915050919050565b828054611daa90613058565b90600052602060002090601f016020900481019282611dcc5760008555611e13565b82601f10611de557805160ff1916838001178555611e13565b82800160010185558215611e13579182015b82811115611e12578251825591602001919060010190611df7565b5b509050611e209190611e24565b5090565b5b80821115611e3d576000816000905550600101611e25565b5090565b6000611e54611e4f84612dd5565b612da4565b905082815260208101848484011115611e6c57600080fd5b611e77848285613016565b509392505050565b6000611e92611e8d84612e05565b612da4565b905082815260208101848484011115611eaa57600080fd5b611eb5848285613016565b509392505050565b600081359050611ecc81613157565b92915050565b600081359050611ee18161316e565b92915050565b600081359050611ef681613185565b92915050565b600081519050611f0b81613185565b92915050565b600082601f830112611f2257600080fd5b8135611f32848260208601611e41565b91505092915050565b600082601f830112611f4c57600080fd5b8135611f5c848260208601611e7f565b91505092915050565b600081359050611f748161319c565b92915050565b600060208284031215611f8c57600080fd5b6000611f9a84828501611ebd565b91505092915050565b60008060408385031215611fb657600080fd5b6000611fc485828601611ebd565b9250506020611fd585828601611ebd565b9150509250929050565b600080600060608486031215611ff457600080fd5b600061200286828701611ebd565b935050602061201386828701611ebd565b925050604061202486828701611f65565b9150509250925092565b6000806000806080858703121561204457600080fd5b600061205287828801611ebd565b945050602061206387828801611ebd565b935050604061207487828801611f65565b925050606085013567ffffffffffffffff81111561209157600080fd5b61209d87828801611f11565b91505092959194509250565b600080604083850312156120bc57600080fd5b60006120ca85828601611ebd565b92505060206120db85828601611ed2565b9150509250929050565b600080604083850312156120f857600080fd5b600061210685828601611ebd565b925050602061211785828601611f65565b9150509250929050565b60006020828403121561213357600080fd5b600061214184828501611ee7565b91505092915050565b60006020828403121561215c57600080fd5b600061216a84828501611efc565b91505092915050565b60006020828403121561218557600080fd5b600082013567ffffffffffffffff81111561219f57600080fd5b6121ab84828501611f3b565b91505092915050565b6000602082840312156121c657600080fd5b60006121d484828501611f65565b91505092915050565b6121e681612fa2565b82525050565b6121f581612fb4565b82525050565b600061220682612e4a565b6122108185612e60565b9350612220818560208601613025565b61222981613146565b840191505092915050565b600061223f82612e55565b6122498185612e71565b9350612259818560208601613025565b61226281613146565b840191505092915050565b600061227882612e55565b6122828185612e82565b9350612292818560208601613025565b80840191505092915050565b600081546122ab81613058565b6122b58186612e82565b945060018216600081146122d057600181146122e157612314565b60ff19831686528186019350612314565b6122ea85612e35565b60005b8381101561230c578154818901526001820191506020810190506122ed565b838801955050505b50505092915050565b600061232a600983612e82565b91507f7b226e616d65223a2200000000000000000000000000000000000000000000006000830152600982019050919050565b600061236a603283612e71565b91507f4552433732313a207472616e7366657220746f206e6f6e20455243373231526560008301527f63656976657220696d706c656d656e74657200000000000000000000000000006020830152604082019050919050565b60006123d0602683612e71565b91507f4f776e61626c653a206e6577206f776e657220697320746865207a65726f206160008301527f64647265737300000000000000000000000000000000000000000000000000006020830152604082019050919050565b6000612436601c83612e71565b91507f4552433732313a20746f6b656e20616c7265616479206d696e746564000000006000830152602082019050919050565b6000612476602483612e71565b91507f4552433732313a207472616e7366657220746f20746865207a65726f2061646460008301527f72657373000000000000000000000000000000000000000000000000000000006020830152604082019050919050565b60006124dc601983612e71565b91507f4552433732313a20617070726f766520746f2063616c6c6572000000000000006000830152602082019050919050565b600061251c602c83612e71565b91507f4552433732313a206f70657261746f7220717565727920666f72206e6f6e657860008301527f697374656e7420746f6b656e00000000000000000000000000000000000000006020830152604082019050919050565b6000612582600f83612e82565b91507f4b727970746f204567672047616e6700000000000000000000000000000000006000830152600f82019050919050565b60006125c2603883612e71565b91507f4552433732313a20617070726f76652063616c6c6572206973206e6f74206f7760008301527f6e6572206e6f7220617070726f76656420666f7220616c6c00000000000000006020830152604082019050919050565b6000612628602a83612e71565b91507f4552433732313a2062616c616e636520717565727920666f7220746865207a6560008301527f726f2061646472657373000000000000000000000000000000000000000000006020830152604082019050919050565b600061268e602983612e71565b91507f4552433732313a206f776e657220717565727920666f72206e6f6e657869737460008301527f656e7420746f6b656e00000000000000000000000000000000000000000000006020830152604082019050919050565b60006126f4604783612e82565b91507f222c20226465736372697074696f6e223a22416e204e4654207468617420746860008301527f61742068617463686573222c202261747472696275746573223a22222c20226960208301527f6d616765223a22000000000000000000000000000000000000000000000000006040830152604782019050919050565b6000612780600283612e82565b91507f227d0000000000000000000000000000000000000000000000000000000000006000830152600282019050919050565b60006127c0602083612e71565b91507f4552433732313a206d696e7420746f20746865207a65726f20616464726573736000830152602082019050919050565b6000612800602c83612e71565b91507f4552433732313a20617070726f76656420717565727920666f72206e6f6e657860008301527f697374656e7420746f6b656e00000000000000000000000000000000000000006020830152604082019050919050565b6000612866602083612e71565b91507f4f776e61626c653a2063616c6c6572206973206e6f7420746865206f776e65726000830152602082019050919050565b60006128a6602983612e71565b91507f4552433732313a207472616e73666572206f6620746f6b656e2074686174206960008301527f73206e6f74206f776e00000000000000000000000000000000000000000000006020830152604082019050919050565b600061290c602f83612e71565b91507f4552433732314d657461646174613a2055524920717565727920666f72206e6f60008301527f6e6578697374656e7420746f6b656e00000000000000000000000000000000006020830152604082019050919050565b6000612972602183612e71565b91507f4552433732313a20617070726f76616c20746f2063757272656e74206f776e6560008301527f72000000000000000000000000000000000000000000000000000000000000006020830152604082019050919050565b60006129d8601d83612e82565b91507f646174613a6170706c69636174696f6e2f6a736f6e3b6261736536342c0000006000830152601d82019050919050565b6000612a18603183612e71565b91507f4552433732313a207472616e736665722063616c6c6572206973206e6f74206f60008301527f776e6572206e6f7220617070726f7665640000000000000000000000000000006020830152604082019050919050565b612a7a8161300c565b82525050565b6000612a8b8261231d565b9150612a9682612575565b9150612aa1826126e7565b9150612aad828461229e565b9150612ab882612773565b915081905092915050565b6000612ace826129cb565b9150612ada828461226d565b915081905092915050565b6000602082019050612afa60008301846121dd565b92915050565b6000608082019050612b1560008301876121dd565b612b2260208301866121dd565b612b2f6040830185612a71565b8181036060830152612b4181846121fb565b905095945050505050565b6000602082019050612b6160008301846121ec565b92915050565b60006020820190508181036000830152612b818184612234565b905092915050565b60006020820190508181036000830152612ba28161235d565b9050919050565b60006020820190508181036000830152612bc2816123c3565b9050919050565b60006020820190508181036000830152612be281612429565b9050919050565b60006020820190508181036000830152612c0281612469565b9050919050565b60006020820190508181036000830152612c22816124cf565b9050919050565b60006020820190508181036000830152612c428161250f565b9050919050565b60006020820190508181036000830152612c62816125b5565b9050919050565b60006020820190508181036000830152612c828161261b565b9050919050565b60006020820190508181036000830152612ca281612681565b9050919050565b60006020820190508181036000830152612cc2816127b3565b9050919050565b60006020820190508181036000830152612ce2816127f3565b9050919050565b60006020820190508181036000830152612d0281612859565b9050919050565b60006020820190508181036000830152612d2281612899565b9050919050565b60006020820190508181036000830152612d42816128ff565b9050919050565b60006020820190508181036000830152612d6281612965565b9050919050565b60006020820190508181036000830152612d8281612a0b565b9050919050565b6000602082019050612d9e6000830184612a71565b92915050565b6000604051905081810181811067ffffffffffffffff82111715612dcb57612dca613117565b5b8060405250919050565b600067ffffffffffffffff821115612df057612def613117565b5b601f19601f8301169050602081019050919050565b600067ffffffffffffffff821115612e2057612e1f613117565b5b601f19601f8301169050602081019050919050565b60008190508160005260206000209050919050565b600081519050919050565b600081519050919050565b600082825260208201905092915050565b600082825260208201905092915050565b600081905092915050565b6000612e988261300c565b9150612ea38361300c565b9250827fffffffffffffffffffffffffffffffffffffffffffffffffffffffffffffffff03821115612ed857612ed761308a565b5b828201905092915050565b6000612eee8261300c565b9150612ef98361300c565b925082612f0957612f086130b9565b5b828204905092915050565b6000612f1f8261300c565b9150612f2a8361300c565b9250817fffffffffffffffffffffffffffffffffffffffffffffffffffffffffffffffff0483118215151615612f6357612f6261308a565b5b828202905092915050565b6000612f798261300c565b9150612f848361300c565b925082821015612f9757612f9661308a565b5b828203905092915050565b6000612fad82612fec565b9050919050565b60008115159050919050565b60007fffffffff0000000000000000000000000000000000000000000000000000000082169050919050565b600073ffffffffffffffffffffffffffffffffffffffff82169050919050565b6000819050919050565b82818337600083830152505050565b60005b83811015613043578082015181840152602081019050613028565b83811115613052576000848401525b50505050565b6000600282049050600182168061307057607f821691505b60208210811415613084576130836130e8565b5b50919050565b7f4e487b7100000000000000000000000000000000000000000000000000000000600052601160045260246000fd5b7f4e487b7100000000000000000000000000000000000000000000000000000000600052601260045260246000fd5b7f4e487b7100000000000000000000000000000000000000000000000000000000600052602260045260246000fd5b7f4e487b7100000000000000000000000000000000000000000000000000000000600052604160045260246000fd5b6000601f19601f8301169050919050565b61316081612fa2565b811461316b57600080fd5b50565b61317781612fb4565b811461318257600080fd5b50565b61318e81612fc0565b811461319957600080fd5b50565b6131a58161300c565b81146131b057600080fd5b5056fe4142434445464748494a4b4c4d4e4f505152535455565758595a6162636465666768696a6b6c6d6e6f707172737475767778797a303132333435363738392b2fa2646970667358221220f1bf0c11e54395eb90cf30734c1d16de4c537629802ab6338821c0b479324a2f64736f6c63430008000033",
  "devdoc": {
    "kind": "dev",
    "methods": {
      "approve(address,uint256)": {
        "details": "See {IERC721-approve}."
      },
      "balanceOf(address)": {
        "details": "See {IERC721-balanceOf}."
      },
      "getApproved(uint256)": {
        "details": "See {IERC721-getApproved}."
      },
      "isApprovedForAll(address,address)": {
        "details": "See {IERC721-isApprovedForAll}."
      },
      "name()": {
        "details": "See {IERC721Metadata-name}."
      },
      "owner()": {
        "details": "Returns the address of the current owner."
      },
      "ownerOf(uint256)": {
        "details": "See {IERC721-ownerOf}."
      },
      "renounceOwnership()": {
        "details": "Leaves the contract without owner. It will not be possible to call `onlyOwner` functions anymore. Can only be called by the current owner. NOTE: Renouncing ownership will leave the contract without an owner, thereby removing any functionality that is only available to the owner."
      },
      "safeTransferFrom(address,address,uint256)": {
        "details": "See {IERC721-safeTransferFrom}."
      },
      "safeTransferFrom(address,address,uint256,bytes)": {
        "details": "See {IERC721-safeTransferFrom}."
      },
      "setApprovalForAll(address,bool)": {
        "details": "See {IERC721-setApprovalForAll}."
      },
      "supportsInterface(bytes4)": {
        "details": "See {IERC165-supportsInterface}."
      },
      "symbol()": {
        "details": "See {IERC721Metadata-symbol}."
      },
      "tokenURI(uint256)": {
        "details": "See {IERC721Metadata-tokenURI}."
      },
      "transferFrom(address,address,uint256)": {
        "details": "See {IERC721-transferFrom}."
      },
      "transferOwnership(address)": {
        "details": "Transfers ownership of the contract to a new account (`newOwner`). Can only be called by the current owner."
      }
    },
    "version": 1
  },
  "userdoc": {
    "kind": "user",
    "methods": {},
    "version": 1
  },
  "storageLayout": {
    "storage": [
      {
        "astId": 129,
        "contract": "contracts/KryptoEggGang2.sol:KryptoEggGang2",
        "label": "_name",
        "offset": 0,
        "slot": "0",
        "type": "t_string_storage"
      },
      {
        "astId": 131,
        "contract": "contracts/KryptoEggGang2.sol:KryptoEggGang2",
        "label": "_symbol",
        "offset": 0,
        "slot": "1",
        "type": "t_string_storage"
      },
      {
        "astId": 135,
        "contract": "contracts/KryptoEggGang2.sol:KryptoEggGang2",
        "label": "_owners",
        "offset": 0,
        "slot": "2",
        "type": "t_mapping(t_uint256,t_address)"
      },
      {
        "astId": 139,
        "contract": "contracts/KryptoEggGang2.sol:KryptoEggGang2",
        "label": "_balances",
        "offset": 0,
        "slot": "3",
        "type": "t_mapping(t_address,t_uint256)"
      },
      {
        "astId": 143,
        "contract": "contracts/KryptoEggGang2.sol:KryptoEggGang2",
        "label": "_tokenApprovals",
        "offset": 0,
        "slot": "4",
        "type": "t_mapping(t_uint256,t_address)"
      },
      {
        "astId": 149,
        "contract": "contracts/KryptoEggGang2.sol:KryptoEggGang2",
        "label": "_operatorApprovals",
        "offset": 0,
        "slot": "5",
        "type": "t_mapping(t_address,t_mapping(t_address,t_bool))"
      },
      {
        "astId": 7,
        "contract": "contracts/KryptoEggGang2.sol:KryptoEggGang2",
        "label": "_owner",
        "offset": 0,
        "slot": "6",
        "type": "t_address"
      },
      {
        "astId": 2016,
        "contract": "contracts/KryptoEggGang2.sol:KryptoEggGang2",
        "label": "hatchTime",
        "offset": 0,
        "slot": "7",
        "type": "t_uint256"
      },
      {
        "astId": 2018,
        "contract": "contracts/KryptoEggGang2.sol:KryptoEggGang2",
        "label": "tokenCounter",
        "offset": 0,
        "slot": "8",
        "type": "t_uint256"
      },
      {
        "astId": 2022,
        "contract": "contracts/KryptoEggGang2.sol:KryptoEggGang2",
        "label": "tokenIdToHatchTimer",
        "offset": 0,
        "slot": "9",
        "type": "t_mapping(t_uint256,t_uint256)"
      },
      {
        "astId": 2026,
        "contract": "contracts/KryptoEggGang2.sol:KryptoEggGang2",
        "label": "tokenIdToImageURI",
        "offset": 0,
        "slot": "10",
        "type": "t_mapping(t_uint256,t_string_storage)"
      }
    ],
    "types": {
      "t_address": {
        "encoding": "inplace",
        "label": "address",
        "numberOfBytes": "20"
      },
      "t_bool": {
        "encoding": "inplace",
        "label": "bool",
        "numberOfBytes": "1"
      },
      "t_mapping(t_address,t_bool)": {
        "encoding": "mapping",
        "key": "t_address",
        "label": "mapping(address => bool)",
        "numberOfBytes": "32",
        "value": "t_bool"
      },
      "t_mapping(t_address,t_mapping(t_address,t_bool))": {
        "encoding": "mapping",
        "key": "t_address",
        "label": "mapping(address => mapping(address => bool))",
        "numberOfBytes": "32",
        "value": "t_mapping(t_address,t_bool)"
      },
      "t_mapping(t_address,t_uint256)": {
        "encoding": "mapping",
        "key": "t_address",
        "label": "mapping(address => uint256)",
        "numberOfBytes": "32",
        "value": "t_uint256"
      },
      "t_mapping(t_uint256,t_address)": {
        "encoding": "mapping",
        "key": "t_uint256",
        "label": "mapping(uint256 => address)",
        "numberOfBytes": "32",
        "value": "t_address"
      },
      "t_mapping(t_uint256,t_string_storage)": {
        "encoding": "mapping",
        "key": "t_uint256",
        "label": "mapping(uint256 => string)",
        "numberOfBytes": "32",
        "value": "t_string_storage"
      },
      "t_mapping(t_uint256,t_uint256)": {
        "encoding": "mapping",
        "key": "t_uint256",
        "label": "mapping(uint256 => uint256)",
        "numberOfBytes": "32",
        "value": "t_uint256"
      },
      "t_string_storage": {
        "encoding": "bytes",
        "label": "string",
        "numberOfBytes": "32"
      },
      "t_uint256": {
        "encoding": "inplace",
        "label": "uint256",
        "numberOfBytes": "32"
      }
    }
  }
}