{
    "address": "0x9810D735496067a8ACeA690Ccbf2d5b967087c97",
    "abi": [
        {
            "inputs": [],
            "stateMutability": "nonpayable",
            "type": "constructor"
        },
        {
            "anonymous": false,
            "inputs": [
                {
                    "indexed": true,
                    "internalType": "address",
                    "name": "owner",
                    "type": "address"
                },
                {
                    "indexed": true,
                    "internalType": "address",
                    "name": "approved",
                    "type": "address"
                },
                {
                    "indexed": true,
                    "internalType": "uint256",
                    "name": "tokenId",
                    "type": "uint256"
                }
            ],
            "name": "Approval",
            "type": "event"
        },
        {
            "anonymous": false,
            "inputs": [
                {
                    "indexed": true,
                    "internalType": "address",
                    "name": "owner",
                    "type": "address"
                },
                {
                    "indexed": true,
                    "internalType": "address",
                    "name": "operator",
                    "type": "address"
                },
                {
                    "indexed": false,
                    "internalType": "bool",
                    "name": "approved",
                    "type": "bool"
                }
            ],
            "name": "ApprovalForAll",
            "type": "event"
        },
        {
            "anonymous": false,
            "inputs": [
                {
                    "indexed": true,
                    "internalType": "uint256",
                    "name": "tokenId",
                    "type": "uint256"
                },
                {
                    "indexed": true,
                    "internalType": "uint256",
                    "name": "HatchedTime",
                    "type": "uint256"
                }
            ],
            "name": "HatchedEggNFT",
            "type": "event"
        },
        {
            "anonymous": false,
            "inputs": [
                {
                    "indexed": true,
                    "internalType": "uint256",
                    "name": "tokenId",
                    "type": "uint256"
                },
                {
                    "indexed": true,
                    "internalType": "uint256",
                    "name": "HatchTime",
                    "type": "uint256"
                }
            ],
            "name": "LaidEggNFT",
            "type": "event"
        },
        {
            "anonymous": false,
            "inputs": [
                {
                    "indexed": true,
                    "internalType": "address",
                    "name": "previousOwner",
                    "type": "address"
                },
                {
                    "indexed": true,
                    "internalType": "address",
                    "name": "newOwner",
                    "type": "address"
                }
            ],
            "name": "OwnershipTransferred",
            "type": "event"
        },
        {
            "anonymous": false,
            "inputs": [
                {
                    "indexed": true,
                    "internalType": "address",
                    "name": "from",
                    "type": "address"
                },
                {
                    "indexed": true,
                    "internalType": "address",
                    "name": "to",
                    "type": "address"
                },
                {
                    "indexed": true,
                    "internalType": "uint256",
                    "name": "tokenId",
                    "type": "uint256"
                }
            ],
            "name": "Transfer",
            "type": "event"
        },
        {
            "inputs": [],
            "name": "HatchTime",
            "outputs": [
                {
                    "internalType": "uint256",
                    "name": "",
                    "type": "uint256"
                }
            ],
            "stateMutability": "view",
            "type": "function"
        },
        {
            "inputs": [
                {
                    "internalType": "uint256",
                    "name": "tokenId",
                    "type": "uint256"
                }
            ],
            "name": "ResetTimer",
            "outputs": [],
            "stateMutability": "nonpayable",
            "type": "function"
        },
        {
            "inputs": [
                {
                    "internalType": "string",
                    "name": "_svgEggRaw",
                    "type": "string"
                }
            ],
            "name": "addEggSVG",
            "outputs": [],
            "stateMutability": "nonpayable",
            "type": "function"
        },
        {
            "inputs": [
                {
                    "internalType": "string",
                    "name": "_svgEggURI",
                    "type": "string"
                }
            ],
            "name": "addEggURI",
            "outputs": [],
            "stateMutability": "nonpayable",
            "type": "function"
        },
        {
            "inputs": [
                {
                    "internalType": "string",
                    "name": "_svgHatchRaw",
                    "type": "string"
                }
            ],
            "name": "addHatchSVG",
            "outputs": [],
            "stateMutability": "nonpayable",
            "type": "function"
        },
        {
            "inputs": [
                {
                    "internalType": "string",
                    "name": "_svgHatchURI",
                    "type": "string"
                }
            ],
            "name": "addHatchURI",
            "outputs": [],
            "stateMutability": "nonpayable",
            "type": "function"
        },
        {
            "inputs": [
                {
                    "internalType": "address",
                    "name": "to",
                    "type": "address"
                },
                {
                    "internalType": "uint256",
                    "name": "tokenId",
                    "type": "uint256"
                }
            ],
            "name": "approve",
            "outputs": [],
            "stateMutability": "nonpayable",
            "type": "function"
        },
        {
            "inputs": [
                {
                    "internalType": "address",
                    "name": "owner",
                    "type": "address"
                }
            ],
            "name": "balanceOf",
            "outputs": [
                {
                    "internalType": "uint256",
                    "name": "",
                    "type": "uint256"
                }
            ],
            "stateMutability": "view",
            "type": "function"
        },
        {
            "inputs": [],
            "name": "baseURI",
            "outputs": [
                {
                    "internalType": "string",
                    "name": "",
                    "type": "string"
                }
            ],
            "stateMutability": "view",
            "type": "function"
        },
        {
            "inputs": [
                {
                    "internalType": "uint256",
                    "name": "tokenId",
                    "type": "uint256"
                }
            ],
            "name": "bless",
            "outputs": [],
            "stateMutability": "nonpayable",
            "type": "function"
        },
        {
            "inputs": [],
            "name": "create",
            "outputs": [],
            "stateMutability": "nonpayable",
            "type": "function"
        },
        {
            "inputs": [],
            "name": "eggImageURI",
            "outputs": [
                {
                    "internalType": "string",
                    "name": "",
                    "type": "string"
                }
            ],
            "stateMutability": "view",
            "type": "function"
        },
        {
            "inputs": [
                {
                    "internalType": "uint256",
                    "name": "tokenId",
                    "type": "uint256"
                }
            ],
            "name": "getApproved",
            "outputs": [
                {
                    "internalType": "address",
                    "name": "",
                    "type": "address"
                }
            ],
            "stateMutability": "view",
            "type": "function"
        },
        {
            "inputs": [],
            "name": "getTokenCounter",
            "outputs": [
                {
                    "internalType": "uint256",
                    "name": "",
                    "type": "uint256"
                }
            ],
            "stateMutability": "view",
            "type": "function"
        },
        {
            "inputs": [
                {
                    "internalType": "uint256",
                    "name": "tokenId",
                    "type": "uint256"
                }
            ],
            "name": "hatchEgg",
            "outputs": [],
            "stateMutability": "payable",
            "type": "function"
        },
        {
            "inputs": [],
            "name": "hatchFee",
            "outputs": [
                {
                    "internalType": "uint256",
                    "name": "",
                    "type": "uint256"
                }
            ],
            "stateMutability": "view",
            "type": "function"
        },
        {
            "inputs": [],
            "name": "hatchTime",
            "outputs": [
                {
                    "internalType": "uint256",
                    "name": "",
                    "type": "uint256"
                }
            ],
            "stateMutability": "view",
            "type": "function"
        },
        {
            "inputs": [
                {
                    "internalType": "address",
                    "name": "owner",
                    "type": "address"
                },
                {
                    "internalType": "address",
                    "name": "operator",
                    "type": "address"
                }
            ],
            "name": "isApprovedForAll",
            "outputs": [
                {
                    "internalType": "bool",
                    "name": "",
                    "type": "bool"
                }
            ],
            "stateMutability": "view",
            "type": "function"
        },
        {
            "inputs": [],
            "name": "name",
            "outputs": [
                {
                    "internalType": "string",
                    "name": "",
                    "type": "string"
                }
            ],
            "stateMutability": "view",
            "type": "function"
        },
        {
            "inputs": [],
            "name": "owner",
            "outputs": [
                {
                    "internalType": "address",
                    "name": "",
                    "type": "address"
                }
            ],
            "stateMutability": "view",
            "type": "function"
        },
        {
            "inputs": [
                {
                    "internalType": "uint256",
                    "name": "tokenId",
                    "type": "uint256"
                }
            ],
            "name": "ownerOf",
            "outputs": [
                {
                    "internalType": "address",
                    "name": "",
                    "type": "address"
                }
            ],
            "stateMutability": "view",
            "type": "function"
        },
        {
            "inputs": [],
            "name": "renounceOwnership",
            "outputs": [],
            "stateMutability": "nonpayable",
            "type": "function"
        },
        {
            "inputs": [
                {
                    "internalType": "address",
                    "name": "from",
                    "type": "address"
                },
                {
                    "internalType": "address",
                    "name": "to",
                    "type": "address"
                },
                {
                    "internalType": "uint256",
                    "name": "tokenId",
                    "type": "uint256"
                }
            ],
            "name": "safeTransferFrom",
            "outputs": [],
            "stateMutability": "nonpayable",
            "type": "function"
        },
        {
            "inputs": [
                {
                    "internalType": "address",
                    "name": "from",
                    "type": "address"
                },
                {
                    "internalType": "address",
                    "name": "to",
                    "type": "address"
                },
                {
                    "internalType": "uint256",
                    "name": "tokenId",
                    "type": "uint256"
                },
                {
                    "internalType": "bytes",
                    "name": "_data",
                    "type": "bytes"
                }
            ],
            "name": "safeTransferFrom",
            "outputs": [],
            "stateMutability": "nonpayable",
            "type": "function"
        },
        {
            "inputs": [
                {
                    "internalType": "address",
                    "name": "operator",
                    "type": "address"
                },
                {
                    "internalType": "bool",
                    "name": "approved",
                    "type": "bool"
                }
            ],
            "name": "setApprovalForAll",
            "outputs": [],
            "stateMutability": "nonpayable",
            "type": "function"
        },
        {
            "inputs": [
                {
                    "internalType": "uint256",
                    "name": "_fee",
                    "type": "uint256"
                }
            ],
            "name": "setHatchFee",
            "outputs": [],
            "stateMutability": "nonpayable",
            "type": "function"
        },
        {
            "inputs": [
                {
                    "internalType": "bytes4",
                    "name": "interfaceId",
                    "type": "bytes4"
                }
            ],
            "name": "supportsInterface",
            "outputs": [
                {
                    "internalType": "bool",
                    "name": "",
                    "type": "bool"
                }
            ],
            "stateMutability": "view",
            "type": "function"
        },
        {
            "inputs": [
                {
                    "internalType": "string",
                    "name": "svg",
                    "type": "string"
                }
            ],
            "name": "svgToImageURI",
            "outputs": [
                {
                    "internalType": "string",
                    "name": "",
                    "type": "string"
                }
            ],
            "stateMutability": "pure",
            "type": "function"
        },
        {
            "inputs": [],
            "name": "symbol",
            "outputs": [
                {
                    "internalType": "string",
                    "name": "",
                    "type": "string"
                }
            ],
            "stateMutability": "view",
            "type": "function"
        },
        {
            "inputs": [
                {
                    "internalType": "uint256",
                    "name": "",
                    "type": "uint256"
                }
            ],
            "name": "teggNFTz",
            "outputs": [
                {
                    "internalType": "uint256",
                    "name": "",
                    "type": "uint256"
                }
            ],
            "stateMutability": "view",
            "type": "function"
        },
        {
            "inputs": [
                {
                    "internalType": "uint256",
                    "name": "index",
                    "type": "uint256"
                }
            ],
            "name": "tokenByIndex",
            "outputs": [
                {
                    "internalType": "uint256",
                    "name": "",
                    "type": "uint256"
                }
            ],
            "stateMutability": "view",
            "type": "function"
        },
        {
            "inputs": [],
            "name": "tokenCounter",
            "outputs": [
                {
                    "internalType": "uint256",
                    "name": "",
                    "type": "uint256"
                }
            ],
            "stateMutability": "view",
            "type": "function"
        },
        {
            "inputs": [
                {
                    "internalType": "uint256",
                    "name": "",
                    "type": "uint256"
                }
            ],
            "name": "tokenIdToHatchTimer",
            "outputs": [
                {
                    "internalType": "uint256",
                    "name": "",
                    "type": "uint256"
                }
            ],
            "stateMutability": "view",
            "type": "function"
        },
        {
            "inputs": [
                {
                    "internalType": "address",
                    "name": "owner",
                    "type": "address"
                },
                {
                    "internalType": "uint256",
                    "name": "index",
                    "type": "uint256"
                }
            ],
            "name": "tokenOfOwnerByIndex",
            "outputs": [
                {
                    "internalType": "uint256",
                    "name": "",
                    "type": "uint256"
                }
            ],
            "stateMutability": "view",
            "type": "function"
        },
        {
            "inputs": [
                {
                    "internalType": "uint256",
                    "name": "tokenId",
                    "type": "uint256"
                }
            ],
            "name": "tokenURI",
            "outputs": [
                {
                    "internalType": "string",
                    "name": "",
                    "type": "string"
                }
            ],
            "stateMutability": "view",
            "type": "function"
        },
        {
            "inputs": [],
            "name": "totalSupply",
            "outputs": [
                {
                    "internalType": "uint256",
                    "name": "",
                    "type": "uint256"
                }
            ],
            "stateMutability": "view",
            "type": "function"
        },
        {
            "inputs": [
                {
                    "internalType": "address",
                    "name": "from",
                    "type": "address"
                },
                {
                    "internalType": "address",
                    "name": "to",
                    "type": "address"
                },
                {
                    "internalType": "uint256",
                    "name": "tokenId",
                    "type": "uint256"
                }
            ],
            "name": "transferFrom",
            "outputs": [],
            "stateMutability": "nonpayable",
            "type": "function"
        },
        {
            "inputs": [
                {
                    "internalType": "address",
                    "name": "newOwner",
                    "type": "address"
                }
            ],
            "name": "transferOwnership",
            "outputs": [],
            "stateMutability": "nonpayable",
            "type": "function"
        },
        {
            "inputs": [],
            "name": "withdraw",
            "outputs": [],
            "stateMutability": "nonpayable",
            "type": "function"
        }
    ],
    "transactionHash": "0x777564bc8009b5cf14146571086113e1b450cca28d9aff05e2fca50118add31f",
    "args": [],
    "solcInputHash": "d14118ef665d427ac54897e546ed6678",
    "bytecode": "0x60806040526301da9c00600d55678ac7230489e800006012553480156200002557600080fd5b506040518060400160405280600d81526020017f546865746120456767204e4654000000000000000000000000000000000000008152506040518060400160405280600481526020017f5445474700000000000000000000000000000000000000000000000000000000815250620000aa6301ffc9a760e01b6200015460201b60201c565b8160079080519060200190620000c2929190620002fa565b508060089080519060200190620000db929190620002fa565b50620000f46380ac58cd60e01b6200015460201b60201c565b6200010c635b5e139f60e01b6200015460201b60201c565b6200012463780e9d6360e01b6200015460201b60201c565b5050620001466200013a6200022c60201b60201c565b6200023460201b60201c565b6000600f8190555062000484565b63ffffffff60e01b817bffffffffffffffffffffffffffffffffffffffffffffffffffffffff19161415620001c0576040517f08c379a0000000000000000000000000000000000000000000000000000000008152600401620001b790620003ec565b60405180910390fd5b6001600080837bffffffffffffffffffffffffffffffffffffffffffffffffffffffff19167bffffffffffffffffffffffffffffffffffffffffffffffffffffffff1916815260200190815260200160002060006101000a81548160ff02191690831515021790555050565b600033905090565b6000600b60009054906101000a900473ffffffffffffffffffffffffffffffffffffffff16905081600b60006101000a81548173ffffffffffffffffffffffffffffffffffffffff021916908373ffffffffffffffffffffffffffffffffffffffff1602179055508173ffffffffffffffffffffffffffffffffffffffff168173ffffffffffffffffffffffffffffffffffffffff167f8be0079c531659141344cd1fd0a4f28419497f9722a3daafe3b4186f6b6457e060405160405180910390a35050565b82805462000308906200041f565b90600052602060002090601f0160209004810192826200032c576000855562000378565b82601f106200034757805160ff191683800117855562000378565b8280016001018555821562000378579182015b82811115620003775782518255916020019190600101906200035a565b5b5090506200038791906200038b565b5090565b5b80821115620003a65760008160009055506001016200038c565b5090565b6000620003b9601c836200040e565b91507f544e543136353a20696e76616c696420696e74657266616365206964000000006000830152602082019050919050565b600060208201905081810360008301526200040781620003aa565b9050919050565b600082825260208201905092915050565b600060028204905060018216806200043857607f821691505b602082108114156200044f576200044e62000455565b5b50919050565b7f4e487b7100000000000000000000000000000000000000000000000000000000600052602260045260246000fd5b6145d680620004946000396000f3fe6080604052600436106102305760003560e01c806370a082311161012e578063c15f5342116100ab578063e985e9c51161006f578063e985e9c514610852578063efc81a8c1461088f578063f2fde38b146108a6578063f3d34188146108cf578063fc537fd6146108f857610230565b8063c15f53421461076d578063c5925a5e14610796578063c71d8bad146107bf578063c87b56dd146107ea578063d082e3811461082757610230565b80639f0fff9e116100f25780639f0fff9e1461069e578063a22cb465146106c7578063a2836a29146106f0578063a9ef0f5a14610719578063b88d4fde1461074457610230565b806370a08231146105b7578063715018a6146105f45780638631f9dd1461060b5780638da5cb5b1461064857806395d89b411461067357610230565b80632f745c59116101bc5780634f6ccce7116101805780634f6ccce7146104be5780634f8c79f8146104fb5780636352211e146105245780636c0360eb146105615780636e02007d1461058c57610230565b80632f745c59146103d957806330d871c6146104165780633ccfd60b1461045357806342842e0e1461046a57806348eaff741461049357610230565b8063095ea7b311610203578063095ea7b31461030357806318160ddd1461032c5780632342c471146103575780632385554c1461039457806323b872dd146103b057610230565b806301ffc9a71461023557806306fdde03146102725780630780c4141461029d578063081812fc146102c6575b600080fd5b34801561024157600080fd5b5061025c600480360381019061025791906132d3565b610923565b6040516102699190613e28565b60405180910390f35b34801561027e57600080fd5b5061028761098a565b6040516102949190613e43565b60405180910390f35b3480156102a957600080fd5b506102c460048036038101906102bf9190613325565b610a1c565b005b3480156102d257600080fd5b506102ed60048036038101906102e89190613366565b610ab2565b6040516102fa9190613dc1565b60405180910390f35b34801561030f57600080fd5b5061032a60048036038101906103259190613297565b610b37565b005b34801561033857600080fd5b50610341610c4f565b60405161034e91906140e5565b60405180910390f35b34801561036357600080fd5b5061037e60048036038101906103799190613366565b610c60565b60405161038b91906140e5565b60405180910390f35b6103ae60048036038101906103a99190613366565b610c84565b005b3480156103bc57600080fd5b506103d760048036038101906103d29190613191565b610e47565b005b3480156103e557600080fd5b5061040060048036038101906103fb9190613297565b610ea7565b60405161040d91906140e5565b60405180910390f35b34801561042257600080fd5b5061043d60048036038101906104389190613325565b610f02565b60405161044a9190613e43565b60405180910390f35b34801561045f57600080fd5b50610468610f95565b005b34801561047657600080fd5b50610491600480360381019061048c9190613191565b611067565b005b34801561049f57600080fd5b506104a8611087565b6040516104b591906140e5565b60405180910390f35b3480156104ca57600080fd5b506104e560048036038101906104e09190613366565b61108d565b6040516104f291906140e5565b60405180910390f35b34801561050757600080fd5b50610522600480360381019061051d9190613366565b6110b0565b005b34801561053057600080fd5b5061054b60048036038101906105469190613366565b611136565b6040516105589190613dc1565b60405180910390f35b34801561056d57600080fd5b5061057661116d565b6040516105839190613e43565b60405180910390f35b34801561059857600080fd5b506105a16111ff565b6040516105ae91906140e5565b60405180910390f35b3480156105c357600080fd5b506105de60048036038101906105d9919061312c565b611209565b6040516105eb91906140e5565b60405180910390f35b34801561060057600080fd5b506106096112c8565b005b34801561061757600080fd5b50610632600480360381019061062d9190613366565b611350565b60405161063f91906140e5565b60405180910390f35b34801561065457600080fd5b5061065d611368565b60405161066a9190613dc1565b60405180910390f35b34801561067f57600080fd5b50610688611392565b6040516106959190613e43565b60405180910390f35b3480156106aa57600080fd5b506106c560048036038101906106c09190613325565b611424565b005b3480156106d357600080fd5b506106ee60048036038101906106e9919061325b565b6114ba565b005b3480156106fc57600080fd5b5061071760048036038101906107129190613325565b61163b565b005b34801561072557600080fd5b5061072e6116d1565b60405161073b9190613e43565b60405180910390f35b34801561075057600080fd5b5061076b600480360381019061076691906131e0565b61175f565b005b34801561077957600080fd5b50610794600480360381019061078f9190613366565b6117c1565b005b3480156107a257600080fd5b506107bd60048036038101906107b89190613325565b6118ad565b005b3480156107cb57600080fd5b506107d4611943565b6040516107e191906140e5565b60405180910390f35b3480156107f657600080fd5b50610811600480360381019061080c9190613366565b611949565b60405161081e9190613e43565b60405180910390f35b34801561083357600080fd5b5061083c611b19565b60405161084991906140e5565b60405180910390f35b34801561085e57600080fd5b5061087960048036038101906108749190613155565b611b1f565b6040516108869190613e28565b60405180910390f35b34801561089b57600080fd5b506108a4611bb3565b005b3480156108b257600080fd5b506108cd60048036038101906108c8919061312c565b611c76565b005b3480156108db57600080fd5b506108f660048036038101906108f19190613366565b611d6e565b005b34801561090457600080fd5b5061090d611e7c565b60405161091a91906140e5565b60405180910390f35b6000806000837bffffffffffffffffffffffffffffffffffffffffffffffffffffffff19167bffffffffffffffffffffffffffffffffffffffffffffffffffffffff1916815260200190815260200160002060009054906101000a900460ff169050919050565b606060078054610999906143aa565b80601f01602080910402602001604051908101604052809291908181526020018280546109c5906143aa565b8015610a125780601f106109e757610100808354040283529160200191610a12565b820191906000526020600020905b8154815290600101906020018083116109f557829003601f168201915b5050505050905090565b610a24611e82565b73ffffffffffffffffffffffffffffffffffffffff16610a42611368565b73ffffffffffffffffffffffffffffffffffffffff1614610a98576040517f08c379a0000000000000000000000000000000000000000000000000000000008152600401610a8f90613f85565b60405180910390fd5b8060119080519060200190610aae929190612f50565b5050565b6000610abd82611e8a565b610afc576040517f08c379a0000000000000000000000000000000000000000000000000000000008152600401610af390613fc5565b60405180910390fd5b6005600083815260200190815260200160002060009054906101000a900473ffffffffffffffffffffffffffffffffffffffff169050919050565b6000610b4282611136565b90508073ffffffffffffffffffffffffffffffffffffffff168373ffffffffffffffffffffffffffffffffffffffff161415610bb3576040517f08c379a0000000000000000000000000000000000000000000000000000000008152600401610baa90613ec5565b60405180910390fd5b8073ffffffffffffffffffffffffffffffffffffffff16610bd2611e82565b73ffffffffffffffffffffffffffffffffffffffff161480610c015750610c0081610bfb611e82565b611b1f565b5b610c40576040517f08c379a0000000000000000000000000000000000000000000000000000000008152600401610c3790613f25565b60405180910390fd5b610c4a8383611ea7565b505050565b6000610c5b6002611f60565b905090565b600c8181548110610c7057600080fd5b906000526020600020016000915090505481565b600060136000838152602001908152602001600020541415610cdb576040517f08c379a0000000000000000000000000000000000000000000000000000000008152600401610cd290614045565b60405180910390fd5b6013600082815260200190815260200160002054421115610d31576040517f08c379a0000000000000000000000000000000000000000000000000000000008152600401610d2890613f65565b60405180910390fd5b610d3a81611e8a565b610d79576040517f08c379a0000000000000000000000000000000000000000000000000000000008152600401610d7090613fa5565b60405180910390fd5b610d8281611136565b73ffffffffffffffffffffffffffffffffffffffff163373ffffffffffffffffffffffffffffffffffffffff1614610def576040517f08c379a0000000000000000000000000000000000000000000000000000000008152600401610de6906140c5565b60405180910390fd5b6012543414610dfd57600080fd5b6000601360008381526020019081526020016000208190555042817ff636f96ebae0f362bc673d465a964fbbadbe24117ddf2e6e8083b1e51fabe5ff60405160405180910390a350565b610e58610e52611e82565b82611f75565b610e97576040517f08c379a0000000000000000000000000000000000000000000000000000000008152600401610e8e90614025565b60405180910390fd5b610ea2838383612053565b505050565b6000610efa82600160008673ffffffffffffffffffffffffffffffffffffffff1673ffffffffffffffffffffffffffffffffffffffff16815260200190815260200160002061226a90919063ffffffff16565b905092915050565b606060006040518060400160405280601a81526020017f646174613a696d6167652f7376672b786d6c3b6261736536342c00000000000081525090506000610f6884604051602001610f549190613d21565b604051602081830303815290604052612284565b90508181604051602001610f7d929190613d38565b60405160208183030381529060405292505050919050565b610f9d611e82565b73ffffffffffffffffffffffffffffffffffffffff16610fbb611368565b73ffffffffffffffffffffffffffffffffffffffff1614611011576040517f08c379a000000000000000000000000000000000000000000000000000000000815260040161100890613f85565b60405180910390fd5b600061101b611368565b90508073ffffffffffffffffffffffffffffffffffffffff166108fc479081150290604051600060405180830381858888f19350505050158015611063573d6000803e3d6000fd5b5050565b6110828383836040518060200160405280600081525061175f565b505050565b600e5481565b6000806110a483600261242f90919063ffffffff16565b50905080915050919050565b6110b8611e82565b73ffffffffffffffffffffffffffffffffffffffff166110d6611368565b73ffffffffffffffffffffffffffffffffffffffff161461112c576040517f08c379a000000000000000000000000000000000000000000000000000000000815260040161112390613f85565b60405180910390fd5b8060128190555050565b60006111668260405180606001604052806029815260200161450660299139600261245b9092919063ffffffff16565b9050919050565b6060600a805461117c906143aa565b80601f01602080910402602001604051908101604052809291908181526020018280546111a8906143aa565b80156111f55780601f106111ca576101008083540402835291602001916111f5565b820191906000526020600020905b8154815290600101906020018083116111d857829003601f168201915b5050505050905090565b6000600f54905090565b60008073ffffffffffffffffffffffffffffffffffffffff168273ffffffffffffffffffffffffffffffffffffffff16141561127a576040517f08c379a000000000000000000000000000000000000000000000000000000000815260040161127190613fe5565b60405180910390fd5b6112c1600160008473ffffffffffffffffffffffffffffffffffffffff1673ffffffffffffffffffffffffffffffffffffffff16815260200190815260200160002061247a565b9050919050565b6112d0611e82565b73ffffffffffffffffffffffffffffffffffffffff166112ee611368565b73ffffffffffffffffffffffffffffffffffffffff1614611344576040517f08c379a000000000000000000000000000000000000000000000000000000000815260040161133b90613f85565b60405180910390fd5b61134e600061248f565b565b60136020528060005260406000206000915090505481565b6000600b60009054906101000a900473ffffffffffffffffffffffffffffffffffffffff16905090565b6060600880546113a1906143aa565b80601f01602080910402602001604051908101604052809291908181526020018280546113cd906143aa565b801561141a5780601f106113ef5761010080835404028352916020019161141a565b820191906000526020600020905b8154815290600101906020018083116113fd57829003601f168201915b5050505050905090565b61142c611e82565b73ffffffffffffffffffffffffffffffffffffffff1661144a611368565b73ffffffffffffffffffffffffffffffffffffffff16146114a0576040517f08c379a000000000000000000000000000000000000000000000000000000000815260040161149790613f85565b60405180910390fd5b80601090805190602001906114b6929190612f50565b5050565b6114c2611e82565b73ffffffffffffffffffffffffffffffffffffffff168273ffffffffffffffffffffffffffffffffffffffff161415611530576040517f08c379a000000000000000000000000000000000000000000000000000000000815260040161152790614065565b60405180910390fd5b806006600061153d611e82565b73ffffffffffffffffffffffffffffffffffffffff1673ffffffffffffffffffffffffffffffffffffffff16815260200190815260200160002060008473ffffffffffffffffffffffffffffffffffffffff1673ffffffffffffffffffffffffffffffffffffffff16815260200190815260200160002060006101000a81548160ff0219169083151502179055508173ffffffffffffffffffffffffffffffffffffffff166115ea611e82565b73ffffffffffffffffffffffffffffffffffffffff167f17307eab39ab6107e8899845ad3d59bd9653f200f220920489ca2b5937696c318360405161162f9190613e28565b60405180910390a35050565b611643611e82565b73ffffffffffffffffffffffffffffffffffffffff16611661611368565b73ffffffffffffffffffffffffffffffffffffffff16146116b7576040517f08c379a00000000000000000000000000000000000000000000000000000000081526004016116ae90613f85565b60405180910390fd5b60006116c282610f02565b90506116cd81610a1c565b5050565b601080546116de906143aa565b80601f016020809104026020016040519081016040528092919081815260200182805461170a906143aa565b80156117575780601f1061172c57610100808354040283529160200191611757565b820191906000526020600020905b81548152906001019060200180831161173a57829003601f168201915b505050505081565b61177061176a611e82565b83611f75565b6117af576040517f08c379a00000000000000000000000000000000000000000000000000000000081526004016117a690614025565b60405180910390fd5b6117bb84848484612555565b50505050565b6117c9611e82565b73ffffffffffffffffffffffffffffffffffffffff166117e7611368565b73ffffffffffffffffffffffffffffffffffffffff161461183d576040517f08c379a000000000000000000000000000000000000000000000000000000000815260040161183490613f85565b60405180910390fd5b61184681611e8a565b611885576040517f08c379a000000000000000000000000000000000000000000000000000000000815260040161187c90613fa5565b60405180910390fd5b600d544261189391906141df565b601360008381526020019081526020016000208190555050565b6118b5611e82565b73ffffffffffffffffffffffffffffffffffffffff166118d3611368565b73ffffffffffffffffffffffffffffffffffffffff1614611929576040517f08c379a000000000000000000000000000000000000000000000000000000000815260040161192090613f85565b60405180910390fd5b600061193482610f02565b905061193f81611424565b5050565b600d5481565b606061195482611e8a565b611993576040517f08c379a000000000000000000000000000000000000000000000000000000000815260040161198a90613fa5565b60405180910390fd5b6000601080546119a2906143aa565b80601f01602080910402602001604051908101604052809291908181526020018280546119ce906143aa565b8015611a1b5780601f106119f057610100808354040283529160200191611a1b565b820191906000526020600020905b8154815290600101906020018083116119fe57829003601f168201915b5050505050905060136000848152602001908152602001600020544210611aca5760118054611a49906143aa565b80601f0160208091040260200160405190810160405280929190818152602001828054611a75906143aa565b8015611ac25780601f10611a9757610100808354040283529160200191611ac2565b820191906000526020600020905b815481529060010190602001808311611aa557829003601f168201915b505050505090505b611af281604051602001611ade9190613d5c565b604051602081830303815290604052612284565b604051602001611b029190613d9f565b604051602081830303815290604052915050919050565b600f5481565b6000600660008473ffffffffffffffffffffffffffffffffffffffff1673ffffffffffffffffffffffffffffffffffffffff16815260200190815260200160002060008373ffffffffffffffffffffffffffffffffffffffff1673ffffffffffffffffffffffffffffffffffffffff16815260200190815260200160002060009054906101000a900460ff16905092915050565b600d5442611bc191906141df565b60136000600f5481526020019081526020016000208190555060136000600f54815260200190815260200160002054600e81905550600e54600f547f6e147ee04eee68681ef8b3fa0e84f5fcf026a98017bebc6cdf9190d174330c6b60405160405180910390a3611c3433600f546125b1565b6001600f54611c4391906141df565b600f81905550600c600f549080600181540180825580915050600190039060005260206000200160009091909190915055565b611c7e611e82565b73ffffffffffffffffffffffffffffffffffffffff16611c9c611368565b73ffffffffffffffffffffffffffffffffffffffff1614611cf2576040517f08c379a0000000000000000000000000000000000000000000000000000000008152600401611ce990613f85565b60405180910390fd5b600073ffffffffffffffffffffffffffffffffffffffff168173ffffffffffffffffffffffffffffffffffffffff161415611d62576040517f08c379a0000000000000000000000000000000000000000000000000000000008152600401611d5990613e65565b60405180910390fd5b611d6b8161248f565b50565b611d76611e82565b73ffffffffffffffffffffffffffffffffffffffff16611d94611368565b73ffffffffffffffffffffffffffffffffffffffff1614611dea576040517f08c379a0000000000000000000000000000000000000000000000000000000008152600401611de190613f85565b60405180910390fd5b611df381611e8a565b611e32576040517f08c379a0000000000000000000000000000000000000000000000000000000008152600401611e2990613fa5565b60405180910390fd5b6000601360008381526020019081526020016000208190555042817ff636f96ebae0f362bc673d465a964fbbadbe24117ddf2e6e8083b1e51fabe5ff60405160405180910390a350565b60125481565b600033905090565b6000611ea08260026125cf90919063ffffffff16565b9050919050565b816005600083815260200190815260200160002060006101000a81548173ffffffffffffffffffffffffffffffffffffffff021916908373ffffffffffffffffffffffffffffffffffffffff160217905550808273ffffffffffffffffffffffffffffffffffffffff16611f1a83611136565b73ffffffffffffffffffffffffffffffffffffffff167f8c5be1e5ebec7d5bd14f71427d1e84f3dd0314c0f7b2291e5b200ac8c7c3b92560405160405180910390a45050565b6000611f6e826000016125e9565b9050919050565b6000611f8082611e8a565b611fbf576040517f08c379a0000000000000000000000000000000000000000000000000000000008152600401611fb690613e85565b60405180910390fd5b6000611fca83611136565b90508073ffffffffffffffffffffffffffffffffffffffff168473ffffffffffffffffffffffffffffffffffffffff16148061203957508373ffffffffffffffffffffffffffffffffffffffff1661202184610ab2565b73ffffffffffffffffffffffffffffffffffffffff16145b8061204a57506120498185611b1f565b5b91505092915050565b8273ffffffffffffffffffffffffffffffffffffffff1661207382611136565b73ffffffffffffffffffffffffffffffffffffffff16146120c9576040517f08c379a00000000000000000000000000000000000000000000000000000000081526004016120c090613ea5565b60405180910390fd5b600073ffffffffffffffffffffffffffffffffffffffff168273ffffffffffffffffffffffffffffffffffffffff161415612139576040517f08c379a000000000000000000000000000000000000000000000000000000000815260040161213090613f45565b60405180910390fd5b6121448383836125fe565b61214f600082611ea7565b6121a081600160008673ffffffffffffffffffffffffffffffffffffffff1673ffffffffffffffffffffffffffffffffffffffff16815260200190815260200160002061260390919063ffffffff16565b506121f281600160008573ffffffffffffffffffffffffffffffffffffffff1673ffffffffffffffffffffffffffffffffffffffff16815260200190815260200160002061261d90919063ffffffff16565b50612209818360026126379092919063ffffffff16565b50808273ffffffffffffffffffffffffffffffffffffffff168473ffffffffffffffffffffffffffffffffffffffff167fddf252ad1be2c89b69c2b068fc378daa952ba7f163c4a11628f55a4df523b3ef60405160405180910390a4505050565b6000612279836000018361266c565b60001c905092915050565b60606000825114156122a75760405180602001604052806000815250905061242a565b600060405180606001604052806040815260200161456160409139905060006003600285516122d691906141df565b6122e09190614235565b60046122ec9190614266565b905060006020826122fd91906141df565b67ffffffffffffffff81111561233c577f4e487b7100000000000000000000000000000000000000000000000000000000600052604160045260246000fd5b6040519080825280601f01601f19166020018201604052801561236e5781602001600182028036833780820191505090505b509050818152600183018586518101602084015b818310156123e9576003830192508251603f8160121c1685015160f81b8252600182019150603f81600c1c1685015160f81b8252600182019150603f8160061c1685015160f81b8252600182019150603f811685015160f81b825260018201915050612382565b60038951066001811461240357600281146124135761241e565b613d3d60f01b600283035261241e565b603d60f81b60018303525b50505050508093505050505b919050565b60008060008061244286600001866126bd565b915091508160001c8160001c9350935050509250929050565b600061246e846000018460001b846126fd565b60001c90509392505050565b60006124888260000161277e565b9050919050565b6000600b60009054906101000a900473ffffffffffffffffffffffffffffffffffffffff16905081600b60006101000a81548173ffffffffffffffffffffffffffffffffffffffff021916908373ffffffffffffffffffffffffffffffffffffffff1602179055508173ffffffffffffffffffffffffffffffffffffffff168173ffffffffffffffffffffffffffffffffffffffff167f8be0079c531659141344cd1fd0a4f28419497f9722a3daafe3b4186f6b6457e060405160405180910390a35050565b612560848484612053565b61256c8484848461278f565b6125ab576040517f08c379a00000000000000000000000000000000000000000000000000000000081526004016125a290613ee5565b60405180910390fd5b50505050565b6125cb8282604051806020016040528060008152506128f3565b5050565b60006125e1836000018360001b61294e565b905092915050565b60006125f78260000161296e565b9050919050565b505050565b6000612615836000018360001b612983565b905092915050565b600061262f836000018360001b612b09565b905092915050565b6000612663846000018460001b8473ffffffffffffffffffffffffffffffffffffffff1660001b612b79565b90509392505050565b60008260000182815481106126aa577f4e487b7100000000000000000000000000000000000000000000000000000000600052603260045260246000fd5b9060005260206000200154905092915050565b60008060006126d88486600001612bb490919063ffffffff16565b9050808560020160008381526020019081526020016000205492509250509250929050565b6000808460020160008581526020019081526020016000205490506000801b81141580612730575061272f858561294e565b5b8390612772576040517f08c379a00000000000000000000000000000000000000000000000000000000081526004016127699190613e43565b60405180910390fd5b50809150509392505050565b600081600001805490509050919050565b60006127b08473ffffffffffffffffffffffffffffffffffffffff16612bcb565b6127bd57600190506128eb565b600061288463df20cc6d60e01b6127d2611e82565b8887876040516024016127e89493929190613ddc565b604051602081830303815290604052907bffffffffffffffffffffffffffffffffffffffffffffffffffffffff19166020820180517bffffffffffffffffffffffffffffffffffffffffffffffffffffffff838183161783525050505060405180606001604052806032815260200161452f603291398773ffffffffffffffffffffffffffffffffffffffff16612bde9092919063ffffffff16565b905060008180602001905181019061289c91906132fc565b905063150b7a0260e01b7bffffffffffffffffffffffffffffffffffffffffffffffffffffffff1916817bffffffffffffffffffffffffffffffffffffffffffffffffffffffff191614925050505b949350505050565b6128fd8383612bf6565b61290a600084848461278f565b612949576040517f08c379a000000000000000000000000000000000000000000000000000000000815260040161294090613ee5565b60405180910390fd5b505050565b60006129668284600001612d8490919063ffffffff16565b905092915050565b600061297c8260000161277e565b9050919050565b60008083600101600084815260200190815260200160002054905060008114612afd5760006001826129b591906142c0565b90506000600186600001805490506129cd91906142c0565b9050818114612a88576000866000018281548110612a14577f4e487b7100000000000000000000000000000000000000000000000000000000600052603260045260246000fd5b9060005260206000200154905080876000018481548110612a5e577f4e487b7100000000000000000000000000000000000000000000000000000000600052603260045260246000fd5b90600052602060002001819055508387600101600083815260200190815260200160002081905550505b85600001805480612ac2577f4e487b7100000000000000000000000000000000000000000000000000000000600052603160045260246000fd5b600190038181906000526020600020016000905590558560010160008681526020019081526020016000206000905560019350505050612b03565b60009150505b92915050565b6000612b158383612d9b565b612b6e578260000182908060018154018082558091505060019003906000526020600020016000909190919091505582600001805490508360010160008481526020019081526020016000208190555060019050612b73565b600090505b92915050565b60008184600201600085815260200190815260200160002081905550612bab8385600001612dbe90919063ffffffff16565b90509392505050565b6000612bc3836000018361266c565b905092915050565b600080823b905060008111915050919050565b6060612bed8484600085612dd5565b90509392505050565b600073ffffffffffffffffffffffffffffffffffffffff168273ffffffffffffffffffffffffffffffffffffffff161415612c66576040517f08c379a0000000000000000000000000000000000000000000000000000000008152600401612c5d906140a5565b60405180910390fd5b612c6f81611e8a565b15612caf576040517f08c379a0000000000000000000000000000000000000000000000000000000008152600401612ca690614085565b60405180910390fd5b612cbb600083836125fe565b612d0c81600160008573ffffffffffffffffffffffffffffffffffffffff1673ffffffffffffffffffffffffffffffffffffffff16815260200190815260200160002061261d90919063ffffffff16565b50612d23818360026126379092919063ffffffff16565b50808273ffffffffffffffffffffffffffffffffffffffff16600073ffffffffffffffffffffffffffffffffffffffff167fddf252ad1be2c89b69c2b068fc378daa952ba7f163c4a11628f55a4df523b3ef60405160405180910390a45050565b6000612d938360000183612d9b565b905092915050565b600080836001016000848152602001908152602001600020541415905092915050565b6000612dcd8360000183612b09565b905092915050565b606082471015612e1a576040517f08c379a0000000000000000000000000000000000000000000000000000000008152600401612e1190613f05565b60405180910390fd5b612e2385612bcb565b612e62576040517f08c379a0000000000000000000000000000000000000000000000000000000008152600401612e5990614005565b60405180910390fd5b6000808673ffffffffffffffffffffffffffffffffffffffff168587604051612e8b9190613d0a565b60006040518083038185875af1925050503d8060008114612ec8576040519150601f19603f3d011682016040523d82523d6000602084013e612ecd565b606091505b5091509150612edd828286612ee9565b92505050949350505050565b60608315612ef957829050612f49565b600083511115612f0c5782518084602001fd5b816040517f08c379a0000000000000000000000000000000000000000000000000000000008152600401612f409190613e43565b60405180910390fd5b9392505050565b828054612f5c906143aa565b90600052602060002090601f016020900481019282612f7e5760008555612fc5565b82601f10612f9757805160ff1916838001178555612fc5565b82800160010185558215612fc5579182015b82811115612fc4578251825591602001919060010190612fa9565b5b509050612fd29190612fd6565b5090565b5b80821115612fef576000816000905550600101612fd7565b5090565b600061300661300184614131565b614100565b90508281526020810184848401111561301e57600080fd5b613029848285614368565b509392505050565b600061304461303f84614161565b614100565b90508281526020810184848401111561305c57600080fd5b613067848285614368565b509392505050565b60008135905061307e816144a9565b92915050565b600081359050613093816144c0565b92915050565b6000813590506130a8816144d7565b92915050565b6000815190506130bd816144d7565b92915050565b600082601f8301126130d457600080fd5b81356130e4848260208601612ff3565b91505092915050565b600082601f8301126130fe57600080fd5b813561310e848260208601613031565b91505092915050565b600081359050613126816144ee565b92915050565b60006020828403121561313e57600080fd5b600061314c8482850161306f565b91505092915050565b6000806040838503121561316857600080fd5b60006131768582860161306f565b92505060206131878582860161306f565b9150509250929050565b6000806000606084860312156131a657600080fd5b60006131b48682870161306f565b93505060206131c58682870161306f565b92505060406131d686828701613117565b9150509250925092565b600080600080608085870312156131f657600080fd5b60006132048782880161306f565b94505060206132158782880161306f565b935050604061322687828801613117565b925050606085013567ffffffffffffffff81111561324357600080fd5b61324f878288016130c3565b91505092959194509250565b6000806040838503121561326e57600080fd5b600061327c8582860161306f565b925050602061328d85828601613084565b9150509250929050565b600080604083850312156132aa57600080fd5b60006132b88582860161306f565b92505060206132c985828601613117565b9150509250929050565b6000602082840312156132e557600080fd5b60006132f384828501613099565b91505092915050565b60006020828403121561330e57600080fd5b600061331c848285016130ae565b91505092915050565b60006020828403121561333757600080fd5b600082013567ffffffffffffffff81111561335157600080fd5b61335d848285016130ed565b91505092915050565b60006020828403121561337857600080fd5b600061338684828501613117565b91505092915050565b613398816142f4565b82525050565b6133a781614306565b82525050565b60006133b882614191565b6133c281856141a7565b93506133d2818560208601614377565b6133db81614498565b840191505092915050565b60006133f182614191565b6133fb81856141b8565b935061340b818560208601614377565b80840191505092915050565b60006134228261419c565b61342c81856141c3565b935061343c818560208601614377565b61344581614498565b840191505092915050565b600061345b8261419c565b61346581856141d4565b9350613475818560208601614377565b80840191505092915050565b600061348e6009836141d4565b91507f7b226e616d65223a2200000000000000000000000000000000000000000000006000830152600982019050919050565b60006134ce6026836141c3565b91507f4f776e61626c653a206e6577206f776e657220697320746865207a65726f206160008301527f64647265737300000000000000000000000000000000000000000000000000006020830152604082019050919050565b6000613534602c836141c3565b91507f544e543732313a206f70657261746f7220717565727920666f72206e6f6e657860008301527f697374656e7420746f6b656e00000000000000000000000000000000000000006020830152604082019050919050565b600061359a6029836141c3565b91507f544e543732313a207472616e73666572206f6620746f6b656e2074686174206960008301527f73206e6f74206f776e00000000000000000000000000000000000000000000006020830152604082019050919050565b60006136006021836141c3565b91507f544e543732313a20617070726f76616c20746f2063757272656e74206f776e6560008301527f72000000000000000000000000000000000000000000000000000000000000006020830152604082019050919050565b60006136666032836141c3565b91507f544e543732313a207472616e7366657220746f206e6f6e20544e54373231526560008301527f63656976657220696d706c656d656e74657200000000000000000000000000006020830152604082019050919050565b60006136cc6026836141c3565b91507f416464726573733a20696e73756666696369656e742062616c616e636520666f60008301527f722063616c6c00000000000000000000000000000000000000000000000000006020830152604082019050919050565b60006137326038836141c3565b91507f544e543732313a20617070726f76652063616c6c6572206973206e6f74206f7760008301527f6e6572206e6f7220617070726f76656420666f7220616c6c00000000000000006020830152604082019050919050565b60006137986024836141c3565b91507f544e543732313a207472616e7366657220746f20746865207a65726f2061646460008301527f72657373000000000000000000000000000000000000000000000000000000006020830152604082019050919050565b60006137fe6026836141c3565b91507f596f7572206567672068617320616c7265616479206e61747572616c6c79206860008301527f61746368656400000000000000000000000000000000000000000000000000006020830152604082019050919050565b60006138646047836141d4565b91507f222c20226465736372697074696f6e223a22416e204e4654207468617420746860008301527f61742068617463686573222c202261747472696275746573223a22222c20226960208301527f6d616765223a22000000000000000000000000000000000000000000000000006040830152604782019050919050565b60006138f06002836141d4565b91507f227d0000000000000000000000000000000000000000000000000000000000006000830152600282019050919050565b60006139306010836141d4565b91507f48616368696e672065676773204e4654000000000000000000000000000000006000830152601082019050919050565b60006139706020836141c3565b91507f4f776e61626c653a2063616c6c6572206973206e6f7420746865206f776e65726000830152602082019050919050565b60006139b0602f836141c3565b91507f4552433732314d657461646174613a2055524920717565727920666f72206e6f60008301527f6e6578697374656e7420746f6b656e00000000000000000000000000000000006020830152604082019050919050565b6000613a16602c836141c3565b91507f544e543732313a20617070726f76656420717565727920666f72206e6f6e657860008301527f697374656e7420746f6b656e00000000000000000000000000000000000000006020830152604082019050919050565b6000613a7c601d836141d4565b91507f646174613a6170706c69636174696f6e2f6a736f6e3b6261736536342c0000006000830152601d82019050919050565b6000613abc602a836141c3565b91507f544e543732313a2062616c616e636520717565727920666f7220746865207a6560008301527f726f2061646472657373000000000000000000000000000000000000000000006020830152604082019050919050565b6000613b22601d836141c3565b91507f416464726573733a2063616c6c20746f206e6f6e2d636f6e74726163740000006000830152602082019050919050565b6000613b626031836141c3565b91507f544e543732313a207472616e736665722063616c6c6572206973206e6f74206f60008301527f776e6572206e6f7220617070726f7665640000000000000000000000000000006020830152604082019050919050565b6000613bc8601c836141c3565b91507f596f7520616c7265616479206861746368656420796f757220656767000000006000830152602082019050919050565b6000613c086019836141c3565b91507f544e543732313a20617070726f766520746f2063616c6c6572000000000000006000830152602082019050919050565b6000613c48601c836141c3565b91507f544e543732313a20746f6b656e20616c7265616479206d696e746564000000006000830152602082019050919050565b6000613c886020836141c3565b91507f544e543732313a206d696e7420746f20746865207a65726f20616464726573736000830152602082019050919050565b6000613cc8601d836141c3565b91507f4f776e657220646f6573206e6f74206f776e207468697320746f6b656e0000006000830152602082019050919050565b613d048161435e565b82525050565b6000613d1682846133e6565b915081905092915050565b6000613d2d8284613450565b915081905092915050565b6000613d448285613450565b9150613d508284613450565b91508190509392505050565b6000613d6782613481565b9150613d7282613923565b9150613d7d82613857565b9150613d898284613450565b9150613d94826138e3565b915081905092915050565b6000613daa82613a6f565b9150613db68284613450565b915081905092915050565b6000602082019050613dd6600083018461338f565b92915050565b6000608082019050613df1600083018761338f565b613dfe602083018661338f565b613e0b6040830185613cfb565b8181036060830152613e1d81846133ad565b905095945050505050565b6000602082019050613e3d600083018461339e565b92915050565b60006020820190508181036000830152613e5d8184613417565b905092915050565b60006020820190508181036000830152613e7e816134c1565b9050919050565b60006020820190508181036000830152613e9e81613527565b9050919050565b60006020820190508181036000830152613ebe8161358d565b9050919050565b60006020820190508181036000830152613ede816135f3565b9050919050565b60006020820190508181036000830152613efe81613659565b9050919050565b60006020820190508181036000830152613f1e816136bf565b9050919050565b60006020820190508181036000830152613f3e81613725565b9050919050565b60006020820190508181036000830152613f5e8161378b565b9050919050565b60006020820190508181036000830152613f7e816137f1565b9050919050565b60006020820190508181036000830152613f9e81613963565b9050919050565b60006020820190508181036000830152613fbe816139a3565b9050919050565b60006020820190508181036000830152613fde81613a09565b9050919050565b60006020820190508181036000830152613ffe81613aaf565b9050919050565b6000602082019050818103600083015261401e81613b15565b9050919050565b6000602082019050818103600083015261403e81613b55565b9050919050565b6000602082019050818103600083015261405e81613bbb565b9050919050565b6000602082019050818103600083015261407e81613bfb565b9050919050565b6000602082019050818103600083015261409e81613c3b565b9050919050565b600060208201905081810360008301526140be81613c7b565b9050919050565b600060208201905081810360008301526140de81613cbb565b9050919050565b60006020820190506140fa6000830184613cfb565b92915050565b6000604051905081810181811067ffffffffffffffff8211171561412757614126614469565b5b8060405250919050565b600067ffffffffffffffff82111561414c5761414b614469565b5b601f19601f8301169050602081019050919050565b600067ffffffffffffffff82111561417c5761417b614469565b5b601f19601f8301169050602081019050919050565b600081519050919050565b600081519050919050565b600082825260208201905092915050565b600081905092915050565b600082825260208201905092915050565b600081905092915050565b60006141ea8261435e565b91506141f58361435e565b9250827fffffffffffffffffffffffffffffffffffffffffffffffffffffffffffffffff0382111561422a576142296143dc565b5b828201905092915050565b60006142408261435e565b915061424b8361435e565b92508261425b5761425a61440b565b5b828204905092915050565b60006142718261435e565b915061427c8361435e565b9250817fffffffffffffffffffffffffffffffffffffffffffffffffffffffffffffffff04831182151516156142b5576142b46143dc565b5b828202905092915050565b60006142cb8261435e565b91506142d68361435e565b9250828210156142e9576142e86143dc565b5b828203905092915050565b60006142ff8261433e565b9050919050565b60008115159050919050565b60007fffffffff0000000000000000000000000000000000000000000000000000000082169050919050565b600073ffffffffffffffffffffffffffffffffffffffff82169050919050565b6000819050919050565b82818337600083830152505050565b60005b8381101561439557808201518184015260208101905061437a565b838111156143a4576000848401525b50505050565b600060028204905060018216806143c257607f821691505b602082108114156143d6576143d561443a565b5b50919050565b7f4e487b7100000000000000000000000000000000000000000000000000000000600052601160045260246000fd5b7f4e487b7100000000000000000000000000000000000000000000000000000000600052601260045260246000fd5b7f4e487b7100000000000000000000000000000000000000000000000000000000600052602260045260246000fd5b7f4e487b7100000000000000000000000000000000000000000000000000000000600052604160045260246000fd5b6000601f19601f8301169050919050565b6144b2816142f4565b81146144bd57600080fd5b50565b6144c981614306565b81146144d457600080fd5b50565b6144e081614312565b81146144eb57600080fd5b50565b6144f78161435e565b811461450257600080fd5b5056fe544e543732313a206f776e657220717565727920666f72206e6f6e6578697374656e7420746f6b656e544e543732313a207472616e7366657220746f206e6f6e20544e54373231526563656976657220696d706c656d656e7465724142434445464748494a4b4c4d4e4f505152535455565758595a6162636465666768696a6b6c6d6e6f707172737475767778797a303132333435363738392b2fa26469706673582212206617342df637b76e144dfee6cb4a6fbbbbe172cbc3dd1c26235d4b894192b03b64736f6c63430008000033",
    "devdoc": {
        "kind": "dev",
        "methods": {
            "owner()": {
                "details": "Returns the address of the current owner."
            },
            "renounceOwnership()": {
                "details": "Leaves the contract without owner. It will not be possible to call `onlyOwner` functions anymore. Can only be called by the current owner. NOTE: Renouncing ownership will leave the contract without an owner, thereby removing any functionality that is only available to the owner."
            },
            "transferOwnership(address)": {
                "details": "Transfers ownership of the contract to a new account (`newOwner`). Can only be called by the current owner."
            }
        },
        "version": 1
    },
    "userdoc": {
        "kind": "user",
        "methods": {},
        "version": 1
    },
    "storageLayout": {
        "storage": [
            {
                "astId": 4483,
                "contract": "contracts/TeggNFTTheta.sol:TeggNFTTheta",
                "label": "_supportedInterfaces",
                "offset": 0,
                "slot": "0",
                "type": "t_mapping(t_bytes4,t_bool)"
            },
            {
                "astId": 4559,
                "contract": "contracts/TeggNFTTheta.sol:TeggNFTTheta",
                "label": "_holderTokens",
                "offset": 0,
                "slot": "1",
                "type": "t_mapping(t_address,t_struct(UintSet)3502_storage)"
            },
            {
                "astId": 4562,
                "contract": "contracts/TeggNFTTheta.sol:TeggNFTTheta",
                "label": "_tokenOwners",
                "offset": 0,
                "slot": "2",
                "type": "t_struct(UintToAddressMap)3874_storage"
            },
            {
                "astId": 4566,
                "contract": "contracts/TeggNFTTheta.sol:TeggNFTTheta",
                "label": "_tokenApprovals",
                "offset": 0,
                "slot": "5",
                "type": "t_mapping(t_uint256,t_address)"
            },
            {
                "astId": 4572,
                "contract": "contracts/TeggNFTTheta.sol:TeggNFTTheta",
                "label": "_operatorApprovals",
                "offset": 0,
                "slot": "6",
                "type": "t_mapping(t_address,t_mapping(t_address,t_bool))"
            },
            {
                "astId": 4574,
                "contract": "contracts/TeggNFTTheta.sol:TeggNFTTheta",
                "label": "_name",
                "offset": 0,
                "slot": "7",
                "type": "t_string_storage"
            },
            {
                "astId": 4576,
                "contract": "contracts/TeggNFTTheta.sol:TeggNFTTheta",
                "label": "_symbol",
                "offset": 0,
                "slot": "8",
                "type": "t_string_storage"
            },
            {
                "astId": 4580,
                "contract": "contracts/TeggNFTTheta.sol:TeggNFTTheta",
                "label": "_tokenURIs",
                "offset": 0,
                "slot": "9",
                "type": "t_mapping(t_uint256,t_string_storage)"
            },
            {
                "astId": 4582,
                "contract": "contracts/TeggNFTTheta.sol:TeggNFTTheta",
                "label": "_baseURI",
                "offset": 0,
                "slot": "10",
                "type": "t_string_storage"
            },
            {
                "astId": 5420,
                "contract": "contracts/TeggNFTTheta.sol:TeggNFTTheta",
                "label": "_owner",
                "offset": 0,
                "slot": "11",
                "type": "t_address"
            },
            {
                "astId": 5574,
                "contract": "contracts/TeggNFTTheta.sol:TeggNFTTheta",
                "label": "teggNFTz",
                "offset": 0,
                "slot": "12",
                "type": "t_array(t_uint256)dyn_storage"
            },
            {
                "astId": 5577,
                "contract": "contracts/TeggNFTTheta.sol:TeggNFTTheta",
                "label": "hatchTime",
                "offset": 0,
                "slot": "13",
                "type": "t_uint256"
            },
            {
                "astId": 5579,
                "contract": "contracts/TeggNFTTheta.sol:TeggNFTTheta",
                "label": "HatchTime",
                "offset": 0,
                "slot": "14",
                "type": "t_uint256"
            },
            {
                "astId": 5581,
                "contract": "contracts/TeggNFTTheta.sol:TeggNFTTheta",
                "label": "tokenCounter",
                "offset": 0,
                "slot": "15",
                "type": "t_uint256"
            },
            {
                "astId": 5583,
                "contract": "contracts/TeggNFTTheta.sol:TeggNFTTheta",
                "label": "eggImageURI",
                "offset": 0,
                "slot": "16",
                "type": "t_string_storage"
            },
            {
                "astId": 5585,
                "contract": "contracts/TeggNFTTheta.sol:TeggNFTTheta",
                "label": "hatchImageURI",
                "offset": 0,
                "slot": "17",
                "type": "t_string_storage"
            },
            {
                "astId": 5588,
                "contract": "contracts/TeggNFTTheta.sol:TeggNFTTheta",
                "label": "hatchFee",
                "offset": 0,
                "slot": "18",
                "type": "t_uint256"
            },
            {
                "astId": 5592,
                "contract": "contracts/TeggNFTTheta.sol:TeggNFTTheta",
                "label": "tokenIdToHatchTimer",
                "offset": 0,
                "slot": "19",
                "type": "t_mapping(t_uint256,t_uint256)"
            }
        ],
        "types": {
            "t_address": {
                "encoding": "inplace",
                "label": "address",
                "numberOfBytes": "20"
            },
            "t_array(t_bytes32)dyn_storage": {
                "base": "t_bytes32",
                "encoding": "dynamic_array",
                "label": "bytes32[]",
                "numberOfBytes": "32"
            },
            "t_array(t_uint256)dyn_storage": {
                "base": "t_uint256",
                "encoding": "dynamic_array",
                "label": "uint256[]",
                "numberOfBytes": "32"
            },
            "t_bool": {
                "encoding": "inplace",
                "label": "bool",
                "numberOfBytes": "1"
            },
            "t_bytes32": {
                "encoding": "inplace",
                "label": "bytes32",
                "numberOfBytes": "32"
            },
            "t_bytes4": {
                "encoding": "inplace",
                "label": "bytes4",
                "numberOfBytes": "4"
            },
            "t_mapping(t_address,t_bool)": {
                "encoding": "mapping",
                "key": "t_address",
                "label": "mapping(address => bool)",
                "numberOfBytes": "32",
                "value": "t_bool"
            },
            "t_mapping(t_address,t_mapping(t_address,t_bool))": {
                "encoding": "mapping",
                "key": "t_address",
                "label": "mapping(address => mapping(address => bool))",
                "numberOfBytes": "32",
                "value": "t_mapping(t_address,t_bool)"
            },
            "t_mapping(t_address,t_struct(UintSet)3502_storage)": {
                "encoding": "mapping",
                "key": "t_address",
                "label": "mapping(address => struct EnumerableSet.UintSet)",
                "numberOfBytes": "32",
                "value": "t_struct(UintSet)3502_storage"
            },
            "t_mapping(t_bytes32,t_bytes32)": {
                "encoding": "mapping",
                "key": "t_bytes32",
                "label": "mapping(bytes32 => bytes32)",
                "numberOfBytes": "32",
                "value": "t_bytes32"
            },
            "t_mapping(t_bytes32,t_uint256)": {
                "encoding": "mapping",
                "key": "t_bytes32",
                "label": "mapping(bytes32 => uint256)",
                "numberOfBytes": "32",
                "value": "t_uint256"
            },
            "t_mapping(t_bytes4,t_bool)": {
                "encoding": "mapping",
                "key": "t_bytes4",
                "label": "mapping(bytes4 => bool)",
                "numberOfBytes": "32",
                "value": "t_bool"
            },
            "t_mapping(t_uint256,t_address)": {
                "encoding": "mapping",
                "key": "t_uint256",
                "label": "mapping(uint256 => address)",
                "numberOfBytes": "32",
                "value": "t_address"
            },
            "t_mapping(t_uint256,t_string_storage)": {
                "encoding": "mapping",
                "key": "t_uint256",
                "label": "mapping(uint256 => string)",
                "numberOfBytes": "32",
                "value": "t_string_storage"
            },
            "t_mapping(t_uint256,t_uint256)": {
                "encoding": "mapping",
                "key": "t_uint256",
                "label": "mapping(uint256 => uint256)",
                "numberOfBytes": "32",
                "value": "t_uint256"
            },
            "t_string_storage": {
                "encoding": "bytes",
                "label": "string",
                "numberOfBytes": "32"
            },
            "t_struct(Bytes32Set)3238_storage": {
                "encoding": "inplace",
                "label": "struct EnumerableSet.Bytes32Set",
                "members": [
                    {
                        "astId": 3237,
                        "contract": "contracts/TeggNFTTheta.sol:TeggNFTTheta",
                        "label": "_inner",
                        "offset": 0,
                        "slot": "0",
                        "type": "t_struct(Set)3044_storage"
                    }
                ],
                "numberOfBytes": "64"
            },
            "t_struct(Map)3644_storage": {
                "encoding": "inplace",
                "label": "struct EnumerableMap.Map",
                "members": [
                    {
                        "astId": 3639,
                        "contract": "contracts/TeggNFTTheta.sol:TeggNFTTheta",
                        "label": "_keys",
                        "offset": 0,
                        "slot": "0",
                        "type": "t_struct(Bytes32Set)3238_storage"
                    },
                    {
                        "astId": 3643,
                        "contract": "contracts/TeggNFTTheta.sol:TeggNFTTheta",
                        "label": "_values",
                        "offset": 0,
                        "slot": "2",
                        "type": "t_mapping(t_bytes32,t_bytes32)"
                    }
                ],
                "numberOfBytes": "96"
            },
            "t_struct(Set)3044_storage": {
                "encoding": "inplace",
                "label": "struct EnumerableSet.Set",
                "members": [
                    {
                        "astId": 3039,
                        "contract": "contracts/TeggNFTTheta.sol:TeggNFTTheta",
                        "label": "_values",
                        "offset": 0,
                        "slot": "0",
                        "type": "t_array(t_bytes32)dyn_storage"
                    },
                    {
                        "astId": 3043,
                        "contract": "contracts/TeggNFTTheta.sol:TeggNFTTheta",
                        "label": "_indexes",
                        "offset": 0,
                        "slot": "1",
                        "type": "t_mapping(t_bytes32,t_uint256)"
                    }
                ],
                "numberOfBytes": "64"
            },
            "t_struct(UintSet)3502_storage": {
                "encoding": "inplace",
                "label": "struct EnumerableSet.UintSet",
                "members": [
                    {
                        "astId": 3501,
                        "contract": "contracts/TeggNFTTheta.sol:TeggNFTTheta",
                        "label": "_inner",
                        "offset": 0,
                        "slot": "0",
                        "type": "t_struct(Set)3044_storage"
                    }
                ],
                "numberOfBytes": "64"
            },
            "t_struct(UintToAddressMap)3874_storage": {
                "encoding": "inplace",
                "label": "struct EnumerableMap.UintToAddressMap",
                "members": [
                    {
                        "astId": 3873,
                        "contract": "contracts/TeggNFTTheta.sol:TeggNFTTheta",
                        "label": "_inner",
                        "offset": 0,
                        "slot": "0",
                        "type": "t_struct(Map)3644_storage"
                    }
                ],
                "numberOfBytes": "96"
            },
            "t_uint256": {
                "encoding": "inplace",
                "label": "uint256",
                "numberOfBytes": "32"
            }
        }
    }
}