{
    "address": "0x9874b692667916f31c6471386Ac7EA2B232CE345",
    "abi": [
        {
            "inputs": [],
            "stateMutability": "nonpayable",
            "type": "constructor"
        },
        {
            "anonymous": false,
            "inputs": [
                {
                    "indexed": true,
                    "internalType": "address",
                    "name": "owner",
                    "type": "address"
                },
                {
                    "indexed": true,
                    "internalType": "address",
                    "name": "approved",
                    "type": "address"
                },
                {
                    "indexed": true,
                    "internalType": "uint256",
                    "name": "tokenId",
                    "type": "uint256"
                }
            ],
            "name": "Approval",
            "type": "event"
        },
        {
            "anonymous": false,
            "inputs": [
                {
                    "indexed": true,
                    "internalType": "address",
                    "name": "owner",
                    "type": "address"
                },
                {
                    "indexed": true,
                    "internalType": "address",
                    "name": "operator",
                    "type": "address"
                },
                {
                    "indexed": false,
                    "internalType": "bool",
                    "name": "approved",
                    "type": "bool"
                }
            ],
            "name": "ApprovalForAll",
            "type": "event"
        },
        {
            "anonymous": false,
            "inputs": [
                {
                    "indexed": true,
                    "internalType": "uint256",
                    "name": "tokenId",
                    "type": "uint256"
                },
                {
                    "indexed": true,
                    "internalType": "uint256",
                    "name": "HatchedTime",
                    "type": "uint256"
                }
            ],
            "name": "HatchedEggNFT",
            "type": "event"
        },
        {
            "anonymous": false,
            "inputs": [
                {
                    "indexed": true,
                    "internalType": "uint256",
                    "name": "tokenId",
                    "type": "uint256"
                },
                {
                    "indexed": true,
                    "internalType": "uint256",
                    "name": "HatchTime",
                    "type": "uint256"
                }
            ],
            "name": "LaidEggNFT",
            "type": "event"
        },
        {
            "anonymous": false,
            "inputs": [
                {
                    "indexed": true,
                    "internalType": "address",
                    "name": "previousOwner",
                    "type": "address"
                },
                {
                    "indexed": true,
                    "internalType": "address",
                    "name": "newOwner",
                    "type": "address"
                }
            ],
            "name": "OwnershipTransferred",
            "type": "event"
        },
        {
            "anonymous": false,
            "inputs": [
                {
                    "indexed": true,
                    "internalType": "address",
                    "name": "from",
                    "type": "address"
                },
                {
                    "indexed": true,
                    "internalType": "address",
                    "name": "to",
                    "type": "address"
                },
                {
                    "indexed": true,
                    "internalType": "uint256",
                    "name": "tokenId",
                    "type": "uint256"
                }
            ],
            "name": "Transfer",
            "type": "event"
        },
        {
            "inputs": [],
            "name": "HatchTime",
            "outputs": [
                {
                    "internalType": "uint256",
                    "name": "",
                    "type": "uint256"
                }
            ],
            "stateMutability": "view",
            "type": "function"
        },
        {
            "inputs": [
                {
                    "internalType": "uint256",
                    "name": "tokenId",
                    "type": "uint256"
                }
            ],
            "name": "ResetTimer",
            "outputs": [],
            "stateMutability": "nonpayable",
            "type": "function"
        },
        {
            "inputs": [
                {
                    "internalType": "string",
                    "name": "_svgEggRaw",
                    "type": "string"
                }
            ],
            "name": "addEggSVG",
            "outputs": [],
            "stateMutability": "nonpayable",
            "type": "function"
        },
        {
            "inputs": [
                {
                    "internalType": "string",
                    "name": "_svgEggURI",
                    "type": "string"
                }
            ],
            "name": "addEggURI",
            "outputs": [],
            "stateMutability": "nonpayable",
            "type": "function"
        },
        {
            "inputs": [
                {
                    "internalType": "string",
                    "name": "_svgHatchRaw",
                    "type": "string"
                }
            ],
            "name": "addHatchSVG",
            "outputs": [],
            "stateMutability": "nonpayable",
            "type": "function"
        },
        {
            "inputs": [
                {
                    "internalType": "string",
                    "name": "_svgHatchURI",
                    "type": "string"
                }
            ],
            "name": "addHatchURI",
            "outputs": [],
            "stateMutability": "nonpayable",
            "type": "function"
        },
        {
            "inputs": [
                {
                    "internalType": "address",
                    "name": "to",
                    "type": "address"
                },
                {
                    "internalType": "uint256",
                    "name": "tokenId",
                    "type": "uint256"
                }
            ],
            "name": "approve",
            "outputs": [],
            "stateMutability": "nonpayable",
            "type": "function"
        },
        {
            "inputs": [
                {
                    "internalType": "address",
                    "name": "owner",
                    "type": "address"
                }
            ],
            "name": "balanceOf",
            "outputs": [
                {
                    "internalType": "uint256",
                    "name": "",
                    "type": "uint256"
                }
            ],
            "stateMutability": "view",
            "type": "function"
        },
        {
            "inputs": [
                {
                    "internalType": "uint256",
                    "name": "tokenId",
                    "type": "uint256"
                }
            ],
            "name": "bless",
            "outputs": [],
            "stateMutability": "nonpayable",
            "type": "function"
        },
        {
            "inputs": [],
            "name": "create",
            "outputs": [],
            "stateMutability": "nonpayable",
            "type": "function"
        },
        {
            "inputs": [],
            "name": "eggImageURI",
            "outputs": [
                {
                    "internalType": "string",
                    "name": "",
                    "type": "string"
                }
            ],
            "stateMutability": "view",
            "type": "function"
        },
        {
            "inputs": [
                {
                    "internalType": "uint256",
                    "name": "tokenId",
                    "type": "uint256"
                }
            ],
            "name": "getApproved",
            "outputs": [
                {
                    "internalType": "address",
                    "name": "",
                    "type": "address"
                }
            ],
            "stateMutability": "view",
            "type": "function"
        },
        {
            "inputs": [],
            "name": "getTokenCounter",
            "outputs": [
                {
                    "internalType": "uint256",
                    "name": "",
                    "type": "uint256"
                }
            ],
            "stateMutability": "view",
            "type": "function"
        },
        {
            "inputs": [
                {
                    "internalType": "uint256",
                    "name": "tokenId",
                    "type": "uint256"
                }
            ],
            "name": "hatchEgg",
            "outputs": [],
            "stateMutability": "payable",
            "type": "function"
        },
        {
            "inputs": [],
            "name": "hatchFee",
            "outputs": [
                {
                    "internalType": "uint256",
                    "name": "",
                    "type": "uint256"
                }
            ],
            "stateMutability": "view",
            "type": "function"
        },
        {
            "inputs": [],
            "name": "hatchTime",
            "outputs": [
                {
                    "internalType": "uint256",
                    "name": "",
                    "type": "uint256"
                }
            ],
            "stateMutability": "view",
            "type": "function"
        },
        {
            "inputs": [
                {
                    "internalType": "address",
                    "name": "owner",
                    "type": "address"
                },
                {
                    "internalType": "address",
                    "name": "operator",
                    "type": "address"
                }
            ],
            "name": "isApprovedForAll",
            "outputs": [
                {
                    "internalType": "bool",
                    "name": "",
                    "type": "bool"
                }
            ],
            "stateMutability": "view",
            "type": "function"
        },
        {
            "inputs": [],
            "name": "name",
            "outputs": [
                {
                    "internalType": "string",
                    "name": "",
                    "type": "string"
                }
            ],
            "stateMutability": "view",
            "type": "function"
        },
        {
            "inputs": [],
            "name": "owner",
            "outputs": [
                {
                    "internalType": "address",
                    "name": "",
                    "type": "address"
                }
            ],
            "stateMutability": "view",
            "type": "function"
        },
        {
            "inputs": [
                {
                    "internalType": "uint256",
                    "name": "tokenId",
                    "type": "uint256"
                }
            ],
            "name": "ownerOf",
            "outputs": [
                {
                    "internalType": "address",
                    "name": "",
                    "type": "address"
                }
            ],
            "stateMutability": "view",
            "type": "function"
        },
        {
            "inputs": [],
            "name": "renounceOwnership",
            "outputs": [],
            "stateMutability": "nonpayable",
            "type": "function"
        },
        {
            "inputs": [
                {
                    "internalType": "address",
                    "name": "from",
                    "type": "address"
                },
                {
                    "internalType": "address",
                    "name": "to",
                    "type": "address"
                },
                {
                    "internalType": "uint256",
                    "name": "tokenId",
                    "type": "uint256"
                }
            ],
            "name": "safeTransferFrom",
            "outputs": [],
            "stateMutability": "nonpayable",
            "type": "function"
        },
        {
            "inputs": [
                {
                    "internalType": "address",
                    "name": "from",
                    "type": "address"
                },
                {
                    "internalType": "address",
                    "name": "to",
                    "type": "address"
                },
                {
                    "internalType": "uint256",
                    "name": "tokenId",
                    "type": "uint256"
                },
                {
                    "internalType": "bytes",
                    "name": "_data",
                    "type": "bytes"
                }
            ],
            "name": "safeTransferFrom",
            "outputs": [],
            "stateMutability": "nonpayable",
            "type": "function"
        },
        {
            "inputs": [
                {
                    "internalType": "address",
                    "name": "operator",
                    "type": "address"
                },
                {
                    "internalType": "bool",
                    "name": "approved",
                    "type": "bool"
                }
            ],
            "name": "setApprovalForAll",
            "outputs": [],
            "stateMutability": "nonpayable",
            "type": "function"
        },
        {
            "inputs": [
                {
                    "internalType": "uint256",
                    "name": "_fee",
                    "type": "uint256"
                }
            ],
            "name": "setHatchFee",
            "outputs": [],
            "stateMutability": "nonpayable",
            "type": "function"
        },
        {
            "inputs": [
                {
                    "internalType": "bytes4",
                    "name": "interfaceId",
                    "type": "bytes4"
                }
            ],
            "name": "supportsInterface",
            "outputs": [
                {
                    "internalType": "bool",
                    "name": "",
                    "type": "bool"
                }
            ],
            "stateMutability": "view",
            "type": "function"
        },
        {
            "inputs": [
                {
                    "internalType": "string",
                    "name": "svg",
                    "type": "string"
                }
            ],
            "name": "svgToImageURI",
            "outputs": [
                {
                    "internalType": "string",
                    "name": "",
                    "type": "string"
                }
            ],
            "stateMutability": "pure",
            "type": "function"
        },
        {
            "inputs": [],
            "name": "symbol",
            "outputs": [
                {
                    "internalType": "string",
                    "name": "",
                    "type": "string"
                }
            ],
            "stateMutability": "view",
            "type": "function"
        },
        {
            "inputs": [],
            "name": "tokenCounter",
            "outputs": [
                {
                    "internalType": "uint256",
                    "name": "",
                    "type": "uint256"
                }
            ],
            "stateMutability": "view",
            "type": "function"
        },
        {
            "inputs": [
                {
                    "internalType": "uint256",
                    "name": "",
                    "type": "uint256"
                }
            ],
            "name": "tokenIdToHatchTimer",
            "outputs": [
                {
                    "internalType": "uint256",
                    "name": "",
                    "type": "uint256"
                }
            ],
            "stateMutability": "view",
            "type": "function"
        },
        {
            "inputs": [
                {
                    "internalType": "uint256",
                    "name": "tokenId",
                    "type": "uint256"
                }
            ],
            "name": "tokenURI",
            "outputs": [
                {
                    "internalType": "string",
                    "name": "",
                    "type": "string"
                }
            ],
            "stateMutability": "view",
            "type": "function"
        },
        {
            "inputs": [
                {
                    "internalType": "address",
                    "name": "from",
                    "type": "address"
                },
                {
                    "internalType": "address",
                    "name": "to",
                    "type": "address"
                },
                {
                    "internalType": "uint256",
                    "name": "tokenId",
                    "type": "uint256"
                }
            ],
            "name": "transferFrom",
            "outputs": [],
            "stateMutability": "nonpayable",
            "type": "function"
        },
        {
            "inputs": [
                {
                    "internalType": "address",
                    "name": "newOwner",
                    "type": "address"
                }
            ],
            "name": "transferOwnership",
            "outputs": [],
            "stateMutability": "nonpayable",
            "type": "function"
        },
        {
            "inputs": [],
            "name": "withdraw",
            "outputs": [],
            "stateMutability": "nonpayable",
            "type": "function"
        }
    ],
    "transactionHash": "0x57e6e5500eac8a905d49496743c23d322a1bbac382ad78c8c32ba090c566f6f3",
    "args": [],
    "solcInputHash": "d64c2c20efe6d0481ae38bf92303a969",
    "bytecode": "0x60806040526301da9c0060075567016345785d8a0000600c553480156200002557600080fd5b506040518060400160405280600d81526020017f546865746120456767204e4654000000000000000000000000000000000000008152506040518060400160405280600481526020017f54454747000000000000000000000000000000000000000000000000000000008152508160009080519060200190620000aa929190620001c2565b508060019080519060200190620000c3929190620001c2565b505050620000e6620000da620000f460201b60201c565b620000fc60201b60201c565b6000600981905550620002d7565b600033905090565b6000600660009054906101000a900473ffffffffffffffffffffffffffffffffffffffff16905081600660006101000a81548173ffffffffffffffffffffffffffffffffffffffff021916908373ffffffffffffffffffffffffffffffffffffffff1602179055508173ffffffffffffffffffffffffffffffffffffffff168173ffffffffffffffffffffffffffffffffffffffff167f8be0079c531659141344cd1fd0a4f28419497f9722a3daafe3b4186f6b6457e060405160405180910390a35050565b828054620001d09062000272565b90600052602060002090601f016020900481019282620001f4576000855562000240565b82601f106200020f57805160ff191683800117855562000240565b8280016001018555821562000240579182015b828111156200023f57825182559160200191906001019062000222565b5b5090506200024f919062000253565b5090565b5b808211156200026e57600081600090555060010162000254565b5090565b600060028204905060018216806200028b57607f821691505b60208210811415620002a257620002a1620002a8565b5b50919050565b7f4e487b7100000000000000000000000000000000000000000000000000000000600052602260045260246000fd5b613dc980620002e76000396000f3fe6080604052600436106101f95760003560e01c80638da5cb5b1161010d578063c5925a5e116100a0578063e985e9c51161006f578063e985e9c51461070e578063efc81a8c1461074b578063f2fde38b14610762578063f3d341881461078b578063fc537fd6146107b4576101f9565b8063c5925a5e14610652578063c71d8bad1461067b578063c87b56dd146106a6578063d082e381146106e3576101f9565b8063a2836a29116100dc578063a2836a29146105ac578063a9ef0f5a146105d5578063b88d4fde14610600578063c15f534214610629576101f9565b80638da5cb5b1461050457806395d89b411461052f5780639f0fff9e1461055a578063a22cb46514610583576101f9565b80633ccfd60b116101905780636352211e1161015f5780636352211e1461040b5780636e02007d1461044857806370a0823114610473578063715018a6146104b05780638631f9dd146104c7576101f9565b80633ccfd60b1461037757806342842e0e1461038e57806348eaff74146103b75780634f8c79f8146103e2576101f9565b8063095ea7b3116101cc578063095ea7b3146102cc5780632385554c146102f557806323b872dd1461031157806330d871c61461033a576101f9565b806301ffc9a7146101fe57806306fdde031461023b5780630780c41414610266578063081812fc1461028f575b600080fd5b34801561020a57600080fd5b5061022560048036038101906102209190612bd4565b6107df565b60405161023291906136a1565b60405180910390f35b34801561024757600080fd5b506102506108c1565b60405161025d91906136bc565b60405180910390f35b34801561027257600080fd5b5061028d60048036038101906102889190612c26565b610953565b005b34801561029b57600080fd5b506102b660048036038101906102b19190612c67565b6109e9565b6040516102c3919061363a565b60405180910390f35b3480156102d857600080fd5b506102f360048036038101906102ee9190612b98565b610a6e565b005b61030f600480360381019061030a9190612c67565b610b86565b005b34801561031d57600080fd5b5061033860048036038101906103339190612a92565b610d49565b005b34801561034657600080fd5b50610361600480360381019061035c9190612c26565b610da9565b60405161036e91906136bc565b60405180910390f35b34801561038357600080fd5b5061038c610e3c565b005b34801561039a57600080fd5b506103b560048036038101906103b09190612a92565b610f0e565b005b3480156103c357600080fd5b506103cc610f2e565b6040516103d9919061393e565b60405180910390f35b3480156103ee57600080fd5b5061040960048036038101906104049190612c67565b610f34565b005b34801561041757600080fd5b50610432600480360381019061042d9190612c67565b610fba565b60405161043f919061363a565b60405180910390f35b34801561045457600080fd5b5061045d61106c565b60405161046a919061393e565b60405180910390f35b34801561047f57600080fd5b5061049a60048036038101906104959190612a2d565b611076565b6040516104a7919061393e565b60405180910390f35b3480156104bc57600080fd5b506104c561112e565b005b3480156104d357600080fd5b506104ee60048036038101906104e99190612c67565b6111b6565b6040516104fb919061393e565b60405180910390f35b34801561051057600080fd5b506105196111ce565b604051610526919061363a565b60405180910390f35b34801561053b57600080fd5b506105446111f8565b60405161055191906136bc565b60405180910390f35b34801561056657600080fd5b50610581600480360381019061057c9190612c26565b61128a565b005b34801561058f57600080fd5b506105aa60048036038101906105a59190612b5c565b611320565b005b3480156105b857600080fd5b506105d360048036038101906105ce9190612c26565b6114a1565b005b3480156105e157600080fd5b506105ea611537565b6040516105f791906136bc565b60405180910390f35b34801561060c57600080fd5b5061062760048036038101906106229190612ae1565b6115c5565b005b34801561063557600080fd5b50610650600480360381019061064b9190612c67565b611627565b005b34801561065e57600080fd5b5061067960048036038101906106749190612c26565b611713565b005b34801561068757600080fd5b506106906117a9565b60405161069d919061393e565b60405180910390f35b3480156106b257600080fd5b506106cd60048036038101906106c89190612c67565b6117af565b6040516106da91906136bc565b60405180910390f35b3480156106ef57600080fd5b506106f861197f565b604051610705919061393e565b60405180910390f35b34801561071a57600080fd5b5061073560048036038101906107309190612a56565b611985565b60405161074291906136a1565b60405180910390f35b34801561075757600080fd5b50610760611a19565b005b34801561076e57600080fd5b5061078960048036038101906107849190612a2d565b611ab1565b005b34801561079757600080fd5b506107b260048036038101906107ad9190612c67565b611ba9565b005b3480156107c057600080fd5b506107c9611cb7565b6040516107d6919061393e565b60405180910390f35b60007f80ac58cd000000000000000000000000000000000000000000000000000000007bffffffffffffffffffffffffffffffffffffffffffffffffffffffff1916827bffffffffffffffffffffffffffffffffffffffffffffffffffffffff191614806108aa57507f5b5e139f000000000000000000000000000000000000000000000000000000007bffffffffffffffffffffffffffffffffffffffffffffffffffffffff1916827bffffffffffffffffffffffffffffffffffffffffffffffffffffffff1916145b806108ba57506108b982611cbd565b5b9050919050565b6060600080546108d090613bf8565b80601f01602080910402602001604051908101604052809291908181526020018280546108fc90613bf8565b80156109495780601f1061091e57610100808354040283529160200191610949565b820191906000526020600020905b81548152906001019060200180831161092c57829003601f168201915b5050505050905090565b61095b611d27565b73ffffffffffffffffffffffffffffffffffffffff166109796111ce565b73ffffffffffffffffffffffffffffffffffffffff16146109cf576040517f08c379a00000000000000000000000000000000000000000000000000000000081526004016109c69061385e565b60405180910390fd5b80600b90805190602001906109e5929190612851565b5050565b60006109f482611d2f565b610a33576040517f08c379a0000000000000000000000000000000000000000000000000000000008152600401610a2a9061383e565b60405180910390fd5b6004600083815260200190815260200160002060009054906101000a900473ffffffffffffffffffffffffffffffffffffffff169050919050565b6000610a7982610fba565b90508073ffffffffffffffffffffffffffffffffffffffff168373ffffffffffffffffffffffffffffffffffffffff161415610aea576040517f08c379a0000000000000000000000000000000000000000000000000000000008152600401610ae1906138be565b60405180910390fd5b8073ffffffffffffffffffffffffffffffffffffffff16610b09611d27565b73ffffffffffffffffffffffffffffffffffffffff161480610b385750610b3781610b32611d27565b611985565b5b610b77576040517f08c379a0000000000000000000000000000000000000000000000000000000008152600401610b6e9061379e565b60405180910390fd5b610b818383611d9b565b505050565b6000600d6000838152602001908152602001600020541415610bdd576040517f08c379a0000000000000000000000000000000000000000000000000000000008152600401610bd4906138fe565b60405180910390fd5b600d600082815260200190815260200160002054421115610c33576040517f08c379a0000000000000000000000000000000000000000000000000000000008152600401610c2a906137fe565b60405180910390fd5b610c3c81611d2f565b610c7b576040517f08c379a0000000000000000000000000000000000000000000000000000000008152600401610c729061389e565b60405180910390fd5b610c8481610fba565b73ffffffffffffffffffffffffffffffffffffffff163373ffffffffffffffffffffffffffffffffffffffff1614610cf1576040517f08c379a0000000000000000000000000000000000000000000000000000000008152600401610ce89061391e565b60405180910390fd5b600c543414610cff57600080fd5b6000600d60008381526020019081526020016000208190555042817ff636f96ebae0f362bc673d465a964fbbadbe24117ddf2e6e8083b1e51fabe5ff60405160405180910390a350565b610d5a610d54611d27565b82611e54565b610d99576040517f08c379a0000000000000000000000000000000000000000000000000000000008152600401610d90906138de565b60405180910390fd5b610da4838383611f32565b505050565b606060006040518060400160405280601a81526020017f646174613a696d6167652f7376672b786d6c3b6261736536342c00000000000081525090506000610e0f84604051602001610dfb919061359a565b60405160208183030381529060405261218e565b90508181604051602001610e249291906135b1565b60405160208183030381529060405292505050919050565b610e44611d27565b73ffffffffffffffffffffffffffffffffffffffff16610e626111ce565b73ffffffffffffffffffffffffffffffffffffffff1614610eb8576040517f08c379a0000000000000000000000000000000000000000000000000000000008152600401610eaf9061385e565b60405180910390fd5b6000610ec26111ce565b90508073ffffffffffffffffffffffffffffffffffffffff166108fc479081150290604051600060405180830381858888f19350505050158015610f0a573d6000803e3d6000fd5b5050565b610f29838383604051806020016040528060008152506115c5565b505050565b60085481565b610f3c611d27565b73ffffffffffffffffffffffffffffffffffffffff16610f5a6111ce565b73ffffffffffffffffffffffffffffffffffffffff1614610fb0576040517f08c379a0000000000000000000000000000000000000000000000000000000008152600401610fa79061385e565b60405180910390fd5b80600c8190555050565b6000806002600084815260200190815260200160002060009054906101000a900473ffffffffffffffffffffffffffffffffffffffff169050600073ffffffffffffffffffffffffffffffffffffffff168173ffffffffffffffffffffffffffffffffffffffff161415611063576040517f08c379a000000000000000000000000000000000000000000000000000000000815260040161105a906137de565b60405180910390fd5b80915050919050565b6000600954905090565b60008073ffffffffffffffffffffffffffffffffffffffff168273ffffffffffffffffffffffffffffffffffffffff1614156110e7576040517f08c379a00000000000000000000000000000000000000000000000000000000081526004016110de906137be565b60405180910390fd5b600360008373ffffffffffffffffffffffffffffffffffffffff1673ffffffffffffffffffffffffffffffffffffffff168152602001908152602001600020549050919050565b611136611d27565b73ffffffffffffffffffffffffffffffffffffffff166111546111ce565b73ffffffffffffffffffffffffffffffffffffffff16146111aa576040517f08c379a00000000000000000000000000000000000000000000000000000000081526004016111a19061385e565b60405180910390fd5b6111b46000612339565b565b600d6020528060005260406000206000915090505481565b6000600660009054906101000a900473ffffffffffffffffffffffffffffffffffffffff16905090565b60606001805461120790613bf8565b80601f016020809104026020016040519081016040528092919081815260200182805461123390613bf8565b80156112805780601f1061125557610100808354040283529160200191611280565b820191906000526020600020905b81548152906001019060200180831161126357829003601f168201915b5050505050905090565b611292611d27565b73ffffffffffffffffffffffffffffffffffffffff166112b06111ce565b73ffffffffffffffffffffffffffffffffffffffff1614611306576040517f08c379a00000000000000000000000000000000000000000000000000000000081526004016112fd9061385e565b60405180910390fd5b80600a908051906020019061131c929190612851565b5050565b611328611d27565b73ffffffffffffffffffffffffffffffffffffffff168273ffffffffffffffffffffffffffffffffffffffff161415611396576040517f08c379a000000000000000000000000000000000000000000000000000000000815260040161138d9061375e565b60405180910390fd5b80600560006113a3611d27565b73ffffffffffffffffffffffffffffffffffffffff1673ffffffffffffffffffffffffffffffffffffffff16815260200190815260200160002060008473ffffffffffffffffffffffffffffffffffffffff1673ffffffffffffffffffffffffffffffffffffffff16815260200190815260200160002060006101000a81548160ff0219169083151502179055508173ffffffffffffffffffffffffffffffffffffffff16611450611d27565b73ffffffffffffffffffffffffffffffffffffffff167f17307eab39ab6107e8899845ad3d59bd9653f200f220920489ca2b5937696c318360405161149591906136a1565b60405180910390a35050565b6114a9611d27565b73ffffffffffffffffffffffffffffffffffffffff166114c76111ce565b73ffffffffffffffffffffffffffffffffffffffff161461151d576040517f08c379a00000000000000000000000000000000000000000000000000000000081526004016115149061385e565b60405180910390fd5b600061152882610da9565b905061153381610953565b5050565b600a805461154490613bf8565b80601f016020809104026020016040519081016040528092919081815260200182805461157090613bf8565b80156115bd5780601f10611592576101008083540402835291602001916115bd565b820191906000526020600020905b8154815290600101906020018083116115a057829003601f168201915b505050505081565b6115d66115d0611d27565b83611e54565b611615576040517f08c379a000000000000000000000000000000000000000000000000000000000815260040161160c906138de565b60405180910390fd5b611621848484846123ff565b50505050565b61162f611d27565b73ffffffffffffffffffffffffffffffffffffffff1661164d6111ce565b73ffffffffffffffffffffffffffffffffffffffff16146116a3576040517f08c379a000000000000000000000000000000000000000000000000000000000815260040161169a9061385e565b60405180910390fd5b6116ac81611d2f565b6116eb576040517f08c379a00000000000000000000000000000000000000000000000000000000081526004016116e29061389e565b60405180910390fd5b600754426116f99190613a2d565b600d60008381526020019081526020016000208190555050565b61171b611d27565b73ffffffffffffffffffffffffffffffffffffffff166117396111ce565b73ffffffffffffffffffffffffffffffffffffffff161461178f576040517f08c379a00000000000000000000000000000000000000000000000000000000081526004016117869061385e565b60405180910390fd5b600061179a82610da9565b90506117a58161128a565b5050565b60075481565b60606117ba82611d2f565b6117f9576040517f08c379a00000000000000000000000000000000000000000000000000000000081526004016117f09061389e565b60405180910390fd5b6000600a805461180890613bf8565b80601f016020809104026020016040519081016040528092919081815260200182805461183490613bf8565b80156118815780601f1061185657610100808354040283529160200191611881565b820191906000526020600020905b81548152906001019060200180831161186457829003601f168201915b50505050509050600d600084815260200190815260200160002054421061193057600b80546118af90613bf8565b80601f01602080910402602001604051908101604052809291908181526020018280546118db90613bf8565b80156119285780601f106118fd57610100808354040283529160200191611928565b820191906000526020600020905b81548152906001019060200180831161190b57829003601f168201915b505050505090505b6119588160405160200161194491906135d5565b60405160208183030381529060405261218e565b6040516020016119689190613618565b604051602081830303815290604052915050919050565b60095481565b6000600560008473ffffffffffffffffffffffffffffffffffffffff1673ffffffffffffffffffffffffffffffffffffffff16815260200190815260200160002060008373ffffffffffffffffffffffffffffffffffffffff1673ffffffffffffffffffffffffffffffffffffffff16815260200190815260200160002060009054906101000a900460ff16905092915050565b60075442611a279190613a2d565b600d6000600954815260200190815260200160002081905550600d60006009548152602001908152602001600020546008819055506008546009547f6e147ee04eee68681ef8b3fa0e84f5fcf026a98017bebc6cdf9190d174330c6b60405160405180910390a3611a9a3360095461245b565b6001600954611aa99190613a2d565b600981905550565b611ab9611d27565b73ffffffffffffffffffffffffffffffffffffffff16611ad76111ce565b73ffffffffffffffffffffffffffffffffffffffff1614611b2d576040517f08c379a0000000000000000000000000000000000000000000000000000000008152600401611b249061385e565b60405180910390fd5b600073ffffffffffffffffffffffffffffffffffffffff168173ffffffffffffffffffffffffffffffffffffffff161415611b9d576040517f08c379a0000000000000000000000000000000000000000000000000000000008152600401611b94906136fe565b60405180910390fd5b611ba681612339565b50565b611bb1611d27565b73ffffffffffffffffffffffffffffffffffffffff16611bcf6111ce565b73ffffffffffffffffffffffffffffffffffffffff1614611c25576040517f08c379a0000000000000000000000000000000000000000000000000000000008152600401611c1c9061385e565b60405180910390fd5b611c2e81611d2f565b611c6d576040517f08c379a0000000000000000000000000000000000000000000000000000000008152600401611c649061389e565b60405180910390fd5b6000600d60008381526020019081526020016000208190555042817ff636f96ebae0f362bc673d465a964fbbadbe24117ddf2e6e8083b1e51fabe5ff60405160405180910390a350565b600c5481565b60007f01ffc9a7000000000000000000000000000000000000000000000000000000007bffffffffffffffffffffffffffffffffffffffffffffffffffffffff1916827bffffffffffffffffffffffffffffffffffffffffffffffffffffffff1916149050919050565b600033905090565b60008073ffffffffffffffffffffffffffffffffffffffff166002600084815260200190815260200160002060009054906101000a900473ffffffffffffffffffffffffffffffffffffffff1673ffffffffffffffffffffffffffffffffffffffff1614159050919050565b816004600083815260200190815260200160002060006101000a81548173ffffffffffffffffffffffffffffffffffffffff021916908373ffffffffffffffffffffffffffffffffffffffff160217905550808273ffffffffffffffffffffffffffffffffffffffff16611e0e83610fba565b73ffffffffffffffffffffffffffffffffffffffff167f8c5be1e5ebec7d5bd14f71427d1e84f3dd0314c0f7b2291e5b200ac8c7c3b92560405160405180910390a45050565b6000611e5f82611d2f565b611e9e576040517f08c379a0000000000000000000000000000000000000000000000000000000008152600401611e959061377e565b60405180910390fd5b6000611ea983610fba565b90508073ffffffffffffffffffffffffffffffffffffffff168473ffffffffffffffffffffffffffffffffffffffff161480611f1857508373ffffffffffffffffffffffffffffffffffffffff16611f00846109e9565b73ffffffffffffffffffffffffffffffffffffffff16145b80611f295750611f288185611985565b5b91505092915050565b8273ffffffffffffffffffffffffffffffffffffffff16611f5282610fba565b73ffffffffffffffffffffffffffffffffffffffff1614611fa8576040517f08c379a0000000000000000000000000000000000000000000000000000000008152600401611f9f9061387e565b60405180910390fd5b600073ffffffffffffffffffffffffffffffffffffffff168273ffffffffffffffffffffffffffffffffffffffff161415612018576040517f08c379a000000000000000000000000000000000000000000000000000000000815260040161200f9061373e565b60405180910390fd5b612023838383612479565b61202e600082611d9b565b6001600360008573ffffffffffffffffffffffffffffffffffffffff1673ffffffffffffffffffffffffffffffffffffffff168152602001908152602001600020600082825461207e9190613b0e565b925050819055506001600360008473ffffffffffffffffffffffffffffffffffffffff1673ffffffffffffffffffffffffffffffffffffffff16815260200190815260200160002060008282546120d59190613a2d565b92505081905550816002600083815260200190815260200160002060006101000a81548173ffffffffffffffffffffffffffffffffffffffff021916908373ffffffffffffffffffffffffffffffffffffffff160217905550808273ffffffffffffffffffffffffffffffffffffffff168473ffffffffffffffffffffffffffffffffffffffff167fddf252ad1be2c89b69c2b068fc378daa952ba7f163c4a11628f55a4df523b3ef60405160405180910390a4505050565b60606000825114156121b157604051806020016040528060008152509050612334565b6000604051806060016040528060408152602001613d5460409139905060006003600285516121e09190613a2d565b6121ea9190613a83565b60046121f69190613ab4565b905060006020826122079190613a2d565b67ffffffffffffffff811115612246577f4e487b7100000000000000000000000000000000000000000000000000000000600052604160045260246000fd5b6040519080825280601f01601f1916602001820160405280156122785781602001600182028036833780820191505090505b509050818152600183018586518101602084015b818310156122f3576003830192508251603f8160121c1685015160f81b8252600182019150603f81600c1c1685015160f81b8252600182019150603f8160061c1685015160f81b8252600182019150603f811685015160f81b82526001820191505061228c565b60038951066001811461230d576002811461231d57612328565b613d3d60f01b6002830352612328565b603d60f81b60018303525b50505050508093505050505b919050565b6000600660009054906101000a900473ffffffffffffffffffffffffffffffffffffffff16905081600660006101000a81548173ffffffffffffffffffffffffffffffffffffffff021916908373ffffffffffffffffffffffffffffffffffffffff1602179055508173ffffffffffffffffffffffffffffffffffffffff168173ffffffffffffffffffffffffffffffffffffffff167f8be0079c531659141344cd1fd0a4f28419497f9722a3daafe3b4186f6b6457e060405160405180910390a35050565b61240a848484611f32565b6124168484848461247e565b612455576040517f08c379a000000000000000000000000000000000000000000000000000000000815260040161244c906136de565b60405180910390fd5b50505050565b612475828260405180602001604052806000815250612615565b5050565b505050565b600061249f8473ffffffffffffffffffffffffffffffffffffffff16612670565b15612608578373ffffffffffffffffffffffffffffffffffffffff1663150b7a026124c8611d27565b8786866040518563ffffffff1660e01b81526004016124ea9493929190613655565b602060405180830381600087803b15801561250457600080fd5b505af192505050801561253557506040513d601f19601f820116820180604052508101906125329190612bfd565b60015b6125b8573d8060008114612565576040519150601f19603f3d011682016040523d82523d6000602084013e61256a565b606091505b506000815114156125b0576040517f08c379a00000000000000000000000000000000000000000000000000000000081526004016125a7906136de565b60405180910390fd5b805181602001fd5b63150b7a0260e01b7bffffffffffffffffffffffffffffffffffffffffffffffffffffffff1916817bffffffffffffffffffffffffffffffffffffffffffffffffffffffff19161491505061260d565b600190505b949350505050565b61261f8383612683565b61262c600084848461247e565b61266b576040517f08c379a0000000000000000000000000000000000000000000000000000000008152600401612662906136de565b60405180910390fd5b505050565b600080823b905060008111915050919050565b600073ffffffffffffffffffffffffffffffffffffffff168273ffffffffffffffffffffffffffffffffffffffff1614156126f3576040517f08c379a00000000000000000000000000000000000000000000000000000000081526004016126ea9061381e565b60405180910390fd5b6126fc81611d2f565b1561273c576040517f08c379a00000000000000000000000000000000000000000000000000000000081526004016127339061371e565b60405180910390fd5b61274860008383612479565b6001600360008473ffffffffffffffffffffffffffffffffffffffff1673ffffffffffffffffffffffffffffffffffffffff16815260200190815260200160002060008282546127989190613a2d565b92505081905550816002600083815260200190815260200160002060006101000a81548173ffffffffffffffffffffffffffffffffffffffff021916908373ffffffffffffffffffffffffffffffffffffffff160217905550808273ffffffffffffffffffffffffffffffffffffffff16600073ffffffffffffffffffffffffffffffffffffffff167fddf252ad1be2c89b69c2b068fc378daa952ba7f163c4a11628f55a4df523b3ef60405160405180910390a45050565b82805461285d90613bf8565b90600052602060002090601f01602090048101928261287f57600085556128c6565b82601f1061289857805160ff19168380011785556128c6565b828001600101855582156128c6579182015b828111156128c55782518255916020019190600101906128aa565b5b5090506128d391906128d7565b5090565b5b808211156128f05760008160009055506001016128d8565b5090565b60006129076129028461398a565b613959565b90508281526020810184848401111561291f57600080fd5b61292a848285613bb6565b509392505050565b6000612945612940846139ba565b613959565b90508281526020810184848401111561295d57600080fd5b612968848285613bb6565b509392505050565b60008135905061297f81613cf7565b92915050565b60008135905061299481613d0e565b92915050565b6000813590506129a981613d25565b92915050565b6000815190506129be81613d25565b92915050565b600082601f8301126129d557600080fd5b81356129e58482602086016128f4565b91505092915050565b600082601f8301126129ff57600080fd5b8135612a0f848260208601612932565b91505092915050565b600081359050612a2781613d3c565b92915050565b600060208284031215612a3f57600080fd5b6000612a4d84828501612970565b91505092915050565b60008060408385031215612a6957600080fd5b6000612a7785828601612970565b9250506020612a8885828601612970565b9150509250929050565b600080600060608486031215612aa757600080fd5b6000612ab586828701612970565b9350506020612ac686828701612970565b9250506040612ad786828701612a18565b9150509250925092565b60008060008060808587031215612af757600080fd5b6000612b0587828801612970565b9450506020612b1687828801612970565b9350506040612b2787828801612a18565b925050606085013567ffffffffffffffff811115612b4457600080fd5b612b50878288016129c4565b91505092959194509250565b60008060408385031215612b6f57600080fd5b6000612b7d85828601612970565b9250506020612b8e85828601612985565b9150509250929050565b60008060408385031215612bab57600080fd5b6000612bb985828601612970565b9250506020612bca85828601612a18565b9150509250929050565b600060208284031215612be657600080fd5b6000612bf48482850161299a565b91505092915050565b600060208284031215612c0f57600080fd5b6000612c1d848285016129af565b91505092915050565b600060208284031215612c3857600080fd5b600082013567ffffffffffffffff811115612c5257600080fd5b612c5e848285016129ee565b91505092915050565b600060208284031215612c7957600080fd5b6000612c8784828501612a18565b91505092915050565b612c9981613b42565b82525050565b612ca881613b54565b82525050565b6000612cb9826139ea565b612cc38185613a00565b9350612cd3818560208601613bc5565b612cdc81613ce6565b840191505092915050565b6000612cf2826139f5565b612cfc8185613a11565b9350612d0c818560208601613bc5565b612d1581613ce6565b840191505092915050565b6000612d2b826139f5565b612d358185613a22565b9350612d45818560208601613bc5565b80840191505092915050565b6000612d5e600983613a22565b91507f7b226e616d65223a2200000000000000000000000000000000000000000000006000830152600982019050919050565b6000612d9e603283613a11565b91507f4552433732313a207472616e7366657220746f206e6f6e20455243373231526560008301527f63656976657220696d706c656d656e74657200000000000000000000000000006020830152604082019050919050565b6000612e04602683613a11565b91507f4f776e61626c653a206e6577206f776e657220697320746865207a65726f206160008301527f64647265737300000000000000000000000000000000000000000000000000006020830152604082019050919050565b6000612e6a601c83613a11565b91507f4552433732313a20746f6b656e20616c7265616479206d696e746564000000006000830152602082019050919050565b6000612eaa602483613a11565b91507f4552433732313a207472616e7366657220746f20746865207a65726f2061646460008301527f72657373000000000000000000000000000000000000000000000000000000006020830152604082019050919050565b6000612f10601983613a11565b91507f4552433732313a20617070726f766520746f2063616c6c6572000000000000006000830152602082019050919050565b6000612f50602c83613a11565b91507f4552433732313a206f70657261746f7220717565727920666f72206e6f6e657860008301527f697374656e7420746f6b656e00000000000000000000000000000000000000006020830152604082019050919050565b6000612fb6603883613a11565b91507f4552433732313a20617070726f76652063616c6c6572206973206e6f74206f7760008301527f6e6572206e6f7220617070726f76656420666f7220616c6c00000000000000006020830152604082019050919050565b600061301c602a83613a11565b91507f4552433732313a2062616c616e636520717565727920666f7220746865207a6560008301527f726f2061646472657373000000000000000000000000000000000000000000006020830152604082019050919050565b6000613082602983613a11565b91507f4552433732313a206f776e657220717565727920666f72206e6f6e657869737460008301527f656e7420746f6b656e00000000000000000000000000000000000000000000006020830152604082019050919050565b60006130e8602683613a11565b91507f596f7572206567672068617320616c7265616479206e61747572616c6c79206860008301527f61746368656400000000000000000000000000000000000000000000000000006020830152604082019050919050565b600061314e604783613a22565b91507f222c20226465736372697074696f6e223a22416e204e4654207468617420746860008301527f61742068617463686573222c202261747472696275746573223a22222c20226960208301527f6d616765223a22000000000000000000000000000000000000000000000000006040830152604782019050919050565b60006131da600283613a22565b91507f227d0000000000000000000000000000000000000000000000000000000000006000830152600282019050919050565b600061321a601083613a22565b91507f48616368696e672065676773204e4654000000000000000000000000000000006000830152601082019050919050565b600061325a602083613a11565b91507f4552433732313a206d696e7420746f20746865207a65726f20616464726573736000830152602082019050919050565b600061329a602c83613a11565b91507f4552433732313a20617070726f76656420717565727920666f72206e6f6e657860008301527f697374656e7420746f6b656e00000000000000000000000000000000000000006020830152604082019050919050565b6000613300602083613a11565b91507f4f776e61626c653a2063616c6c6572206973206e6f7420746865206f776e65726000830152602082019050919050565b6000613340602983613a11565b91507f4552433732313a207472616e73666572206f6620746f6b656e2074686174206960008301527f73206e6f74206f776e00000000000000000000000000000000000000000000006020830152604082019050919050565b60006133a6602f83613a11565b91507f4552433732314d657461646174613a2055524920717565727920666f72206e6f60008301527f6e6578697374656e7420746f6b656e00000000000000000000000000000000006020830152604082019050919050565b600061340c602183613a11565b91507f4552433732313a20617070726f76616c20746f2063757272656e74206f776e6560008301527f72000000000000000000000000000000000000000000000000000000000000006020830152604082019050919050565b6000613472601d83613a22565b91507f646174613a6170706c69636174696f6e2f6a736f6e3b6261736536342c0000006000830152601d82019050919050565b60006134b2603183613a11565b91507f4552433732313a207472616e736665722063616c6c6572206973206e6f74206f60008301527f776e6572206e6f7220617070726f7665640000000000000000000000000000006020830152604082019050919050565b6000613518601c83613a11565b91507f596f7520616c7265616479206861746368656420796f757220656767000000006000830152602082019050919050565b6000613558601d83613a11565b91507f4f776e657220646f6573206e6f74206f776e207468697320746f6b656e0000006000830152602082019050919050565b61359481613bac565b82525050565b60006135a68284612d20565b915081905092915050565b60006135bd8285612d20565b91506135c98284612d20565b91508190509392505050565b60006135e082612d51565b91506135eb8261320d565b91506135f682613141565b91506136028284612d20565b915061360d826131cd565b915081905092915050565b600061362382613465565b915061362f8284612d20565b915081905092915050565b600060208201905061364f6000830184612c90565b92915050565b600060808201905061366a6000830187612c90565b6136776020830186612c90565b613684604083018561358b565b81810360608301526136968184612cae565b905095945050505050565b60006020820190506136b66000830184612c9f565b92915050565b600060208201905081810360008301526136d68184612ce7565b905092915050565b600060208201905081810360008301526136f781612d91565b9050919050565b6000602082019050818103600083015261371781612df7565b9050919050565b6000602082019050818103600083015261373781612e5d565b9050919050565b6000602082019050818103600083015261375781612e9d565b9050919050565b6000602082019050818103600083015261377781612f03565b9050919050565b6000602082019050818103600083015261379781612f43565b9050919050565b600060208201905081810360008301526137b781612fa9565b9050919050565b600060208201905081810360008301526137d78161300f565b9050919050565b600060208201905081810360008301526137f781613075565b9050919050565b60006020820190508181036000830152613817816130db565b9050919050565b600060208201905081810360008301526138378161324d565b9050919050565b600060208201905081810360008301526138578161328d565b9050919050565b60006020820190508181036000830152613877816132f3565b9050919050565b6000602082019050818103600083015261389781613333565b9050919050565b600060208201905081810360008301526138b781613399565b9050919050565b600060208201905081810360008301526138d7816133ff565b9050919050565b600060208201905081810360008301526138f7816134a5565b9050919050565b600060208201905081810360008301526139178161350b565b9050919050565b600060208201905081810360008301526139378161354b565b9050919050565b6000602082019050613953600083018461358b565b92915050565b6000604051905081810181811067ffffffffffffffff821117156139805761397f613cb7565b5b8060405250919050565b600067ffffffffffffffff8211156139a5576139a4613cb7565b5b601f19601f8301169050602081019050919050565b600067ffffffffffffffff8211156139d5576139d4613cb7565b5b601f19601f8301169050602081019050919050565b600081519050919050565b600081519050919050565b600082825260208201905092915050565b600082825260208201905092915050565b600081905092915050565b6000613a3882613bac565b9150613a4383613bac565b9250827fffffffffffffffffffffffffffffffffffffffffffffffffffffffffffffffff03821115613a7857613a77613c2a565b5b828201905092915050565b6000613a8e82613bac565b9150613a9983613bac565b925082613aa957613aa8613c59565b5b828204905092915050565b6000613abf82613bac565b9150613aca83613bac565b9250817fffffffffffffffffffffffffffffffffffffffffffffffffffffffffffffffff0483118215151615613b0357613b02613c2a565b5b828202905092915050565b6000613b1982613bac565b9150613b2483613bac565b925082821015613b3757613b36613c2a565b5b828203905092915050565b6000613b4d82613b8c565b9050919050565b60008115159050919050565b60007fffffffff0000000000000000000000000000000000000000000000000000000082169050919050565b600073ffffffffffffffffffffffffffffffffffffffff82169050919050565b6000819050919050565b82818337600083830152505050565b60005b83811015613be3578082015181840152602081019050613bc8565b83811115613bf2576000848401525b50505050565b60006002820490506001821680613c1057607f821691505b60208210811415613c2457613c23613c88565b5b50919050565b7f4e487b7100000000000000000000000000000000000000000000000000000000600052601160045260246000fd5b7f4e487b7100000000000000000000000000000000000000000000000000000000600052601260045260246000fd5b7f4e487b7100000000000000000000000000000000000000000000000000000000600052602260045260246000fd5b7f4e487b7100000000000000000000000000000000000000000000000000000000600052604160045260246000fd5b6000601f19601f8301169050919050565b613d0081613b42565b8114613d0b57600080fd5b50565b613d1781613b54565b8114613d2257600080fd5b50565b613d2e81613b60565b8114613d3957600080fd5b50565b613d4581613bac565b8114613d5057600080fd5b5056fe4142434445464748494a4b4c4d4e4f505152535455565758595a6162636465666768696a6b6c6d6e6f707172737475767778797a303132333435363738392b2fa26469706673582212201936b05301d5a2eba217c75733ee90562abb089428419072938fb8a5f629525b64736f6c63430008000033",
    "devdoc": {
        "kind": "dev",
        "methods": {
            "approve(address,uint256)": {
                "details": "See {IERC721-approve}."
            },
            "balanceOf(address)": {
                "details": "See {IERC721-balanceOf}."
            },
            "getApproved(uint256)": {
                "details": "See {IERC721-getApproved}."
            },
            "isApprovedForAll(address,address)": {
                "details": "See {IERC721-isApprovedForAll}."
            },
            "name()": {
                "details": "See {IERC721Metadata-name}."
            },
            "owner()": {
                "details": "Returns the address of the current owner."
            },
            "ownerOf(uint256)": {
                "details": "See {IERC721-ownerOf}."
            },
            "renounceOwnership()": {
                "details": "Leaves the contract without owner. It will not be possible to call `onlyOwner` functions anymore. Can only be called by the current owner. NOTE: Renouncing ownership will leave the contract without an owner, thereby removing any functionality that is only available to the owner."
            },
            "safeTransferFrom(address,address,uint256)": {
                "details": "See {IERC721-safeTransferFrom}."
            },
            "safeTransferFrom(address,address,uint256,bytes)": {
                "details": "See {IERC721-safeTransferFrom}."
            },
            "setApprovalForAll(address,bool)": {
                "details": "See {IERC721-setApprovalForAll}."
            },
            "supportsInterface(bytes4)": {
                "details": "See {IERC165-supportsInterface}."
            },
            "symbol()": {
                "details": "See {IERC721Metadata-symbol}."
            },
            "tokenURI(uint256)": {
                "details": "See {IERC721Metadata-tokenURI}."
            },
            "transferFrom(address,address,uint256)": {
                "details": "See {IERC721-transferFrom}."
            },
            "transferOwnership(address)": {
                "details": "Transfers ownership of the contract to a new account (`newOwner`). Can only be called by the current owner."
            }
        },
        "version": 1
    },
    "userdoc": {
        "kind": "user",
        "methods": {},
        "version": 1
    },
    "storageLayout": {
        "storage": [
            {
                "astId": 129,
                "contract": "contracts/TeggNFT.sol:TeggNFT",
                "label": "_name",
                "offset": 0,
                "slot": "0",
                "type": "t_string_storage"
            },
            {
                "astId": 131,
                "contract": "contracts/TeggNFT.sol:TeggNFT",
                "label": "_symbol",
                "offset": 0,
                "slot": "1",
                "type": "t_string_storage"
            },
            {
                "astId": 135,
                "contract": "contracts/TeggNFT.sol:TeggNFT",
                "label": "_owners",
                "offset": 0,
                "slot": "2",
                "type": "t_mapping(t_uint256,t_address)"
            },
            {
                "astId": 139,
                "contract": "contracts/TeggNFT.sol:TeggNFT",
                "label": "_balances",
                "offset": 0,
                "slot": "3",
                "type": "t_mapping(t_address,t_uint256)"
            },
            {
                "astId": 143,
                "contract": "contracts/TeggNFT.sol:TeggNFT",
                "label": "_tokenApprovals",
                "offset": 0,
                "slot": "4",
                "type": "t_mapping(t_uint256,t_address)"
            },
            {
                "astId": 149,
                "contract": "contracts/TeggNFT.sol:TeggNFT",
                "label": "_operatorApprovals",
                "offset": 0,
                "slot": "5",
                "type": "t_mapping(t_address,t_mapping(t_address,t_bool))"
            },
            {
                "astId": 7,
                "contract": "contracts/TeggNFT.sol:TeggNFT",
                "label": "_owner",
                "offset": 0,
                "slot": "6",
                "type": "t_address"
            },
            {
                "astId": 2016,
                "contract": "contracts/TeggNFT.sol:TeggNFT",
                "label": "hatchTime",
                "offset": 0,
                "slot": "7",
                "type": "t_uint256"
            },
            {
                "astId": 2018,
                "contract": "contracts/TeggNFT.sol:TeggNFT",
                "label": "HatchTime",
                "offset": 0,
                "slot": "8",
                "type": "t_uint256"
            },
            {
                "astId": 2020,
                "contract": "contracts/TeggNFT.sol:TeggNFT",
                "label": "tokenCounter",
                "offset": 0,
                "slot": "9",
                "type": "t_uint256"
            },
            {
                "astId": 2022,
                "contract": "contracts/TeggNFT.sol:TeggNFT",
                "label": "eggImageURI",
                "offset": 0,
                "slot": "10",
                "type": "t_string_storage"
            },
            {
                "astId": 2024,
                "contract": "contracts/TeggNFT.sol:TeggNFT",
                "label": "hatchImageURI",
                "offset": 0,
                "slot": "11",
                "type": "t_string_storage"
            },
            {
                "astId": 2027,
                "contract": "contracts/TeggNFT.sol:TeggNFT",
                "label": "hatchFee",
                "offset": 0,
                "slot": "12",
                "type": "t_uint256"
            },
            {
                "astId": 2031,
                "contract": "contracts/TeggNFT.sol:TeggNFT",
                "label": "tokenIdToHatchTimer",
                "offset": 0,
                "slot": "13",
                "type": "t_mapping(t_uint256,t_uint256)"
            }
        ],
        "types": {
            "t_address": {
                "encoding": "inplace",
                "label": "address",
                "numberOfBytes": "20"
            },
            "t_bool": {
                "encoding": "inplace",
                "label": "bool",
                "numberOfBytes": "1"
            },
            "t_mapping(t_address,t_bool)": {
                "encoding": "mapping",
                "key": "t_address",
                "label": "mapping(address => bool)",
                "numberOfBytes": "32",
                "value": "t_bool"
            },
            "t_mapping(t_address,t_mapping(t_address,t_bool))": {
                "encoding": "mapping",
                "key": "t_address",
                "label": "mapping(address => mapping(address => bool))",
                "numberOfBytes": "32",
                "value": "t_mapping(t_address,t_bool)"
            },
            "t_mapping(t_address,t_uint256)": {
                "encoding": "mapping",
                "key": "t_address",
                "label": "mapping(address => uint256)",
                "numberOfBytes": "32",
                "value": "t_uint256"
            },
            "t_mapping(t_uint256,t_address)": {
                "encoding": "mapping",
                "key": "t_uint256",
                "label": "mapping(uint256 => address)",
                "numberOfBytes": "32",
                "value": "t_address"
            },
            "t_mapping(t_uint256,t_uint256)": {
                "encoding": "mapping",
                "key": "t_uint256",
                "label": "mapping(uint256 => uint256)",
                "numberOfBytes": "32",
                "value": "t_uint256"
            },
            "t_string_storage": {
                "encoding": "bytes",
                "label": "string",
                "numberOfBytes": "32"
            },
            "t_uint256": {
                "encoding": "inplace",
                "label": "uint256",
                "numberOfBytes": "32"
            }
        }
    }
}