{
  "address": "0x630C18Dbeec8c9226127346857Abca9da530b05F",
  "abi": [
    {
      "inputs": [],
      "stateMutability": "nonpayable",
      "type": "constructor"
    },
    {
      "anonymous": false,
      "inputs": [
        {
          "indexed": true,
          "internalType": "address",
          "name": "owner",
          "type": "address"
        },
        {
          "indexed": true,
          "internalType": "address",
          "name": "approved",
          "type": "address"
        },
        {
          "indexed": true,
          "internalType": "uint256",
          "name": "tokenId",
          "type": "uint256"
        }
      ],
      "name": "Approval",
      "type": "event"
    },
    {
      "anonymous": false,
      "inputs": [
        {
          "indexed": true,
          "internalType": "address",
          "name": "owner",
          "type": "address"
        },
        {
          "indexed": true,
          "internalType": "address",
          "name": "operator",
          "type": "address"
        },
        {
          "indexed": false,
          "internalType": "bool",
          "name": "approved",
          "type": "bool"
        }
      ],
      "name": "ApprovalForAll",
      "type": "event"
    },
    {
      "anonymous": false,
      "inputs": [
        {
          "indexed": true,
          "internalType": "uint256",
          "name": "tokenId",
          "type": "uint256"
        },
        {
          "indexed": true,
          "internalType": "uint256",
          "name": "HatchedTime",
          "type": "uint256"
        }
      ],
      "name": "HatchedEggNFT",
      "type": "event"
    },
    {
      "anonymous": false,
      "inputs": [
        {
          "indexed": true,
          "internalType": "uint256",
          "name": "tokenId",
          "type": "uint256"
        },
        {
          "indexed": true,
          "internalType": "uint256",
          "name": "HatchTime",
          "type": "uint256"
        }
      ],
      "name": "LaidEggNFT",
      "type": "event"
    },
    {
      "anonymous": false,
      "inputs": [
        {
          "indexed": true,
          "internalType": "address",
          "name": "previousOwner",
          "type": "address"
        },
        {
          "indexed": true,
          "internalType": "address",
          "name": "newOwner",
          "type": "address"
        }
      ],
      "name": "OwnershipTransferred",
      "type": "event"
    },
    {
      "anonymous": false,
      "inputs": [
        {
          "indexed": true,
          "internalType": "address",
          "name": "from",
          "type": "address"
        },
        {
          "indexed": true,
          "internalType": "address",
          "name": "to",
          "type": "address"
        },
        {
          "indexed": true,
          "internalType": "uint256",
          "name": "tokenId",
          "type": "uint256"
        }
      ],
      "name": "Transfer",
      "type": "event"
    },
    {
      "inputs": [],
      "name": "HatchTime",
      "outputs": [
        {
          "internalType": "uint256",
          "name": "",
          "type": "uint256"
        }
      ],
      "stateMutability": "view",
      "type": "function"
    },
    {
      "inputs": [
        {
          "internalType": "uint256",
          "name": "tokenId",
          "type": "uint256"
        }
      ],
      "name": "ResetTimer",
      "outputs": [],
      "stateMutability": "nonpayable",
      "type": "function"
    },
    {
      "inputs": [
        {
          "internalType": "string",
          "name": "_svgEggRaw",
          "type": "string"
        }
      ],
      "name": "addEggSVG",
      "outputs": [],
      "stateMutability": "nonpayable",
      "type": "function"
    },
    {
      "inputs": [
        {
          "internalType": "string",
          "name": "_svgEggURI",
          "type": "string"
        }
      ],
      "name": "addEggURI",
      "outputs": [],
      "stateMutability": "nonpayable",
      "type": "function"
    },
    {
      "inputs": [
        {
          "internalType": "string",
          "name": "_svgHatchRaw",
          "type": "string"
        }
      ],
      "name": "addHatchSVG",
      "outputs": [],
      "stateMutability": "nonpayable",
      "type": "function"
    },
    {
      "inputs": [
        {
          "internalType": "string",
          "name": "_svgHatchURI",
          "type": "string"
        }
      ],
      "name": "addHatchURI",
      "outputs": [],
      "stateMutability": "nonpayable",
      "type": "function"
    },
    {
      "inputs": [],
      "name": "allTokenArray",
      "outputs": [
        {
          "internalType": "uint256[]",
          "name": "",
          "type": "uint256[]"
        }
      ],
      "stateMutability": "view",
      "type": "function"
    },
    {
      "inputs": [],
      "name": "allTokenTokenURIs",
      "outputs": [
        {
          "internalType": "string[]",
          "name": "",
          "type": "string[]"
        }
      ],
      "stateMutability": "view",
      "type": "function"
    },
    {
      "inputs": [
        {
          "internalType": "address",
          "name": "to",
          "type": "address"
        },
        {
          "internalType": "uint256",
          "name": "tokenId",
          "type": "uint256"
        }
      ],
      "name": "approve",
      "outputs": [],
      "stateMutability": "nonpayable",
      "type": "function"
    },
    {
      "inputs": [
        {
          "internalType": "address",
          "name": "owner",
          "type": "address"
        }
      ],
      "name": "balanceOf",
      "outputs": [
        {
          "internalType": "uint256",
          "name": "",
          "type": "uint256"
        }
      ],
      "stateMutability": "view",
      "type": "function"
    },
    {
      "inputs": [],
      "name": "baseURI",
      "outputs": [
        {
          "internalType": "string",
          "name": "",
          "type": "string"
        }
      ],
      "stateMutability": "view",
      "type": "function"
    },
    {
      "inputs": [
        {
          "internalType": "uint256",
          "name": "tokenId",
          "type": "uint256"
        }
      ],
      "name": "bless",
      "outputs": [],
      "stateMutability": "nonpayable",
      "type": "function"
    },
    {
      "inputs": [],
      "name": "create",
      "outputs": [],
      "stateMutability": "nonpayable",
      "type": "function"
    },
    {
      "inputs": [],
      "name": "eggImageURI",
      "outputs": [
        {
          "internalType": "string",
          "name": "",
          "type": "string"
        }
      ],
      "stateMutability": "view",
      "type": "function"
    },
    {
      "inputs": [
        {
          "internalType": "uint256",
          "name": "tokenId",
          "type": "uint256"
        }
      ],
      "name": "getApproved",
      "outputs": [
        {
          "internalType": "address",
          "name": "",
          "type": "address"
        }
      ],
      "stateMutability": "view",
      "type": "function"
    },
    {
      "inputs": [],
      "name": "getTokenCounter",
      "outputs": [
        {
          "internalType": "uint256",
          "name": "",
          "type": "uint256"
        }
      ],
      "stateMutability": "view",
      "type": "function"
    },
    {
      "inputs": [
        {
          "internalType": "uint256",
          "name": "tokenId",
          "type": "uint256"
        }
      ],
      "name": "hatchEgg",
      "outputs": [],
      "stateMutability": "payable",
      "type": "function"
    },
    {
      "inputs": [],
      "name": "hatchFee",
      "outputs": [
        {
          "internalType": "uint256",
          "name": "",
          "type": "uint256"
        }
      ],
      "stateMutability": "view",
      "type": "function"
    },
    {
      "inputs": [],
      "name": "hatchTime",
      "outputs": [
        {
          "internalType": "uint256",
          "name": "",
          "type": "uint256"
        }
      ],
      "stateMutability": "view",
      "type": "function"
    },
    {
      "inputs": [
        {
          "internalType": "address",
          "name": "owner",
          "type": "address"
        },
        {
          "internalType": "address",
          "name": "operator",
          "type": "address"
        }
      ],
      "name": "isApprovedForAll",
      "outputs": [
        {
          "internalType": "bool",
          "name": "",
          "type": "bool"
        }
      ],
      "stateMutability": "view",
      "type": "function"
    },
    {
      "inputs": [],
      "name": "name",
      "outputs": [
        {
          "internalType": "string",
          "name": "",
          "type": "string"
        }
      ],
      "stateMutability": "view",
      "type": "function"
    },
    {
      "inputs": [],
      "name": "owner",
      "outputs": [
        {
          "internalType": "address",
          "name": "",
          "type": "address"
        }
      ],
      "stateMutability": "view",
      "type": "function"
    },
    {
      "inputs": [
        {
          "internalType": "uint256",
          "name": "tokenId",
          "type": "uint256"
        }
      ],
      "name": "ownerOf",
      "outputs": [
        {
          "internalType": "address",
          "name": "",
          "type": "address"
        }
      ],
      "stateMutability": "view",
      "type": "function"
    },
    {
      "inputs": [
        {
          "internalType": "address",
          "name": "tokenOwner",
          "type": "address"
        }
      ],
      "name": "ownerOfTokenIds",
      "outputs": [
        {
          "internalType": "uint256[]",
          "name": "",
          "type": "uint256[]"
        }
      ],
      "stateMutability": "view",
      "type": "function"
    },
    {
      "inputs": [
        {
          "internalType": "address",
          "name": "tokenOwner",
          "type": "address"
        }
      ],
      "name": "ownerOfTokenURIs",
      "outputs": [
        {
          "internalType": "string[]",
          "name": "",
          "type": "string[]"
        }
      ],
      "stateMutability": "view",
      "type": "function"
    },
    {
      "inputs": [],
      "name": "renounceOwnership",
      "outputs": [],
      "stateMutability": "nonpayable",
      "type": "function"
    },
    {
      "inputs": [
        {
          "internalType": "address",
          "name": "from",
          "type": "address"
        },
        {
          "internalType": "address",
          "name": "to",
          "type": "address"
        },
        {
          "internalType": "uint256",
          "name": "tokenId",
          "type": "uint256"
        }
      ],
      "name": "safeTransferFrom",
      "outputs": [],
      "stateMutability": "nonpayable",
      "type": "function"
    },
    {
      "inputs": [
        {
          "internalType": "address",
          "name": "from",
          "type": "address"
        },
        {
          "internalType": "address",
          "name": "to",
          "type": "address"
        },
        {
          "internalType": "uint256",
          "name": "tokenId",
          "type": "uint256"
        },
        {
          "internalType": "bytes",
          "name": "_data",
          "type": "bytes"
        }
      ],
      "name": "safeTransferFrom",
      "outputs": [],
      "stateMutability": "nonpayable",
      "type": "function"
    },
    {
      "inputs": [
        {
          "internalType": "address",
          "name": "operator",
          "type": "address"
        },
        {
          "internalType": "bool",
          "name": "approved",
          "type": "bool"
        }
      ],
      "name": "setApprovalForAll",
      "outputs": [],
      "stateMutability": "nonpayable",
      "type": "function"
    },
    {
      "inputs": [
        {
          "internalType": "uint256",
          "name": "_fee",
          "type": "uint256"
        }
      ],
      "name": "setHatchFee",
      "outputs": [],
      "stateMutability": "nonpayable",
      "type": "function"
    },
    {
      "inputs": [
        {
          "internalType": "bytes4",
          "name": "interfaceId",
          "type": "bytes4"
        }
      ],
      "name": "supportsInterface",
      "outputs": [
        {
          "internalType": "bool",
          "name": "",
          "type": "bool"
        }
      ],
      "stateMutability": "view",
      "type": "function"
    },
    {
      "inputs": [
        {
          "internalType": "string",
          "name": "svg",
          "type": "string"
        }
      ],
      "name": "svgToImageURI",
      "outputs": [
        {
          "internalType": "string",
          "name": "",
          "type": "string"
        }
      ],
      "stateMutability": "pure",
      "type": "function"
    },
    {
      "inputs": [],
      "name": "symbol",
      "outputs": [
        {
          "internalType": "string",
          "name": "",
          "type": "string"
        }
      ],
      "stateMutability": "view",
      "type": "function"
    },
    {
      "inputs": [
        {
          "internalType": "uint256",
          "name": "index",
          "type": "uint256"
        }
      ],
      "name": "tokenByIndex",
      "outputs": [
        {
          "internalType": "uint256",
          "name": "",
          "type": "uint256"
        }
      ],
      "stateMutability": "view",
      "type": "function"
    },
    {
      "inputs": [],
      "name": "tokenCounter",
      "outputs": [
        {
          "internalType": "uint256",
          "name": "",
          "type": "uint256"
        }
      ],
      "stateMutability": "view",
      "type": "function"
    },
    {
      "inputs": [
        {
          "internalType": "uint256",
          "name": "",
          "type": "uint256"
        }
      ],
      "name": "tokenIdToHatchTimer",
      "outputs": [
        {
          "internalType": "uint256",
          "name": "",
          "type": "uint256"
        }
      ],
      "stateMutability": "view",
      "type": "function"
    },
    {
      "inputs": [
        {
          "internalType": "address",
          "name": "owner",
          "type": "address"
        },
        {
          "internalType": "uint256",
          "name": "index",
          "type": "uint256"
        }
      ],
      "name": "tokenOfOwnerByIndex",
      "outputs": [
        {
          "internalType": "uint256",
          "name": "",
          "type": "uint256"
        }
      ],
      "stateMutability": "view",
      "type": "function"
    },
    {
      "inputs": [
        {
          "internalType": "uint256",
          "name": "tokenId",
          "type": "uint256"
        }
      ],
      "name": "tokenURI",
      "outputs": [
        {
          "internalType": "string",
          "name": "",
          "type": "string"
        }
      ],
      "stateMutability": "view",
      "type": "function"
    },
    {
      "inputs": [],
      "name": "totalSupply",
      "outputs": [
        {
          "internalType": "uint256",
          "name": "",
          "type": "uint256"
        }
      ],
      "stateMutability": "view",
      "type": "function"
    },
    {
      "inputs": [
        {
          "internalType": "address",
          "name": "from",
          "type": "address"
        },
        {
          "internalType": "address",
          "name": "to",
          "type": "address"
        },
        {
          "internalType": "uint256",
          "name": "tokenId",
          "type": "uint256"
        }
      ],
      "name": "transferFrom",
      "outputs": [],
      "stateMutability": "nonpayable",
      "type": "function"
    },
    {
      "inputs": [
        {
          "internalType": "address",
          "name": "newOwner",
          "type": "address"
        }
      ],
      "name": "transferOwnership",
      "outputs": [],
      "stateMutability": "nonpayable",
      "type": "function"
    },
    {
      "inputs": [],
      "name": "withdraw",
      "outputs": [],
      "stateMutability": "nonpayable",
      "type": "function"
    }
  ],
  "transactionHash": "0x98cb6909f1f5c9c2fa659740bd95d0b13fb29f69b9090b693dd537128c6b3b64",
  "args": [],
  "solcInputHash": "d9ce10f28ea9e95a12c86235a84e381f",
  "bytecode": "0x60806040526301da9c00600c5560006011553480156200001e57600080fd5b506040518060400160405280600d81526020017f546865746120456767204e4654000000000000000000000000000000000000008152506040518060400160405280600481526020017f5445474700000000000000000000000000000000000000000000000000000000815250620000a36301ffc9a760e01b6200014d60201b60201c565b8160079080519060200190620000bb929190620002f3565b508060089080519060200190620000d4929190620002f3565b50620000ed6380ac58cd60e01b6200014d60201b60201c565b62000105635b5e139f60e01b6200014d60201b60201c565b6200011d63780e9d6360e01b6200014d60201b60201c565b50506200013f620001336200022560201b60201c565b6200022d60201b60201c565b6000600e819055506200047d565b63ffffffff60e01b817bffffffffffffffffffffffffffffffffffffffffffffffffffffffff19161415620001b9576040517f08c379a0000000000000000000000000000000000000000000000000000000008152600401620001b090620003e5565b60405180910390fd5b6001600080837bffffffffffffffffffffffffffffffffffffffffffffffffffffffff19167bffffffffffffffffffffffffffffffffffffffffffffffffffffffff1916815260200190815260200160002060006101000a81548160ff02191690831515021790555050565b600033905090565b6000600b60009054906101000a900473ffffffffffffffffffffffffffffffffffffffff16905081600b60006101000a81548173ffffffffffffffffffffffffffffffffffffffff021916908373ffffffffffffffffffffffffffffffffffffffff1602179055508173ffffffffffffffffffffffffffffffffffffffff168173ffffffffffffffffffffffffffffffffffffffff167f8be0079c531659141344cd1fd0a4f28419497f9722a3daafe3b4186f6b6457e060405160405180910390a35050565b828054620003019062000418565b90600052602060002090601f01602090048101928262000325576000855562000371565b82601f106200034057805160ff191683800117855562000371565b8280016001018555821562000371579182015b828111156200037057825182559160200191906001019062000353565b5b50905062000380919062000384565b5090565b5b808211156200039f57600081600090555060010162000385565b5090565b6000620003b2601c8362000407565b91507f544e543136353a20696e76616c696420696e74657266616365206964000000006000830152602082019050919050565b600060208201905081810360008301526200040081620003a3565b9050919050565b600082825260208201905092915050565b600060028204905060018216806200043157607f821691505b602082108114156200044857620004476200044e565b5b50919050565b7f4e487b7100000000000000000000000000000000000000000000000000000000600052602260045260246000fd5b614b96806200048d6000396000f3fe6080604052600436106102515760003560e01c8063715018a611610139578063c15f5342116100b6578063d082e3811161007a578063d082e381146108db578063e985e9c514610906578063efc81a8c14610943578063f2fde38b1461095a578063f3d3418814610983578063fc537fd6146109ac57610251565b8063c15f5342146107e4578063c5925a5e1461080d578063c71d8bad14610836578063c87b56dd14610861578063ca8a7d5e1461089e57610251565b80639f0fff9e116100fd5780639f0fff9e14610715578063a22cb4651461073e578063a2836a2914610767578063a9ef0f5a14610790578063b88d4fde146107bb57610251565b8063715018a614610640578063752f20c2146106575780638631f9dd146106825780638da5cb5b146106bf57806395d89b41146106ea57610251565b806330d871c6116101d25780634f8c79f8116101965780634f8c79f81461051c57806354c629e3146105455780636352211e146105705780636c0360eb146105ad5780636e02007d146105d857806370a082311461060357610251565b806330d871c6146104375780633ccfd60b1461047457806342842e0e1461048b57806348eaff74146104b45780634f6ccce7146104df57610251565b806318160ddd1161021957806318160ddd1461034d5780631ca0fd78146103785780632385554c146103b557806323b872dd146103d15780632f745c59146103fa57610251565b806301ffc9a71461025657806306fdde03146102935780630780c414146102be578063081812fc146102e7578063095ea7b314610324575b600080fd5b34801561026257600080fd5b5061027d6004803603810190610278919061369c565b6109d7565b60405161028a919061433c565b60405180910390f35b34801561029f57600080fd5b506102a8610a3e565b6040516102b59190614357565b60405180910390f35b3480156102ca57600080fd5b506102e560048036038101906102e091906136ee565b610ad0565b005b3480156102f357600080fd5b5061030e6004803603810190610309919061372f565b610b66565b60405161031b9190614291565b60405180910390f35b34801561033057600080fd5b5061034b60048036038101906103469190613660565b610beb565b005b34801561035957600080fd5b50610362610d03565b60405161036f91906145d9565b60405180910390f35b34801561038457600080fd5b5061039f600480360381019061039a91906134f5565b610d14565b6040516103ac91906142f8565b60405180910390f35b6103cf60048036038101906103ca919061372f565b610e5a565b005b3480156103dd57600080fd5b506103f860048036038101906103f3919061355a565b610fa7565b005b34801561040657600080fd5b50610421600480360381019061041c9190613660565b611007565b60405161042e91906145d9565b60405180910390f35b34801561044357600080fd5b5061045e600480360381019061045991906136ee565b611062565b60405161046b9190614357565b60405180910390f35b34801561048057600080fd5b506104896110f5565b005b34801561049757600080fd5b506104b260048036038101906104ad919061355a565b6111c7565b005b3480156104c057600080fd5b506104c96111e7565b6040516104d691906145d9565b60405180910390f35b3480156104eb57600080fd5b506105066004803603810190610501919061372f565b6111ed565b60405161051391906145d9565b60405180910390f35b34801561052857600080fd5b50610543600480360381019061053e919061372f565b611210565b005b34801561055157600080fd5b5061055a611296565b60405161056791906142f8565b60405180910390f35b34801561057c57600080fd5b506105976004803603810190610592919061372f565b611387565b6040516105a49190614291565b60405180910390f35b3480156105b957600080fd5b506105c26113be565b6040516105cf9190614357565b60405180910390f35b3480156105e457600080fd5b506105ed611450565b6040516105fa91906145d9565b60405180910390f35b34801561060f57600080fd5b5061062a600480360381019061062591906134f5565b61145a565b60405161063791906145d9565b60405180910390f35b34801561064c57600080fd5b50610655611519565b005b34801561066357600080fd5b5061066c6115a1565b604051610679919061431a565b60405180910390f35b34801561068e57600080fd5b506106a960048036038101906106a4919061372f565b611686565b6040516106b691906145d9565b60405180910390f35b3480156106cb57600080fd5b506106d461169e565b6040516106e19190614291565b60405180910390f35b3480156106f657600080fd5b506106ff6116c8565b60405161070c9190614357565b60405180910390f35b34801561072157600080fd5b5061073c600480360381019061073791906136ee565b61175a565b005b34801561074a57600080fd5b5061076560048036038101906107609190613624565b6117f0565b005b34801561077357600080fd5b5061078e600480360381019061078991906136ee565b611971565b005b34801561079c57600080fd5b506107a5611a07565b6040516107b29190614357565b60405180910390f35b3480156107c757600080fd5b506107e260048036038101906107dd91906135a9565b611a95565b005b3480156107f057600080fd5b5061080b6004803603810190610806919061372f565b611af7565b005b34801561081957600080fd5b50610834600480360381019061082f91906136ee565b611b67565b005b34801561084257600080fd5b5061084b611bfd565b60405161085891906145d9565b60405180910390f35b34801561086d57600080fd5b506108886004803603810190610883919061372f565b611c03565b6040516108959190614357565b60405180910390f35b3480156108aa57600080fd5b506108c560048036038101906108c091906134f5565b611dd3565b6040516108d2919061431a565b60405180910390f35b3480156108e757600080fd5b506108f0611f0d565b6040516108fd91906145d9565b60405180910390f35b34801561091257600080fd5b5061092d6004803603810190610928919061351e565b611f13565b60405161093a919061433c565b60405180910390f35b34801561094f57600080fd5b50610958611fa7565b005b34801561096657600080fd5b50610981600480360381019061097c91906134f5565b61203f565b005b34801561098f57600080fd5b506109aa60048036038101906109a5919061372f565b612137565b005b3480156109b857600080fd5b506109c1612245565b6040516109ce91906145d9565b60405180910390f35b6000806000837bffffffffffffffffffffffffffffffffffffffffffffffffffffffff19167bffffffffffffffffffffffffffffffffffffffffffffffffffffffff1916815260200190815260200160002060009054906101000a900460ff169050919050565b606060078054610a4d90614921565b80601f0160208091040260200160405190810160405280929190818152602001828054610a7990614921565b8015610ac65780601f10610a9b57610100808354040283529160200191610ac6565b820191906000526020600020905b815481529060010190602001808311610aa957829003601f168201915b5050505050905090565b610ad861224b565b73ffffffffffffffffffffffffffffffffffffffff16610af661169e565b73ffffffffffffffffffffffffffffffffffffffff1614610b4c576040517f08c379a0000000000000000000000000000000000000000000000000000000008152600401610b4390614499565b60405180910390fd5b8060109080519060200190610b62929190613319565b5050565b6000610b7182612253565b610bb0576040517f08c379a0000000000000000000000000000000000000000000000000000000008152600401610ba7906144d9565b60405180910390fd5b6005600083815260200190815260200160002060009054906101000a900473ffffffffffffffffffffffffffffffffffffffff169050919050565b6000610bf682611387565b90508073ffffffffffffffffffffffffffffffffffffffff168373ffffffffffffffffffffffffffffffffffffffff161415610c67576040517f08c379a0000000000000000000000000000000000000000000000000000000008152600401610c5e906143d9565b60405180910390fd5b8073ffffffffffffffffffffffffffffffffffffffff16610c8661224b565b73ffffffffffffffffffffffffffffffffffffffff161480610cb55750610cb481610caf61224b565b611f13565b5b610cf4576040517f08c379a0000000000000000000000000000000000000000000000000000000008152600401610ceb90614439565b60405180910390fd5b610cfe8383612270565b505050565b6000610d0f6002612329565b905090565b60606000610d218361145a565b67ffffffffffffffff811115610d60577f4e487b7100000000000000000000000000000000000000000000000000000000600052604160045260246000fd5b604051908082528060200260200182016040528015610d9357816020015b6060815260200190600190039081610d7e5790505b5090506000805b600e54811015610e4f578473ffffffffffffffffffffffffffffffffffffffff16610dc482611387565b73ffffffffffffffffffffffffffffffffffffffff161415610e3c57610de981611c03565b838381518110610e22577f4e487b7100000000000000000000000000000000000000000000000000000000600052603260045260246000fd5b60200260200101819052508180610e3890614953565b9250505b8080610e4790614953565b915050610d9a565b508192505050919050565b600060126000838152602001908152602001600020541415610eb1576040517f08c379a0000000000000000000000000000000000000000000000000000000008152600401610ea890614559565b60405180910390fd5b6012600082815260200190815260200160002054421115610f07576040517f08c379a0000000000000000000000000000000000000000000000000000000008152600401610efe90614479565b60405180910390fd5b610f1081612253565b610f4f576040517f08c379a0000000000000000000000000000000000000000000000000000000008152600401610f46906144b9565b60405180910390fd5b6011543414610f5d57600080fd5b6000601260008381526020019081526020016000208190555042817ff636f96ebae0f362bc673d465a964fbbadbe24117ddf2e6e8083b1e51fabe5ff60405160405180910390a350565b610fb8610fb261224b565b8261233e565b610ff7576040517f08c379a0000000000000000000000000000000000000000000000000000000008152600401610fee90614539565b60405180910390fd5b61100283838361241c565b505050565b600061105a82600160008673ffffffffffffffffffffffffffffffffffffffff1673ffffffffffffffffffffffffffffffffffffffff16815260200190815260200160002061263390919063ffffffff16565b905092915050565b606060006040518060400160405280601a81526020017f646174613a696d6167652f7376672b786d6c3b6261736536342c000000000000815250905060006110c8846040516020016110b491906141f1565b60405160208183030381529060405261264d565b905081816040516020016110dd929190614208565b60405160208183030381529060405292505050919050565b6110fd61224b565b73ffffffffffffffffffffffffffffffffffffffff1661111b61169e565b73ffffffffffffffffffffffffffffffffffffffff1614611171576040517f08c379a000000000000000000000000000000000000000000000000000000000815260040161116890614499565b60405180910390fd5b600061117b61169e565b90508073ffffffffffffffffffffffffffffffffffffffff166108fc479081150290604051600060405180830381858888f193505050501580156111c3573d6000803e3d6000fd5b5050565b6111e283838360405180602001604052806000815250611a95565b505050565b600d5481565b6000806112048360026127f890919063ffffffff16565b50905080915050919050565b61121861224b565b73ffffffffffffffffffffffffffffffffffffffff1661123661169e565b73ffffffffffffffffffffffffffffffffffffffff161461128c576040517f08c379a000000000000000000000000000000000000000000000000000000000815260040161128390614499565b60405180910390fd5b8060118190555050565b60606000600e5467ffffffffffffffff8111156112dc577f4e487b7100000000000000000000000000000000000000000000000000000000600052604160045260246000fd5b60405190808252806020026020018201604052801561130f57816020015b60608152602001906001900390816112fa5790505b50905060005b600e5481101561137f5761132881611c03565b828281518110611361577f4e487b7100000000000000000000000000000000000000000000000000000000600052603260045260246000fd5b6020026020010181905250808061137790614953565b915050611315565b508091505090565b60006113b782604051806060016040528060298152602001614ac66029913960026128249092919063ffffffff16565b9050919050565b6060600a80546113cd90614921565b80601f01602080910402602001604051908101604052809291908181526020018280546113f990614921565b80156114465780601f1061141b57610100808354040283529160200191611446565b820191906000526020600020905b81548152906001019060200180831161142957829003601f168201915b5050505050905090565b6000600e54905090565b60008073ffffffffffffffffffffffffffffffffffffffff168273ffffffffffffffffffffffffffffffffffffffff1614156114cb576040517f08c379a00000000000000000000000000000000000000000000000000000000081526004016114c2906144f9565b60405180910390fd5b611512600160008473ffffffffffffffffffffffffffffffffffffffff1673ffffffffffffffffffffffffffffffffffffffff168152602001908152602001600020612843565b9050919050565b61152161224b565b73ffffffffffffffffffffffffffffffffffffffff1661153f61169e565b73ffffffffffffffffffffffffffffffffffffffff1614611595576040517f08c379a000000000000000000000000000000000000000000000000000000000815260040161158c90614499565b60405180910390fd5b61159f6000612858565b565b60606000600e5467ffffffffffffffff8111156115e7577f4e487b7100000000000000000000000000000000000000000000000000000000600052604160045260246000fd5b6040519080825280602002602001820160405280156116155781602001602082028036833780820191505090505b50905060005b600e5481101561167e578082828151811061165f577f4e487b7100000000000000000000000000000000000000000000000000000000600052603260045260246000fd5b602002602001018181525050808061167690614953565b91505061161b565b508091505090565b60126020528060005260406000206000915090505481565b6000600b60009054906101000a900473ffffffffffffffffffffffffffffffffffffffff16905090565b6060600880546116d790614921565b80601f016020809104026020016040519081016040528092919081815260200182805461170390614921565b80156117505780601f1061172557610100808354040283529160200191611750565b820191906000526020600020905b81548152906001019060200180831161173357829003601f168201915b5050505050905090565b61176261224b565b73ffffffffffffffffffffffffffffffffffffffff1661178061169e565b73ffffffffffffffffffffffffffffffffffffffff16146117d6576040517f08c379a00000000000000000000000000000000000000000000000000000000081526004016117cd90614499565b60405180910390fd5b80600f90805190602001906117ec929190613319565b5050565b6117f861224b565b73ffffffffffffffffffffffffffffffffffffffff168273ffffffffffffffffffffffffffffffffffffffff161415611866576040517f08c379a000000000000000000000000000000000000000000000000000000000815260040161185d90614579565b60405180910390fd5b806006600061187361224b565b73ffffffffffffffffffffffffffffffffffffffff1673ffffffffffffffffffffffffffffffffffffffff16815260200190815260200160002060008473ffffffffffffffffffffffffffffffffffffffff1673ffffffffffffffffffffffffffffffffffffffff16815260200190815260200160002060006101000a81548160ff0219169083151502179055508173ffffffffffffffffffffffffffffffffffffffff1661192061224b565b73ffffffffffffffffffffffffffffffffffffffff167f17307eab39ab6107e8899845ad3d59bd9653f200f220920489ca2b5937696c3183604051611965919061433c565b60405180910390a35050565b61197961224b565b73ffffffffffffffffffffffffffffffffffffffff1661199761169e565b73ffffffffffffffffffffffffffffffffffffffff16146119ed576040517f08c379a00000000000000000000000000000000000000000000000000000000081526004016119e490614499565b60405180910390fd5b60006119f882611062565b9050611a0381610ad0565b5050565b600f8054611a1490614921565b80601f0160208091040260200160405190810160405280929190818152602001828054611a4090614921565b8015611a8d5780601f10611a6257610100808354040283529160200191611a8d565b820191906000526020600020905b815481529060010190602001808311611a7057829003601f168201915b505050505081565b611aa6611aa061224b565b8361233e565b611ae5576040517f08c379a0000000000000000000000000000000000000000000000000000000008152600401611adc90614539565b60405180910390fd5b611af18484848461291e565b50505050565b611b0081612253565b611b3f576040517f08c379a0000000000000000000000000000000000000000000000000000000008152600401611b36906144b9565b60405180910390fd5b600c5442611b4d9190614756565b601260008381526020019081526020016000208190555050565b611b6f61224b565b73ffffffffffffffffffffffffffffffffffffffff16611b8d61169e565b73ffffffffffffffffffffffffffffffffffffffff1614611be3576040517f08c379a0000000000000000000000000000000000000000000000000000000008152600401611bda90614499565b60405180910390fd5b6000611bee82611062565b9050611bf98161175a565b5050565b600c5481565b6060611c0e82612253565b611c4d576040517f08c379a0000000000000000000000000000000000000000000000000000000008152600401611c44906144b9565b60405180910390fd5b6000600f8054611c5c90614921565b80601f0160208091040260200160405190810160405280929190818152602001828054611c8890614921565b8015611cd55780601f10611caa57610100808354040283529160200191611cd5565b820191906000526020600020905b815481529060010190602001808311611cb857829003601f168201915b5050505050905060126000848152602001908152602001600020544210611d845760108054611d0390614921565b80601f0160208091040260200160405190810160405280929190818152602001828054611d2f90614921565b8015611d7c5780601f10611d5157610100808354040283529160200191611d7c565b820191906000526020600020905b815481529060010190602001808311611d5f57829003601f168201915b505050505090505b611dac81604051602001611d98919061422c565b60405160208183030381529060405261264d565b604051602001611dbc919061426f565b604051602081830303815290604052915050919050565b60606000611de08361145a565b67ffffffffffffffff811115611e1f577f4e487b7100000000000000000000000000000000000000000000000000000000600052604160045260246000fd5b604051908082528060200260200182016040528015611e4d5781602001602082028036833780820191505090505b5090506000805b600e54811015611f02578473ffffffffffffffffffffffffffffffffffffffff16611e7e82611387565b73ffffffffffffffffffffffffffffffffffffffff161415611eef5780838381518110611ed4577f4e487b7100000000000000000000000000000000000000000000000000000000600052603260045260246000fd5b6020026020010181815250508180611eeb90614953565b9250505b8080611efa90614953565b915050611e54565b508192505050919050565b600e5481565b6000600660008473ffffffffffffffffffffffffffffffffffffffff1673ffffffffffffffffffffffffffffffffffffffff16815260200190815260200160002060008373ffffffffffffffffffffffffffffffffffffffff1673ffffffffffffffffffffffffffffffffffffffff16815260200190815260200160002060009054906101000a900460ff16905092915050565b600c5442611fb59190614756565b60126000600e5481526020019081526020016000208190555060126000600e54815260200190815260200160002054600d81905550600d54600e547f6e147ee04eee68681ef8b3fa0e84f5fcf026a98017bebc6cdf9190d174330c6b60405160405180910390a361202833600e5461297a565b6001600e546120379190614756565b600e81905550565b61204761224b565b73ffffffffffffffffffffffffffffffffffffffff1661206561169e565b73ffffffffffffffffffffffffffffffffffffffff16146120bb576040517f08c379a00000000000000000000000000000000000000000000000000000000081526004016120b290614499565b60405180910390fd5b600073ffffffffffffffffffffffffffffffffffffffff168173ffffffffffffffffffffffffffffffffffffffff16141561212b576040517f08c379a000000000000000000000000000000000000000000000000000000000815260040161212290614379565b60405180910390fd5b61213481612858565b50565b61213f61224b565b73ffffffffffffffffffffffffffffffffffffffff1661215d61169e565b73ffffffffffffffffffffffffffffffffffffffff16146121b3576040517f08c379a00000000000000000000000000000000000000000000000000000000081526004016121aa90614499565b60405180910390fd5b6121bc81612253565b6121fb576040517f08c379a00000000000000000000000000000000000000000000000000000000081526004016121f2906144b9565b60405180910390fd5b6000601260008381526020019081526020016000208190555042817ff636f96ebae0f362bc673d465a964fbbadbe24117ddf2e6e8083b1e51fabe5ff60405160405180910390a350565b60115481565b600033905090565b600061226982600261299890919063ffffffff16565b9050919050565b816005600083815260200190815260200160002060006101000a81548173ffffffffffffffffffffffffffffffffffffffff021916908373ffffffffffffffffffffffffffffffffffffffff160217905550808273ffffffffffffffffffffffffffffffffffffffff166122e383611387565b73ffffffffffffffffffffffffffffffffffffffff167f8c5be1e5ebec7d5bd14f71427d1e84f3dd0314c0f7b2291e5b200ac8c7c3b92560405160405180910390a45050565b6000612337826000016129b2565b9050919050565b600061234982612253565b612388576040517f08c379a000000000000000000000000000000000000000000000000000000000815260040161237f90614399565b60405180910390fd5b600061239383611387565b90508073ffffffffffffffffffffffffffffffffffffffff168473ffffffffffffffffffffffffffffffffffffffff16148061240257508373ffffffffffffffffffffffffffffffffffffffff166123ea84610b66565b73ffffffffffffffffffffffffffffffffffffffff16145b8061241357506124128185611f13565b5b91505092915050565b8273ffffffffffffffffffffffffffffffffffffffff1661243c82611387565b73ffffffffffffffffffffffffffffffffffffffff1614612492576040517f08c379a0000000000000000000000000000000000000000000000000000000008152600401612489906143b9565b60405180910390fd5b600073ffffffffffffffffffffffffffffffffffffffff168273ffffffffffffffffffffffffffffffffffffffff161415612502576040517f08c379a00000000000000000000000000000000000000000000000000000000081526004016124f990614459565b60405180910390fd5b61250d8383836129c7565b612518600082612270565b61256981600160008673ffffffffffffffffffffffffffffffffffffffff1673ffffffffffffffffffffffffffffffffffffffff1681526020019081526020016000206129cc90919063ffffffff16565b506125bb81600160008573ffffffffffffffffffffffffffffffffffffffff1673ffffffffffffffffffffffffffffffffffffffff1681526020019081526020016000206129e690919063ffffffff16565b506125d281836002612a009092919063ffffffff16565b50808273ffffffffffffffffffffffffffffffffffffffff168473ffffffffffffffffffffffffffffffffffffffff167fddf252ad1be2c89b69c2b068fc378daa952ba7f163c4a11628f55a4df523b3ef60405160405180910390a4505050565b60006126428360000183612a35565b60001c905092915050565b6060600082511415612670576040518060200160405280600081525090506127f3565b6000604051806060016040528060408152602001614b21604091399050600060036002855161269f9190614756565b6126a991906147ac565b60046126b591906147dd565b905060006020826126c69190614756565b67ffffffffffffffff811115612705577f4e487b7100000000000000000000000000000000000000000000000000000000600052604160045260246000fd5b6040519080825280601f01601f1916602001820160405280156127375781602001600182028036833780820191505090505b509050818152600183018586518101602084015b818310156127b2576003830192508251603f8160121c1685015160f81b8252600182019150603f81600c1c1685015160f81b8252600182019150603f8160061c1685015160f81b8252600182019150603f811685015160f81b82526001820191505061274b565b6003895106600181146127cc57600281146127dc576127e7565b613d3d60f01b60028303526127e7565b603d60f81b60018303525b50505050508093505050505b919050565b60008060008061280b8660000186612a86565b915091508160001c8160001c9350935050509250929050565b6000612837846000018460001b84612ac6565b60001c90509392505050565b600061285182600001612b47565b9050919050565b6000600b60009054906101000a900473ffffffffffffffffffffffffffffffffffffffff16905081600b60006101000a81548173ffffffffffffffffffffffffffffffffffffffff021916908373ffffffffffffffffffffffffffffffffffffffff1602179055508173ffffffffffffffffffffffffffffffffffffffff168173ffffffffffffffffffffffffffffffffffffffff167f8be0079c531659141344cd1fd0a4f28419497f9722a3daafe3b4186f6b6457e060405160405180910390a35050565b61292984848461241c565b61293584848484612b58565b612974576040517f08c379a000000000000000000000000000000000000000000000000000000000815260040161296b906143f9565b60405180910390fd5b50505050565b612994828260405180602001604052806000815250612cbc565b5050565b60006129aa836000018360001b612d17565b905092915050565b60006129c082600001612d37565b9050919050565b505050565b60006129de836000018360001b612d4c565b905092915050565b60006129f8836000018360001b612ed2565b905092915050565b6000612a2c846000018460001b8473ffffffffffffffffffffffffffffffffffffffff1660001b612f42565b90509392505050565b6000826000018281548110612a73577f4e487b7100000000000000000000000000000000000000000000000000000000600052603260045260246000fd5b9060005260206000200154905092915050565b6000806000612aa18486600001612f7d90919063ffffffff16565b9050808560020160008381526020019081526020016000205492509250509250929050565b6000808460020160008581526020019081526020016000205490506000801b81141580612af95750612af88585612d17565b5b8390612b3b576040517f08c379a0000000000000000000000000000000000000000000000000000000008152600401612b329190614357565b60405180910390fd5b50809150509392505050565b600081600001805490509050919050565b6000612b798473ffffffffffffffffffffffffffffffffffffffff16612f94565b612b865760019050612cb4565b6000612c4d63df20cc6d60e01b612b9b61224b565b888787604051602401612bb194939291906142ac565b604051602081830303815290604052907bffffffffffffffffffffffffffffffffffffffffffffffffffffffff19166020820180517bffffffffffffffffffffffffffffffffffffffffffffffffffffffff8381831617835250505050604051806060016040528060328152602001614aef603291398773ffffffffffffffffffffffffffffffffffffffff16612fa79092919063ffffffff16565b9050600081806020019051810190612c6591906136c5565b905063150b7a0260e01b7bffffffffffffffffffffffffffffffffffffffffffffffffffffffff1916817bffffffffffffffffffffffffffffffffffffffffffffffffffffffff191614925050505b949350505050565b612cc68383612fbf565b612cd36000848484612b58565b612d12576040517f08c379a0000000000000000000000000000000000000000000000000000000008152600401612d09906143f9565b60405180910390fd5b505050565b6000612d2f828460000161314d90919063ffffffff16565b905092915050565b6000612d4582600001612b47565b9050919050565b60008083600101600084815260200190815260200160002054905060008114612ec6576000600182612d7e9190614837565b9050600060018660000180549050612d969190614837565b9050818114612e51576000866000018281548110612ddd577f4e487b7100000000000000000000000000000000000000000000000000000000600052603260045260246000fd5b9060005260206000200154905080876000018481548110612e27577f4e487b7100000000000000000000000000000000000000000000000000000000600052603260045260246000fd5b90600052602060002001819055508387600101600083815260200190815260200160002081905550505b85600001805480612e8b577f4e487b7100000000000000000000000000000000000000000000000000000000600052603160045260246000fd5b600190038181906000526020600020016000905590558560010160008681526020019081526020016000206000905560019350505050612ecc565b60009150505b92915050565b6000612ede8383613164565b612f37578260000182908060018154018082558091505060019003906000526020600020016000909190919091505582600001805490508360010160008481526020019081526020016000208190555060019050612f3c565b600090505b92915050565b60008184600201600085815260200190815260200160002081905550612f74838560000161318790919063ffffffff16565b90509392505050565b6000612f8c8360000183612a35565b905092915050565b600080823b905060008111915050919050565b6060612fb6848460008561319e565b90509392505050565b600073ffffffffffffffffffffffffffffffffffffffff168273ffffffffffffffffffffffffffffffffffffffff16141561302f576040517f08c379a0000000000000000000000000000000000000000000000000000000008152600401613026906145b9565b60405180910390fd5b61303881612253565b15613078576040517f08c379a000000000000000000000000000000000000000000000000000000000815260040161306f90614599565b60405180910390fd5b613084600083836129c7565b6130d581600160008573ffffffffffffffffffffffffffffffffffffffff1673ffffffffffffffffffffffffffffffffffffffff1681526020019081526020016000206129e690919063ffffffff16565b506130ec81836002612a009092919063ffffffff16565b50808273ffffffffffffffffffffffffffffffffffffffff16600073ffffffffffffffffffffffffffffffffffffffff167fddf252ad1be2c89b69c2b068fc378daa952ba7f163c4a11628f55a4df523b3ef60405160405180910390a45050565b600061315c8360000183613164565b905092915050565b600080836001016000848152602001908152602001600020541415905092915050565b60006131968360000183612ed2565b905092915050565b6060824710156131e3576040517f08c379a00000000000000000000000000000000000000000000000000000000081526004016131da90614419565b60405180910390fd5b6131ec85612f94565b61322b576040517f08c379a000000000000000000000000000000000000000000000000000000000815260040161322290614519565b60405180910390fd5b6000808673ffffffffffffffffffffffffffffffffffffffff16858760405161325491906141da565b60006040518083038185875af1925050503d8060008114613291576040519150601f19603f3d011682016040523d82523d6000602084013e613296565b606091505b50915091506132a68282866132b2565b92505050949350505050565b606083156132c257829050613312565b6000835111156132d55782518084602001fd5b816040517f08c379a00000000000000000000000000000000000000000000000000000000081526004016133099190614357565b60405180910390fd5b9392505050565b82805461332590614921565b90600052602060002090601f016020900481019282613347576000855561338e565b82601f1061336057805160ff191683800117855561338e565b8280016001018555821561338e579182015b8281111561338d578251825591602001919060010190613372565b5b50905061339b919061339f565b5090565b5b808211156133b85760008160009055506001016133a0565b5090565b60006133cf6133ca84614625565b6145f4565b9050828152602081018484840111156133e757600080fd5b6133f28482856148df565b509392505050565b600061340d61340884614655565b6145f4565b90508281526020810184848401111561342557600080fd5b6134308482856148df565b509392505050565b60008135905061344781614a69565b92915050565b60008135905061345c81614a80565b92915050565b60008135905061347181614a97565b92915050565b60008151905061348681614a97565b92915050565b600082601f83011261349d57600080fd5b81356134ad8482602086016133bc565b91505092915050565b600082601f8301126134c757600080fd5b81356134d78482602086016133fa565b91505092915050565b6000813590506134ef81614aae565b92915050565b60006020828403121561350757600080fd5b600061351584828501613438565b91505092915050565b6000806040838503121561353157600080fd5b600061353f85828601613438565b925050602061355085828601613438565b9150509250929050565b60008060006060848603121561356f57600080fd5b600061357d86828701613438565b935050602061358e86828701613438565b925050604061359f868287016134e0565b9150509250925092565b600080600080608085870312156135bf57600080fd5b60006135cd87828801613438565b94505060206135de87828801613438565b93505060406135ef878288016134e0565b925050606085013567ffffffffffffffff81111561360c57600080fd5b6136188782880161348c565b91505092959194509250565b6000806040838503121561363757600080fd5b600061364585828601613438565b92505060206136568582860161344d565b9150509250929050565b6000806040838503121561367357600080fd5b600061368185828601613438565b9250506020613692858286016134e0565b9150509250929050565b6000602082840312156136ae57600080fd5b60006136bc84828501613462565b91505092915050565b6000602082840312156136d757600080fd5b60006136e584828501613477565b91505092915050565b60006020828403121561370057600080fd5b600082013567ffffffffffffffff81111561371a57600080fd5b613726848285016134b6565b91505092915050565b60006020828403121561374157600080fd5b600061374f848285016134e0565b91505092915050565b600061376483836138df565b905092915050565b600061377883836141bc565b60208301905092915050565b61378d8161486b565b82525050565b600061379e826146a5565b6137a881856146eb565b9350836020820285016137ba85614685565b8060005b858110156137f657848403895281516137d78582613758565b94506137e2836146d1565b925060208a019950506001810190506137be565b50829750879550505050505092915050565b6000613813826146b0565b61381d81856146fc565b935061382883614695565b8060005b83811015613859578151613840888261376c565b975061384b836146de565b92505060018101905061382c565b5085935050505092915050565b61386f8161487d565b82525050565b6000613880826146bb565b61388a818561470d565b935061389a8185602086016148ee565b6138a381614a58565b840191505092915050565b60006138b9826146bb565b6138c3818561471e565b93506138d38185602086016148ee565b80840191505092915050565b60006138ea826146c6565b6138f48185614729565b93506139048185602086016148ee565b61390d81614a58565b840191505092915050565b6000613923826146c6565b61392d818561473a565b935061393d8185602086016148ee565b61394681614a58565b840191505092915050565b600061395c826146c6565b613966818561474b565b93506139768185602086016148ee565b80840191505092915050565b600061398f60098361474b565b91507f7b226e616d65223a2200000000000000000000000000000000000000000000006000830152600982019050919050565b60006139cf60268361473a565b91507f4f776e61626c653a206e6577206f776e657220697320746865207a65726f206160008301527f64647265737300000000000000000000000000000000000000000000000000006020830152604082019050919050565b6000613a35602c8361473a565b91507f544e543732313a206f70657261746f7220717565727920666f72206e6f6e657860008301527f697374656e7420746f6b656e00000000000000000000000000000000000000006020830152604082019050919050565b6000613a9b60298361473a565b91507f544e543732313a207472616e73666572206f6620746f6b656e2074686174206960008301527f73206e6f74206f776e00000000000000000000000000000000000000000000006020830152604082019050919050565b6000613b0160218361473a565b91507f544e543732313a20617070726f76616c20746f2063757272656e74206f776e6560008301527f72000000000000000000000000000000000000000000000000000000000000006020830152604082019050919050565b6000613b6760328361473a565b91507f544e543732313a207472616e7366657220746f206e6f6e20544e54373231526560008301527f63656976657220696d706c656d656e74657200000000000000000000000000006020830152604082019050919050565b6000613bcd60268361473a565b91507f416464726573733a20696e73756666696369656e742062616c616e636520666f60008301527f722063616c6c00000000000000000000000000000000000000000000000000006020830152604082019050919050565b6000613c3360388361473a565b91507f544e543732313a20617070726f76652063616c6c6572206973206e6f74206f7760008301527f6e6572206e6f7220617070726f76656420666f7220616c6c00000000000000006020830152604082019050919050565b6000613c9960248361473a565b91507f544e543732313a207472616e7366657220746f20746865207a65726f2061646460008301527f72657373000000000000000000000000000000000000000000000000000000006020830152604082019050919050565b6000613cff60268361473a565b91507f596f7572206567672068617320616c7265616479206e61747572616c6c79206860008301527f61746368656400000000000000000000000000000000000000000000000000006020830152604082019050919050565b6000613d6560478361474b565b91507f222c20226465736372697074696f6e223a22416e204e4654207468617420746860008301527f61742068617463686573222c202261747472696275746573223a22222c20226960208301527f6d616765223a22000000000000000000000000000000000000000000000000006040830152604782019050919050565b6000613df160028361474b565b91507f227d0000000000000000000000000000000000000000000000000000000000006000830152600282019050919050565b6000613e3160108361474b565b91507f48616368696e672065676773204e4654000000000000000000000000000000006000830152601082019050919050565b6000613e7160208361473a565b91507f4f776e61626c653a2063616c6c6572206973206e6f7420746865206f776e65726000830152602082019050919050565b6000613eb1602f8361473a565b91507f4552433732314d657461646174613a2055524920717565727920666f72206e6f60008301527f6e6578697374656e7420746f6b656e00000000000000000000000000000000006020830152604082019050919050565b6000613f17602c8361473a565b91507f544e543732313a20617070726f76656420717565727920666f72206e6f6e657860008301527f697374656e7420746f6b656e00000000000000000000000000000000000000006020830152604082019050919050565b6000613f7d601d8361474b565b91507f646174613a6170706c69636174696f6e2f6a736f6e3b6261736536342c0000006000830152601d82019050919050565b6000613fbd602a8361473a565b91507f544e543732313a2062616c616e636520717565727920666f7220746865207a6560008301527f726f2061646472657373000000000000000000000000000000000000000000006020830152604082019050919050565b6000614023601d8361473a565b91507f416464726573733a2063616c6c20746f206e6f6e2d636f6e74726163740000006000830152602082019050919050565b600061406360318361473a565b91507f544e543732313a207472616e736665722063616c6c6572206973206e6f74206f60008301527f776e6572206e6f7220617070726f7665640000000000000000000000000000006020830152604082019050919050565b60006140c9601c8361473a565b91507f596f7520616c7265616479206861746368656420796f757220656767000000006000830152602082019050919050565b600061410960198361473a565b91507f544e543732313a20617070726f766520746f2063616c6c6572000000000000006000830152602082019050919050565b6000614149601c8361473a565b91507f544e543732313a20746f6b656e20616c7265616479206d696e746564000000006000830152602082019050919050565b600061418960208361473a565b91507f544e543732313a206d696e7420746f20746865207a65726f20616464726573736000830152602082019050919050565b6141c5816148d5565b82525050565b6141d4816148d5565b82525050565b60006141e682846138ae565b915081905092915050565b60006141fd8284613951565b915081905092915050565b60006142148285613951565b91506142208284613951565b91508190509392505050565b600061423782613982565b915061424282613e24565b915061424d82613d58565b91506142598284613951565b915061426482613de4565b915081905092915050565b600061427a82613f70565b91506142868284613951565b915081905092915050565b60006020820190506142a66000830184613784565b92915050565b60006080820190506142c16000830187613784565b6142ce6020830186613784565b6142db60408301856141cb565b81810360608301526142ed8184613875565b905095945050505050565b600060208201905081810360008301526143128184613793565b905092915050565b600060208201905081810360008301526143348184613808565b905092915050565b60006020820190506143516000830184613866565b92915050565b600060208201905081810360008301526143718184613918565b905092915050565b60006020820190508181036000830152614392816139c2565b9050919050565b600060208201905081810360008301526143b281613a28565b9050919050565b600060208201905081810360008301526143d281613a8e565b9050919050565b600060208201905081810360008301526143f281613af4565b9050919050565b6000602082019050818103600083015261441281613b5a565b9050919050565b6000602082019050818103600083015261443281613bc0565b9050919050565b6000602082019050818103600083015261445281613c26565b9050919050565b6000602082019050818103600083015261447281613c8c565b9050919050565b6000602082019050818103600083015261449281613cf2565b9050919050565b600060208201905081810360008301526144b281613e64565b9050919050565b600060208201905081810360008301526144d281613ea4565b9050919050565b600060208201905081810360008301526144f281613f0a565b9050919050565b6000602082019050818103600083015261451281613fb0565b9050919050565b6000602082019050818103600083015261453281614016565b9050919050565b6000602082019050818103600083015261455281614056565b9050919050565b60006020820190508181036000830152614572816140bc565b9050919050565b60006020820190508181036000830152614592816140fc565b9050919050565b600060208201905081810360008301526145b28161413c565b9050919050565b600060208201905081810360008301526145d28161417c565b9050919050565b60006020820190506145ee60008301846141cb565b92915050565b6000604051905081810181811067ffffffffffffffff8211171561461b5761461a614a29565b5b8060405250919050565b600067ffffffffffffffff8211156146405761463f614a29565b5b601f19601f8301169050602081019050919050565b600067ffffffffffffffff8211156146705761466f614a29565b5b601f19601f8301169050602081019050919050565b6000819050602082019050919050565b6000819050602082019050919050565b600081519050919050565b600081519050919050565b600081519050919050565b600081519050919050565b6000602082019050919050565b6000602082019050919050565b600082825260208201905092915050565b600082825260208201905092915050565b600082825260208201905092915050565b600081905092915050565b600082825260208201905092915050565b600082825260208201905092915050565b600081905092915050565b6000614761826148d5565b915061476c836148d5565b9250827fffffffffffffffffffffffffffffffffffffffffffffffffffffffffffffffff038211156147a1576147a061499c565b5b828201905092915050565b60006147b7826148d5565b91506147c2836148d5565b9250826147d2576147d16149cb565b5b828204905092915050565b60006147e8826148d5565b91506147f3836148d5565b9250817fffffffffffffffffffffffffffffffffffffffffffffffffffffffffffffffff048311821515161561482c5761482b61499c565b5b828202905092915050565b6000614842826148d5565b915061484d836148d5565b9250828210156148605761485f61499c565b5b828203905092915050565b6000614876826148b5565b9050919050565b60008115159050919050565b60007fffffffff0000000000000000000000000000000000000000000000000000000082169050919050565b600073ffffffffffffffffffffffffffffffffffffffff82169050919050565b6000819050919050565b82818337600083830152505050565b60005b8381101561490c5780820151818401526020810190506148f1565b8381111561491b576000848401525b50505050565b6000600282049050600182168061493957607f821691505b6020821081141561494d5761494c6149fa565b5b50919050565b600061495e826148d5565b91507fffffffffffffffffffffffffffffffffffffffffffffffffffffffffffffffff8214156149915761499061499c565b5b600182019050919050565b7f4e487b7100000000000000000000000000000000000000000000000000000000600052601160045260246000fd5b7f4e487b7100000000000000000000000000000000000000000000000000000000600052601260045260246000fd5b7f4e487b7100000000000000000000000000000000000000000000000000000000600052602260045260246000fd5b7f4e487b7100000000000000000000000000000000000000000000000000000000600052604160045260246000fd5b6000601f19601f8301169050919050565b614a728161486b565b8114614a7d57600080fd5b50565b614a898161487d565b8114614a9457600080fd5b50565b614aa081614889565b8114614aab57600080fd5b50565b614ab7816148d5565b8114614ac257600080fd5b5056fe544e543732313a206f776e657220717565727920666f72206e6f6e6578697374656e7420746f6b656e544e543732313a207472616e7366657220746f206e6f6e20544e54373231526563656976657220696d706c656d656e7465724142434445464748494a4b4c4d4e4f505152535455565758595a6162636465666768696a6b6c6d6e6f707172737475767778797a303132333435363738392b2fa2646970667358221220f1ea24e61973cca6692449bcc8d5e41eb2636930f2e8cf89d7a0323442760d0c64736f6c63430008000033",
  "devdoc": {
    "kind": "dev",
    "methods": {
      "owner()": {
        "details": "Returns the address of the current owner."
      },
      "renounceOwnership()": {
        "details": "Leaves the contract without owner. It will not be possible to call `onlyOwner` functions anymore. Can only be called by the current owner. NOTE: Renouncing ownership will leave the contract without an owner, thereby removing any functionality that is only available to the owner."
      },
      "transferOwnership(address)": {
        "details": "Transfers ownership of the contract to a new account (`newOwner`). Can only be called by the current owner."
      }
    },
    "version": 1
  },
  "userdoc": {
    "kind": "user",
    "methods": {},
    "version": 1
  },
  "storageLayout": {
    "storage": [
      {
        "astId": 2070,
        "contract": "contracts/TeggNFTTheta.sol:TeggNFTTheta",
        "label": "_supportedInterfaces",
        "offset": 0,
        "slot": "0",
        "type": "t_mapping(t_bytes4,t_bool)"
      },
      {
        "astId": 2146,
        "contract": "contracts/TeggNFTTheta.sol:TeggNFTTheta",
        "label": "_holderTokens",
        "offset": 0,
        "slot": "1",
        "type": "t_mapping(t_address,t_struct(UintSet)1089_storage)"
      },
      {
        "astId": 2149,
        "contract": "contracts/TeggNFTTheta.sol:TeggNFTTheta",
        "label": "_tokenOwners",
        "offset": 0,
        "slot": "2",
        "type": "t_struct(UintToAddressMap)1461_storage"
      },
      {
        "astId": 2153,
        "contract": "contracts/TeggNFTTheta.sol:TeggNFTTheta",
        "label": "_tokenApprovals",
        "offset": 0,
        "slot": "5",
        "type": "t_mapping(t_uint256,t_address)"
      },
      {
        "astId": 2159,
        "contract": "contracts/TeggNFTTheta.sol:TeggNFTTheta",
        "label": "_operatorApprovals",
        "offset": 0,
        "slot": "6",
        "type": "t_mapping(t_address,t_mapping(t_address,t_bool))"
      },
      {
        "astId": 2161,
        "contract": "contracts/TeggNFTTheta.sol:TeggNFTTheta",
        "label": "_name",
        "offset": 0,
        "slot": "7",
        "type": "t_string_storage"
      },
      {
        "astId": 2163,
        "contract": "contracts/TeggNFTTheta.sol:TeggNFTTheta",
        "label": "_symbol",
        "offset": 0,
        "slot": "8",
        "type": "t_string_storage"
      },
      {
        "astId": 2167,
        "contract": "contracts/TeggNFTTheta.sol:TeggNFTTheta",
        "label": "_tokenURIs",
        "offset": 0,
        "slot": "9",
        "type": "t_mapping(t_uint256,t_string_storage)"
      },
      {
        "astId": 2169,
        "contract": "contracts/TeggNFTTheta.sol:TeggNFTTheta",
        "label": "_baseURI",
        "offset": 0,
        "slot": "10",
        "type": "t_string_storage"
      },
      {
        "astId": 3007,
        "contract": "contracts/TeggNFTTheta.sol:TeggNFTTheta",
        "label": "_owner",
        "offset": 0,
        "slot": "11",
        "type": "t_address"
      },
      {
        "astId": 3161,
        "contract": "contracts/TeggNFTTheta.sol:TeggNFTTheta",
        "label": "hatchTime",
        "offset": 0,
        "slot": "12",
        "type": "t_uint256"
      },
      {
        "astId": 3163,
        "contract": "contracts/TeggNFTTheta.sol:TeggNFTTheta",
        "label": "HatchTime",
        "offset": 0,
        "slot": "13",
        "type": "t_uint256"
      },
      {
        "astId": 3165,
        "contract": "contracts/TeggNFTTheta.sol:TeggNFTTheta",
        "label": "tokenCounter",
        "offset": 0,
        "slot": "14",
        "type": "t_uint256"
      },
      {
        "astId": 3167,
        "contract": "contracts/TeggNFTTheta.sol:TeggNFTTheta",
        "label": "eggImageURI",
        "offset": 0,
        "slot": "15",
        "type": "t_string_storage"
      },
      {
        "astId": 3169,
        "contract": "contracts/TeggNFTTheta.sol:TeggNFTTheta",
        "label": "hatchImageURI",
        "offset": 0,
        "slot": "16",
        "type": "t_string_storage"
      },
      {
        "astId": 3172,
        "contract": "contracts/TeggNFTTheta.sol:TeggNFTTheta",
        "label": "hatchFee",
        "offset": 0,
        "slot": "17",
        "type": "t_uint256"
      },
      {
        "astId": 3176,
        "contract": "contracts/TeggNFTTheta.sol:TeggNFTTheta",
        "label": "tokenIdToHatchTimer",
        "offset": 0,
        "slot": "18",
        "type": "t_mapping(t_uint256,t_uint256)"
      }
    ],
    "types": {
      "t_address": {
        "encoding": "inplace",
        "label": "address",
        "numberOfBytes": "20"
      },
      "t_array(t_bytes32)dyn_storage": {
        "base": "t_bytes32",
        "encoding": "dynamic_array",
        "label": "bytes32[]",
        "numberOfBytes": "32"
      },
      "t_bool": {
        "encoding": "inplace",
        "label": "bool",
        "numberOfBytes": "1"
      },
      "t_bytes32": {
        "encoding": "inplace",
        "label": "bytes32",
        "numberOfBytes": "32"
      },
      "t_bytes4": {
        "encoding": "inplace",
        "label": "bytes4",
        "numberOfBytes": "4"
      },
      "t_mapping(t_address,t_bool)": {
        "encoding": "mapping",
        "key": "t_address",
        "label": "mapping(address => bool)",
        "numberOfBytes": "32",
        "value": "t_bool"
      },
      "t_mapping(t_address,t_mapping(t_address,t_bool))": {
        "encoding": "mapping",
        "key": "t_address",
        "label": "mapping(address => mapping(address => bool))",
        "numberOfBytes": "32",
        "value": "t_mapping(t_address,t_bool)"
      },
      "t_mapping(t_address,t_struct(UintSet)1089_storage)": {
        "encoding": "mapping",
        "key": "t_address",
        "label": "mapping(address => struct EnumerableSet.UintSet)",
        "numberOfBytes": "32",
        "value": "t_struct(UintSet)1089_storage"
      },
      "t_mapping(t_bytes32,t_bytes32)": {
        "encoding": "mapping",
        "key": "t_bytes32",
        "label": "mapping(bytes32 => bytes32)",
        "numberOfBytes": "32",
        "value": "t_bytes32"
      },
      "t_mapping(t_bytes32,t_uint256)": {
        "encoding": "mapping",
        "key": "t_bytes32",
        "label": "mapping(bytes32 => uint256)",
        "numberOfBytes": "32",
        "value": "t_uint256"
      },
      "t_mapping(t_bytes4,t_bool)": {
        "encoding": "mapping",
        "key": "t_bytes4",
        "label": "mapping(bytes4 => bool)",
        "numberOfBytes": "32",
        "value": "t_bool"
      },
      "t_mapping(t_uint256,t_address)": {
        "encoding": "mapping",
        "key": "t_uint256",
        "label": "mapping(uint256 => address)",
        "numberOfBytes": "32",
        "value": "t_address"
      },
      "t_mapping(t_uint256,t_string_storage)": {
        "encoding": "mapping",
        "key": "t_uint256",
        "label": "mapping(uint256 => string)",
        "numberOfBytes": "32",
        "value": "t_string_storage"
      },
      "t_mapping(t_uint256,t_uint256)": {
        "encoding": "mapping",
        "key": "t_uint256",
        "label": "mapping(uint256 => uint256)",
        "numberOfBytes": "32",
        "value": "t_uint256"
      },
      "t_string_storage": {
        "encoding": "bytes",
        "label": "string",
        "numberOfBytes": "32"
      },
      "t_struct(Bytes32Set)825_storage": {
        "encoding": "inplace",
        "label": "struct EnumerableSet.Bytes32Set",
        "members": [
          {
            "astId": 824,
            "contract": "contracts/TeggNFTTheta.sol:TeggNFTTheta",
            "label": "_inner",
            "offset": 0,
            "slot": "0",
            "type": "t_struct(Set)631_storage"
          }
        ],
        "numberOfBytes": "64"
      },
      "t_struct(Map)1231_storage": {
        "encoding": "inplace",
        "label": "struct EnumerableMap.Map",
        "members": [
          {
            "astId": 1226,
            "contract": "contracts/TeggNFTTheta.sol:TeggNFTTheta",
            "label": "_keys",
            "offset": 0,
            "slot": "0",
            "type": "t_struct(Bytes32Set)825_storage"
          },
          {
            "astId": 1230,
            "contract": "contracts/TeggNFTTheta.sol:TeggNFTTheta",
            "label": "_values",
            "offset": 0,
            "slot": "2",
            "type": "t_mapping(t_bytes32,t_bytes32)"
          }
        ],
        "numberOfBytes": "96"
      },
      "t_struct(Set)631_storage": {
        "encoding": "inplace",
        "label": "struct EnumerableSet.Set",
        "members": [
          {
            "astId": 626,
            "contract": "contracts/TeggNFTTheta.sol:TeggNFTTheta",
            "label": "_values",
            "offset": 0,
            "slot": "0",
            "type": "t_array(t_bytes32)dyn_storage"
          },
          {
            "astId": 630,
            "contract": "contracts/TeggNFTTheta.sol:TeggNFTTheta",
            "label": "_indexes",
            "offset": 0,
            "slot": "1",
            "type": "t_mapping(t_bytes32,t_uint256)"
          }
        ],
        "numberOfBytes": "64"
      },
      "t_struct(UintSet)1089_storage": {
        "encoding": "inplace",
        "label": "struct EnumerableSet.UintSet",
        "members": [
          {
            "astId": 1088,
            "contract": "contracts/TeggNFTTheta.sol:TeggNFTTheta",
            "label": "_inner",
            "offset": 0,
            "slot": "0",
            "type": "t_struct(Set)631_storage"
          }
        ],
        "numberOfBytes": "64"
      },
      "t_struct(UintToAddressMap)1461_storage": {
        "encoding": "inplace",
        "label": "struct EnumerableMap.UintToAddressMap",
        "members": [
          {
            "astId": 1460,
            "contract": "contracts/TeggNFTTheta.sol:TeggNFTTheta",
            "label": "_inner",
            "offset": 0,
            "slot": "0",
            "type": "t_struct(Map)1231_storage"
          }
        ],
        "numberOfBytes": "96"
      },
      "t_uint256": {
        "encoding": "inplace",
        "label": "uint256",
        "numberOfBytes": "32"
      }
    }
  }
}